{
  "address": "0x782DA49Db32563BF943028391e5d68254219bCef",
  "abi": [
    {
      "inputs": [],
      "stateMutability": "nonpayable",
      "type": "constructor"
    },
    {
      "inputs": [],
      "name": "admin",
      "outputs": [
        {
          "internalType": "address",
          "name": "",
          "type": "address"
        }
      ],
      "stateMutability": "view",
      "type": "function"
    },
    {
      "inputs": [],
      "name": "amountRecaudedFees",
      "outputs": [
        {
          "internalType": "uint256",
          "name": "",
          "type": "uint256"
        }
      ],
      "stateMutability": "view",
      "type": "function"
    },
    {
      "inputs": [
        {
          "internalType": "string",
          "name": "_tokenName",
          "type": "string"
        },
        {
          "internalType": "string",
          "name": "_tokenSymbol",
          "type": "string"
        },
        {
          "internalType": "string",
          "name": "_name",
          "type": "string"
        },
        {
          "internalType": "string",
          "name": "_description",
          "type": "string"
        },
        {
          "internalType": "uint256",
          "name": "_bronzePrice",
          "type": "uint256"
        },
        {
          "internalType": "uint256",
          "name": "_silverPrice",
          "type": "uint256"
        },
        {
          "internalType": "uint256",
          "name": "_goldPrice",
          "type": "uint256"
        }
      ],
      "name": "createProfile",
      "outputs": [],
      "stateMutability": "nonpayable",
      "type": "function"
    },
    {
      "inputs": [
        {
          "internalType": "uint256",
          "name": "",
          "type": "uint256"
        }
      ],
      "name": "createdProfiles",
      "outputs": [
        {
          "internalType": "address",
          "name": "",
          "type": "address"
        }
      ],
      "stateMutability": "view",
      "type": "function"
    },
    {
      "inputs": [
        {
          "internalType": "address",
          "name": "",
          "type": "address"
        }
      ],
      "name": "creatorContract",
      "outputs": [
        {
          "internalType": "address",
          "name": "",
          "type": "address"
        }
      ],
      "stateMutability": "view",
      "type": "function"
    },
    {
      "inputs": [],
      "name": "getAllCreators",
      "outputs": [
        {
          "internalType": "address[]",
          "name": "",
          "type": "address[]"
        }
      ],
      "stateMutability": "view",
      "type": "function"
    },
    {
      "inputs": [
        {
          "internalType": "address",
          "name": "_creatorAddress",
          "type": "address"
        }
      ],
      "name": "getCreatorContractAddress",
      "outputs": [
        {
          "internalType": "address",
          "name": "",
          "type": "address"
        }
      ],
      "stateMutability": "view",
      "type": "function"
    },
    {
      "inputs": [
        {
          "internalType": "address",
          "name": "_creatorAddress",
          "type": "address"
        }
      ],
      "name": "isSignedUp",
      "outputs": [
        {
          "internalType": "bool",
          "name": "",
          "type": "bool"
        }
      ],
      "stateMutability": "view",
      "type": "function"
    },
    {
      "inputs": [],
      "name": "recaudeFees",
      "outputs": [],
      "stateMutability": "payable",
      "type": "function"
    },
    {
      "inputs": [],
      "name": "suscriptionFee",
      "outputs": [
        {
          "internalType": "uint256",
          "name": "",
          "type": "uint256"
        }
      ],
      "stateMutability": "view",
      "type": "function"
    },
    {
      "inputs": [
        {
          "internalType": "string",
          "name": "",
          "type": "string"
        }
      ],
      "name": "userProfile",
      "outputs": [
        {
          "internalType": "address",
          "name": "",
          "type": "address"
        }
      ],
      "stateMutability": "view",
      "type": "function"
    },
    {
      "inputs": [
        {
          "internalType": "address payable",
          "name": "_to",
          "type": "address"
        }
      ],
      "name": "withdrawFees",
      "outputs": [],
      "stateMutability": "nonpayable",
      "type": "function"
    }
  ],
  "transactionHash": "0x268ec553865a006509a13bf3422768a2676acaca66b86fc1454fafefe4538004",
  "args": [],
  "numDeployments": 27,
  "solcInputHash": "126b5be40a18910700d57d11144a393d",
  "bytecode": "0x608060405234801561001057600080fd5b5033600360006101000a81548173ffffffffffffffffffffffffffffffffffffffff021916908373ffffffffffffffffffffffffffffffffffffffff1602179055506014600481905550615ee8806100696000396000f3fe608060405260043610620000b65760003560e01c8063aae83c82116200006d578063aae83c821462000213578063c2d8e1ad1462000243578063eb8cdd341462000287578063f193e1a51462000293578063f851a44014620002d7578063f97fac4d146200030757620000b6565b8063164e68de14620000bb57806322b6ffca14620000e957806327537498146200012d57806334af431d146200015d5780633de6053a14620001a1578063588a168214620001e5575b600080fd5b348015620000c857600080fd5b50620000e76004803603810190620000e1919062000a0b565b62000337565b005b348015620000f657600080fd5b506200011560048036038101906200010f919062000a82565b620003e7565b60405162000124919062000ad1565b60405180910390f35b3480156200013a57600080fd5b506200014562000490565b60405162000154919062000b09565b60405180910390f35b3480156200016a57600080fd5b5062000189600480360381019062000183919062000a82565b62000496565b60405162000198919062000b37565b60405180910390f35b348015620001ae57600080fd5b50620001cd6004803603810190620001c7919062000a82565b620004c9565b604051620001dc919062000b37565b60405180910390f35b348015620001f257600080fd5b506200021160048036038101906200020b919062000ce7565b62000532565b005b3480156200022057600080fd5b506200022b62000822565b6040516200023a919062000b09565b60405180910390f35b3480156200025057600080fd5b506200026f600480360381019062000269919062000e16565b62000828565b6040516200027e919062000b37565b60405180910390f35b6200029162000871565b005b348015620002a057600080fd5b50620002bf6004803603810190620002b9919062000e67565b6200088e565b604051620002ce919062000b37565b60405180910390f35b348015620002e457600080fd5b50620002ef620008ce565b604051620002fe919062000b37565b60405180910390f35b3480156200031457600080fd5b506200031f620008f4565b6040516200032e919062000f67565b60405180910390f35b600360009054906101000a900473ffffffffffffffffffffffffffffffffffffffff1673ffffffffffffffffffffffffffffffffffffffff163373ffffffffffffffffffffffffffffffffffffffff16146200039257600080fd5b8073ffffffffffffffffffffffffffffffffffffffff166108fc6005549081150290604051600060405180830381858888f19350505050158015620003db573d6000803e3d6000fd5b50600060058190555050565b60008073ffffffffffffffffffffffffffffffffffffffff16600260008473ffffffffffffffffffffffffffffffffffffffff1673ffffffffffffffffffffffffffffffffffffffff16815260200190815260200160002060009054906101000a900473ffffffffffffffffffffffffffffffffffffffff1673ffffffffffffffffffffffffffffffffffffffff16036200048657600090506200048b565b600190505b919050565b60045481565b60026020528060005260406000206000915054906101000a900473ffffffffffffffffffffffffffffffffffffffff1681565b6000600260008373ffffffffffffffffffffffffffffffffffffffff1673ffffffffffffffffffffffffffffffffffffffff16815260200190815260200160002060009054906101000a900473ffffffffffffffffffffffffffffffffffffffff169050919050565b600060018660405162000546919062001004565b908152602001604051809103902060009054906101000a900473ffffffffffffffffffffffffffffffffffffffff169050600073ffffffffffffffffffffffffffffffffffffffff16600260003373ffffffffffffffffffffffffffffffffffffffff1673ffffffffffffffffffffffffffffffffffffffff16815260200190815260200160002060009054906101000a900473ffffffffffffffffffffffffffffffffffffffff1673ffffffffffffffffffffffffffffffffffffffff161462000648576040517f08c379a00000000000000000000000000000000000000000000000000000000081526004016200063f906200107e565b60405180910390fd5b600073ffffffffffffffffffffffffffffffffffffffff168173ffffffffffffffffffffffffffffffffffffffff16146200068257600080fd5b600088883389898989896004546040516200069d9062000984565b620006b199989796959493929190620010e1565b604051809103906000f080158015620006ce573d6000803e3d6000fd5b50905060008190506000819080600181540180825580915050600190039060005260206000200160009091909190916101000a81548173ffffffffffffffffffffffffffffffffffffffff021916908373ffffffffffffffffffffffffffffffffffffffff160217905550806001896040516200074c919062001004565b908152602001604051809103902060006101000a81548173ffffffffffffffffffffffffffffffffffffffff021916908373ffffffffffffffffffffffffffffffffffffffff16021790555080600260003373ffffffffffffffffffffffffffffffffffffffff1673ffffffffffffffffffffffffffffffffffffffff16815260200190815260200160002060006101000a81548173ffffffffffffffffffffffffffffffffffffffff021916908373ffffffffffffffffffffffffffffffffffffffff16021790555050505050505050505050565b60055481565b6001818051602081018201805184825260208301602085012081835280955050505050506000915054906101000a900473ffffffffffffffffffffffffffffffffffffffff1681565b3460056000828254620008859190620011cb565b92505081905550565b600081815481106200089f57600080fd5b906000526020600020016000915054906101000a900473ffffffffffffffffffffffffffffffffffffffff1681565b600360009054906101000a900473ffffffffffffffffffffffffffffffffffffffff1681565b606060008054806020026020016040519081016040528092919081815260200182805480156200097a57602002820191906000526020600020905b8160009054906101000a900473ffffffffffffffffffffffffffffffffffffffff1673ffffffffffffffffffffffffffffffffffffffff16815260200190600101908083116200092f575b5050505050905090565b614cac806200120783390190565b6000604051905090565b600080fd5b600080fd5b600073ffffffffffffffffffffffffffffffffffffffff82169050919050565b6000620009d382620009a6565b9050919050565b620009e581620009c6565b8114620009f157600080fd5b50565b60008135905062000a0581620009da565b92915050565b60006020828403121562000a245762000a236200099c565b5b600062000a3484828501620009f4565b91505092915050565b600062000a4a82620009a6565b9050919050565b62000a5c8162000a3d565b811462000a6857600080fd5b50565b60008135905062000a7c8162000a51565b92915050565b60006020828403121562000a9b5762000a9a6200099c565b5b600062000aab8482850162000a6b565b91505092915050565b60008115159050919050565b62000acb8162000ab4565b82525050565b600060208201905062000ae8600083018462000ac0565b92915050565b6000819050919050565b62000b038162000aee565b82525050565b600060208201905062000b20600083018462000af8565b92915050565b62000b318162000a3d565b82525050565b600060208201905062000b4e600083018462000b26565b92915050565b600080fd5b600080fd5b6000601f19601f8301169050919050565b7f4e487b7100000000000000000000000000000000000000000000000000000000600052604160045260246000fd5b62000ba98262000b5e565b810181811067ffffffffffffffff8211171562000bcb5762000bca62000b6f565b5b80604052505050565b600062000be062000992565b905062000bee828262000b9e565b919050565b600067ffffffffffffffff82111562000c115762000c1062000b6f565b5b62000c1c8262000b5e565b9050602081019050919050565b82818337600083830152505050565b600062000c4f62000c498462000bf3565b62000bd4565b90508281526020810184848401111562000c6e5762000c6d62000b59565b5b62000c7b84828562000c29565b509392505050565b600082601f83011262000c9b5762000c9a62000b54565b5b813562000cad84826020860162000c38565b91505092915050565b62000cc18162000aee565b811462000ccd57600080fd5b50565b60008135905062000ce18162000cb6565b92915050565b600080600080600080600060e0888a03121562000d095762000d086200099c565b5b600088013567ffffffffffffffff81111562000d2a5762000d29620009a1565b5b62000d388a828b0162000c83565b975050602088013567ffffffffffffffff81111562000d5c5762000d5b620009a1565b5b62000d6a8a828b0162000c83565b965050604088013567ffffffffffffffff81111562000d8e5762000d8d620009a1565b5b62000d9c8a828b0162000c83565b955050606088013567ffffffffffffffff81111562000dc05762000dbf620009a1565b5b62000dce8a828b0162000c83565b945050608062000de18a828b0162000cd0565b93505060a062000df48a828b0162000cd0565b92505060c062000e078a828b0162000cd0565b91505092959891949750929550565b60006020828403121562000e2f5762000e2e6200099c565b5b600082013567ffffffffffffffff81111562000e505762000e4f620009a1565b5b62000e5e8482850162000c83565b91505092915050565b60006020828403121562000e805762000e7f6200099c565b5b600062000e908482850162000cd0565b91505092915050565b600081519050919050565b600082825260208201905092915050565b6000819050602082019050919050565b62000ed08162000a3d565b82525050565b600062000ee4838362000ec5565b60208301905092915050565b6000602082019050919050565b600062000f0a8262000e99565b62000f16818562000ea4565b935062000f238362000eb5565b8060005b8381101562000f5a57815162000f3e888262000ed6565b975062000f4b8362000ef0565b92505060018101905062000f27565b5085935050505092915050565b6000602082019050818103600083015262000f83818462000efd565b905092915050565b600081519050919050565b600081905092915050565b60005b8381101562000fc157808201518184015260208101905062000fa4565b60008484015250505050565b600062000fda8262000f8b565b62000fe6818562000f96565b935062000ff881856020860162000fa1565b80840191505092915050565b600062001012828462000fcd565b915081905092915050565b600082825260208201905092915050565b7f6475706c6963617465206163636f756e74000000000000000000000000000000600082015250565b6000620010666011836200101d565b915062001073826200102e565b602082019050919050565b60006020820190508181036000830152620010998162001057565b9050919050565b6000620010ad8262000f8b565b620010b981856200101d565b9350620010cb81856020860162000fa1565b620010d68162000b5e565b840191505092915050565b6000610120820190508181036000830152620010fe818c620010a0565b9050818103602083015262001114818b620010a0565b905062001125604083018a62000b26565b8181036060830152620011398189620010a0565b905081810360808301526200114f8188620010a0565b90506200116060a083018762000af8565b6200116f60c083018662000af8565b6200117e60e083018562000af8565b6200118e61010083018462000af8565b9a9950505050505050505050565b7f4e487b7100000000000000000000000000000000000000000000000000000000600052601160045260246000fd5b6000620011d88262000aee565b9150620011e58362000aee565b92508282019050808211156200120057620011ff6200119c565b5b9291505056fe608060405262278d006013553480156200001857600080fd5b5060405162004cac38038062004cac83398181016040528101906200003e9190620005ff565b888881600090816200005191906200099b565b5080600190816200006391906200099b565b505050620000866200007a620002fe60201b60201c565b6200030660201b60201c565b33600760006101000a81548173ffffffffffffffffffffffffffffffffffffffff021916908373ffffffffffffffffffffffffffffffffffffffff160217905550620000d8876200030660201b60201c565b8560089081620000e991906200099b565b508460099081620000fb91906200099b565b508060108190555060405180606001604052806040518060400160405280600681526020017f62726f6e7a6500000000000000000000000000000000000000000000000000008152508152602001620f4240866200015a919062000ab1565b81526020016000815250601260006001815260200190815260200160002060008201518160000190816200018f91906200099b565b50602082015181600101556040820151816002015590505060405180606001604052806040518060400160405280600681526020017f73696c76657200000000000000000000000000000000000000000000000000008152508152602001620f424085620001fe919062000ab1565b81526020016000815250601260006002815260200190815260200160002060008201518160000190816200023391906200099b565b50602082015181600101556040820151816002015590505060405180606001604052806040518060400160405280600481526020017f676f6c64000000000000000000000000000000000000000000000000000000008152508152602001620f424084620002a2919062000ab1565b8152602001600081525060126000600381526020019081526020016000206000820151816000019081620002d791906200099b565b50602082015181600101556040820151816002015590505050505050505050505062000afc565b600033905090565b6000600660009054906101000a900473ffffffffffffffffffffffffffffffffffffffff16905081600660006101000a81548173ffffffffffffffffffffffffffffffffffffffff021916908373ffffffffffffffffffffffffffffffffffffffff1602179055508173ffffffffffffffffffffffffffffffffffffffff168173ffffffffffffffffffffffffffffffffffffffff167f8be0079c531659141344cd1fd0a4f28419497f9722a3daafe3b4186f6b6457e060405160405180910390a35050565b6000604051905090565b600080fd5b600080fd5b600080fd5b600080fd5b6000601f19601f8301169050919050565b7f4e487b7100000000000000000000000000000000000000000000000000000000600052604160045260246000fd5b6200043582620003ea565b810181811067ffffffffffffffff82111715620004575762000456620003fb565b5b80604052505050565b60006200046c620003cc565b90506200047a82826200042a565b919050565b600067ffffffffffffffff8211156200049d576200049c620003fb565b5b620004a882620003ea565b9050602081019050919050565b60005b83811015620004d5578082015181840152602081019050620004b8565b60008484015250505050565b6000620004f8620004f2846200047f565b62000460565b905082815260208101848484011115620005175762000516620003e5565b5b62000524848285620004b5565b509392505050565b600082601f830112620005445762000543620003e0565b5b815162000556848260208601620004e1565b91505092915050565b600073ffffffffffffffffffffffffffffffffffffffff82169050919050565b60006200058c826200055f565b9050919050565b6200059e816200057f565b8114620005aa57600080fd5b50565b600081519050620005be8162000593565b92915050565b6000819050919050565b620005d981620005c4565b8114620005e557600080fd5b50565b600081519050620005f981620005ce565b92915050565b60008060008060008060008060006101208a8c031215620006255762000624620003d6565b5b60008a015167ffffffffffffffff811115620006465762000645620003db565b5b620006548c828d016200052c565b99505060208a015167ffffffffffffffff811115620006785762000677620003db565b5b620006868c828d016200052c565b9850506040620006998c828d01620005ad565b97505060608a015167ffffffffffffffff811115620006bd57620006bc620003db565b5b620006cb8c828d016200052c565b96505060808a015167ffffffffffffffff811115620006ef57620006ee620003db565b5b620006fd8c828d016200052c565b95505060a0620007108c828d01620005e8565b94505060c0620007238c828d01620005e8565b93505060e0620007368c828d01620005e8565b9250506101006200074a8c828d01620005e8565b9150509295985092959850929598565b600081519050919050565b7f4e487b7100000000000000000000000000000000000000000000000000000000600052602260045260246000fd5b60006002820490506001821680620007ad57607f821691505b602082108103620007c357620007c262000765565b5b50919050565b60008190508160005260206000209050919050565b60006020601f8301049050919050565b600082821b905092915050565b6000600883026200082d7fffffffffffffffffffffffffffffffffffffffffffffffffffffffffffffffff82620007ee565b620008398683620007ee565b95508019841693508086168417925050509392505050565b6000819050919050565b60006200087c620008766200087084620005c4565b62000851565b620005c4565b9050919050565b6000819050919050565b62000898836200085b565b620008b0620008a78262000883565b848454620007fb565b825550505050565b600090565b620008c7620008b8565b620008d48184846200088d565b505050565b5b81811015620008fc57620008f0600082620008bd565b600181019050620008da565b5050565b601f8211156200094b576200091581620007c9565b6200092084620007de565b8101602085101562000930578190505b620009486200093f85620007de565b830182620008d9565b50505b505050565b600082821c905092915050565b6000620009706000198460080262000950565b1980831691505092915050565b60006200098b83836200095d565b9150826002028217905092915050565b620009a6826200075a565b67ffffffffffffffff811115620009c257620009c1620003fb565b5b620009ce825462000794565b620009db82828562000900565b600060209050601f83116001811462000a135760008415620009fe578287015190505b62000a0a85826200097d565b86555062000a7a565b601f19841662000a2386620007c9565b60005b8281101562000a4d5784890151825560018201915060208501945060208101905062000a26565b8683101562000a6d578489015162000a69601f8916826200095d565b8355505b6001600288020188555050505b505050505050565b7f4e487b7100000000000000000000000000000000000000000000000000000000600052601160045260246000fd5b600062000abe82620005c4565b915062000acb83620005c4565b925082820262000adb81620005c4565b9150828204841483151762000af55762000af462000a82565b5b5092915050565b6141a08062000b0c6000396000f3fe6080604052600436106102455760003560e01c80637a94a63311610139578063b88d4fde116100b6578063c87b56dd1161007a578063c87b56dd146108a1578063de4529eb146108de578063e0ded7761461091b578063e985e9c514610937578063ed88c68e14610974578063f2fde38b1461097e57610245565b8063b88d4fde146107a7578063b92ae87c146107d0578063bcb2226a1461080e578063c5da76041461084b578063c707944b1461087657610245565b80638da5cb5b116100fd5780638da5cb5b146106d257806395d89b41146106fd578063a22cb46514610728578063a3e3981114610751578063b1d140681461077c57610245565b80637a94a633146105e25780637efab5f31461060d5780638356c1e11461064c578063863678e91461067e578063893d20e8146106a757610245565b806327537498116101c7578063534844a21161018b578063534844a2146104fd5780636352211e1461051457806370a0823114610551578063715018a61461058e5780637235d7d9146105a557610245565b8063275374981461041457806327e25dcc1461043f5780632ae25fd2146104805780632dc282e9146104a957806342842e0e146104d457610245565b8063095ea7b31161020e578063095ea7b31461033157806309c2e0d21461035a5780631dbe69d41461038357806321c7557c146103ae57806323b872dd146103eb57610245565b8062b370441461024a57806301ffc9a71461027557806302d17a15146102b257806306fdde03146102c9578063081812fc146102f4575b600080fd5b34801561025657600080fd5b5061025f6109a7565b60405161026c9190612cda565b60405180910390f35b34801561028157600080fd5b5061029c60048036038101906102979190612d61565b6109ad565b6040516102a99190612da9565b60405180910390f35b3480156102be57600080fd5b506102c7610a8f565b005b3480156102d557600080fd5b506102de610b66565b6040516102eb9190612e54565b60405180910390f35b34801561030057600080fd5b5061031b60048036038101906103169190612ea2565b610bf8565b6040516103289190612f10565b60405180910390f35b34801561033d57600080fd5b5061035860048036038101906103539190612f57565b610c3e565b005b34801561036657600080fd5b50610381600480360381019061037c91906130cc565b610c4d565b005b34801561038f57600080fd5b50610398610d90565b6040516103a59190613335565b60405180910390f35b3480156103ba57600080fd5b506103d560048036038101906103d09190613357565b610fca565b6040516103e29190612cda565b60405180910390f35b3480156103f757600080fd5b50610412600480360381019061040d9190613384565b610fe2565b005b34801561042057600080fd5b50610429610ff2565b6040516104369190612cda565b60405180910390f35b34801561044b57600080fd5b5061046660048036038101906104619190612ea2565b610ff8565b6040516104779594939291906133d7565b60405180910390f35b34801561048c57600080fd5b506104a760048036038101906104a2919061343f565b6111e3565b005b3480156104b557600080fd5b506104be611269565b6040516104cb9190612cda565b60405180910390f35b3480156104e057600080fd5b506104fb60048036038101906104f69190613384565b61126f565b005b34801561050957600080fd5b5061051261127f565b005b34801561052057600080fd5b5061053b60048036038101906105369190612ea2565b6112e7565b6040516105489190612f10565b60405180910390f35b34801561055d57600080fd5b5061057860048036038101906105739190613357565b61136d565b6040516105859190612cda565b60405180910390f35b34801561059a57600080fd5b506105a3611424565b005b3480156105b157600080fd5b506105cc60048036038101906105c7919061343f565b611438565b6040516105d99190612cda565b60405180910390f35b3480156105ee57600080fd5b506105f7611466565b6040516106049190612cda565b60405180910390f35b34801561061957600080fd5b50610634600480360381019061062f9190612ea2565b61146c565b60405161064393929190613488565b60405180910390f35b34801561065857600080fd5b5061066161151e565b604051610675989796959493929190613516565b60405180910390f35b34801561068a57600080fd5b506106a560048036038101906106a0919061343f565b6118d5565b005b3480156106b357600080fd5b506106bc611963565b6040516106c99190612f10565b60405180910390f35b3480156106de57600080fd5b506106e7611977565b6040516106f49190612f10565b60405180910390f35b34801561070957600080fd5b506107126119a1565b60405161071f9190612e54565b60405180910390f35b34801561073457600080fd5b5061074f600480360381019061074a91906135e3565b611a33565b005b34801561075d57600080fd5b50610766611a42565b6040516107739190612e54565b60405180910390f35b34801561078857600080fd5b50610791611ad0565b60405161079e9190612cda565b60405180910390f35b3480156107b357600080fd5b506107ce60048036038101906107c991906136c4565b611ad6565b005b3480156107dc57600080fd5b506107f760048036038101906107f29190613357565b611ae7565b604051610805929190613747565b60405180910390f35b34801561081a57600080fd5b5061083560048036038101906108309190613357565b611b80565b6040516108429190612cda565b60405180910390f35b34801561085757600080fd5b50610860611b98565b60405161086d9190612e54565b60405180910390f35b34801561088257600080fd5b5061088b611c26565b6040516108989190612cda565b60405180910390f35b3480156108ad57600080fd5b506108c860048036038101906108c39190612ea2565b611c2c565b6040516108d59190612e54565b60405180910390f35b3480156108ea57600080fd5b5061090560048036038101906109009190613357565b611c94565b6040516109129190612cda565b60405180910390f35b61093560048036038101906109309190612ea2565b611cac565b005b34801561094357600080fd5b5061095e60048036038101906109599190613770565b61219f565b60405161096b9190612da9565b60405180910390f35b61097c612233565b005b34801561098a57600080fd5b506109a560048036038101906109a09190613357565b61231a565b005b600f5481565b60007f80ac58cd000000000000000000000000000000000000000000000000000000007bffffffffffffffffffffffffffffffffffffffffffffffffffffffff1916827bffffffffffffffffffffffffffffffffffffffffffffffffffffffff19161480610a7857507f5b5e139f000000000000000000000000000000000000000000000000000000007bffffffffffffffffffffffffffffffffffffffffffffffffffffffff1916827bffffffffffffffffffffffffffffffffffffffffffffffffffffffff1916145b80610a885750610a878261239d565b5b9050919050565b6000600a54905060005b81811015610b62576000610aac826112e7565b905042601460008373ffffffffffffffffffffffffffffffffffffffff1673ffffffffffffffffffffffffffffffffffffffff168152602001908152602001600020541015610b4e576000601660008373ffffffffffffffffffffffffffffffffffffffff1673ffffffffffffffffffffffffffffffffffffffff16815260200190815260200160002060006101000a81548160ff0219169083151502179055505b508080610b5a906137df565b915050610a99565b5050565b606060008054610b7590613856565b80601f0160208091040260200160405190810160405280929190818152602001828054610ba190613856565b8015610bee5780601f10610bc357610100808354040283529160200191610bee565b820191906000526020600020905b815481529060010190602001808311610bd157829003601f168201915b5050505050905090565b6000610c0382612407565b6004600083815260200190815260200160002060009054906101000a900473ffffffffffffffffffffffffffffffffffffffff169050919050565b6000610c4957600080fd5b5050565b610c55612452565b6000600d84604051610c6791906138c3565b90815260200160405180910390205414610c8057600080fd5b6001600b6000828254610c9391906138da565b92505081905550600b54600d84604051610cad91906138c3565b908152602001604051809103902081905550600c6040518060a001604052808681526020018581526020018481526020016000151581526020018381525090806001815401808255809150506001900390600052602060002090600502016000909190919091506000820151816000019081610d299190613aba565b506020820151816001019081610d3f9190613aba565b506040820151816002019081610d559190613aba565b5060608201518160030160006101000a81548160ff021916908315150217905550608082015181600401555050610d8a610a8f565b50505050565b6060600c805480602002602001604051908101604052809291908181526020016000905b82821015610fc157838290600052602060002090600502016040518060a0016040529081600082018054610de790613856565b80601f0160208091040260200160405190810160405280929190818152602001828054610e1390613856565b8015610e605780601f10610e3557610100808354040283529160200191610e60565b820191906000526020600020905b815481529060010190602001808311610e4357829003601f168201915b50505050508152602001600182018054610e7990613856565b80601f0160208091040260200160405190810160405280929190818152602001828054610ea590613856565b8015610ef25780601f10610ec757610100808354040283529160200191610ef2565b820191906000526020600020905b815481529060010190602001808311610ed557829003601f168201915b50505050508152602001600282018054610f0b90613856565b80601f0160208091040260200160405190810160405280929190818152602001828054610f3790613856565b8015610f845780601f10610f5957610100808354040283529160200191610f84565b820191906000526020600020905b815481529060010190602001808311610f6757829003601f168201915b505050505081526020016003820160009054906101000a900460ff1615151515815260200160048201548152505081526020019060010190610db4565b50505050905090565b60116020528060005260406000206000915090505481565b6000610fed57600080fd5b505050565b60105481565b600c818154811061100857600080fd5b906000526020600020906005020160009150905080600001805461102b90613856565b80601f016020809104026020016040519081016040528092919081815260200182805461105790613856565b80156110a45780601f10611079576101008083540402835291602001916110a4565b820191906000526020600020905b81548152906001019060200180831161108757829003601f168201915b5050505050908060010180546110b990613856565b80601f01602080910402602001604051908101604052809291908181526020018280546110e590613856565b80156111325780601f1061110757610100808354040283529160200191611132565b820191906000526020600020905b81548152906001019060200180831161111557829003601f168201915b50505050509080600201805461114790613856565b80601f016020809104026020016040519081016040528092919081815260200182805461117390613856565b80156111c05780601f10611195576101008083540402835291602001916111c0565b820191906000526020600020905b8154815290600101906020018083116111a357829003601f168201915b5050505050908060030160009054906101000a900460ff16908060040154905085565b6111eb612452565b6000600d826040516111fd91906138c3565b90815260200160405180910390205490506000811161121b57600080fd5b6000600c60018361122c9190613b8c565b8154811061123d5761123c613bc0565b5b906000526020600020906005020160030160006101000a81548160ff0219169083151502179055505050565b600b5481565b600061127a57600080fd5b505050565b611287612452565b6000611291611977565b90508073ffffffffffffffffffffffffffffffffffffffff166108fc600e549081150290604051600060405180830381858888f193505050501580156112db573d6000803e3d6000fd5b506000600e8190555050565b6000806112f3836124d0565b9050600073ffffffffffffffffffffffffffffffffffffffff168173ffffffffffffffffffffffffffffffffffffffff1603611364576040517f08c379a000000000000000000000000000000000000000000000000000000000815260040161135b90613c3b565b60405180910390fd5b80915050919050565b60008073ffffffffffffffffffffffffffffffffffffffff168273ffffffffffffffffffffffffffffffffffffffff16036113dd576040517f08c379a00000000000000000000000000000000000000000000000000000000081526004016113d490613ccd565b60405180910390fd5b600360008373ffffffffffffffffffffffffffffffffffffffff1673ffffffffffffffffffffffffffffffffffffffff168152602001908152602001600020549050919050565b61142c612452565b611436600061250d565b565b600d818051602081018201805184825260208301602085012081835280955050505050506000915090505481565b60135481565b601260205280600052604060002060009150905080600001805461148f90613856565b80601f01602080910402602001604051908101604052809291908181526020018280546114bb90613856565b80156115085780601f106114dd57610100808354040283529160200191611508565b820191906000526020600020905b8154815290600101906020018083116114eb57829003601f168201915b5050505050908060010154908060020154905083565b606080600080600061152e612ca0565b611536612ca0565b61153e612ca0565b60086009600a54600b54600e5460126000600181526020019081526020016000206012600060028152602001908152602001600020601260006003815260200190815260200160002087805461159390613856565b80601f01602080910402602001604051908101604052809291908181526020018280546115bf90613856565b801561160c5780601f106115e15761010080835404028352916020019161160c565b820191906000526020600020905b8154815290600101906020018083116115ef57829003601f168201915b5050505050975086805461161f90613856565b80601f016020809104026020016040519081016040528092919081815260200182805461164b90613856565b80156116985780601f1061166d57610100808354040283529160200191611698565b820191906000526020600020905b81548152906001019060200180831161167b57829003601f168201915b50505050509650826040518060600160405290816000820180546116bb90613856565b80601f01602080910402602001604051908101604052809291908181526020018280546116e790613856565b80156117345780601f1061170957610100808354040283529160200191611734565b820191906000526020600020905b81548152906001019060200180831161171757829003601f168201915b505050505081526020016001820154815260200160028201548152505092508160405180606001604052908160008201805461176f90613856565b80601f016020809104026020016040519081016040528092919081815260200182805461179b90613856565b80156117e85780601f106117bd576101008083540402835291602001916117e8565b820191906000526020600020905b8154815290600101906020018083116117cb57829003601f168201915b505050505081526020016001820154815260200160028201548152505091508060405180606001604052908160008201805461182390613856565b80601f016020809104026020016040519081016040528092919081815260200182805461184f90613856565b801561189c5780601f106118715761010080835404028352916020019161189c565b820191906000526020600020905b81548152906001019060200180831161187f57829003601f168201915b50505050508152602001600182015481526020016002820154815250509050975097509750975097509750975097509091929394959697565b6118dd612452565b6000600d826040516118ef91906138c3565b90815260200160405180910390205490506000811161190d57600080fd5b6001600c60018361191e9190613b8c565b8154811061192f5761192e613bc0565b5b906000526020600020906005020160030160006101000a81548160ff02191690831515021790555061195f610a8f565b5050565b60008061196e611977565b90508091505090565b6000600660009054906101000a900473ffffffffffffffffffffffffffffffffffffffff16905090565b6060600180546119b090613856565b80601f01602080910402602001604051908101604052809291908181526020018280546119dc90613856565b8015611a295780601f106119fe57610100808354040283529160200191611a29565b820191906000526020600020905b815481529060010190602001808311611a0c57829003601f168201915b5050505050905090565b6000611a3e57600080fd5b5050565b60098054611a4f90613856565b80601f0160208091040260200160405190810160405280929190818152602001828054611a7b90613856565b8015611ac85780601f10611a9d57610100808354040283529160200191611ac8565b820191906000526020600020905b815481529060010190602001808311611aab57829003601f168201915b505050505081565b600e5481565b6000611ae157600080fd5b50505050565b600080601660008473ffffffffffffffffffffffffffffffffffffffff1673ffffffffffffffffffffffffffffffffffffffff16815260200190815260200160002060009054906101000a900460ff16601160008573ffffffffffffffffffffffffffffffffffffffff1673ffffffffffffffffffffffffffffffffffffffff1681526020019081526020016000205491509150915091565b60146020528060005260406000206000915090505481565b60088054611ba590613856565b80601f0160208091040260200160405190810160405280929190818152602001828054611bd190613856565b8015611c1e5780601f10611bf357610100808354040283529160200191611c1e565b820191906000526020600020905b815481529060010190602001808311611c0157829003601f168201915b505050505081565b600a5481565b6060611c3782612407565b6000611c416125d3565b90506000815111611c615760405180602001604052806000815250611c8c565b80611c6b846125ea565b604051602001611c7c929190613ced565b6040516020818303038152906040525b915050919050565b60156020528060005260406000206000915090505481565b6001811015611cf0576040517f08c379a0000000000000000000000000000000000000000000000000000000008152600401611ce790613d5d565b60405180910390fd5b6003811115611d34576040517f08c379a0000000000000000000000000000000000000000000000000000000008152600401611d2b90613d5d565b60405180910390fd5b60126000828152602001908152602001600020600101543411611d5657600080fd5b6000600760009054906101000a900473ffffffffffffffffffffffffffffffffffffffff1690506000606434601054611d8f9190613d7d565b611d999190613dee565b90506000611da63361136d565b03611fb5576001600a54611dba91906138da565b600a81905550611dcc33600a546126b8565b8173ffffffffffffffffffffffffffffffffffffffff1663eb8cdd34826040518263ffffffff1660e01b81526004016000604051808303818588803b158015611e1457600080fd5b505af1158015611e28573d6000803e3d6000fd5b50505050508034611e399190613b8c565b600e6000828254611e4a91906138da565b925050819055506001601660003373ffffffffffffffffffffffffffffffffffffffff1673ffffffffffffffffffffffffffffffffffffffff16815260200190815260200160002060006101000a81548160ff02191690831515021790555060135442611eb791906138da565b601460003373ffffffffffffffffffffffffffffffffffffffff1673ffffffffffffffffffffffffffffffffffffffff1681526020019081526020016000208190555042601560003373ffffffffffffffffffffffffffffffffffffffff1673ffffffffffffffffffffffffffffffffffffffff1681526020019081526020016000208190555082601160003373ffffffffffffffffffffffffffffffffffffffff1673ffffffffffffffffffffffffffffffffffffffff168152602001908152602001600020819055506001601260008581526020019081526020016000206002016000828254611fa991906138da565b9250508190555061219a565b8173ffffffffffffffffffffffffffffffffffffffff1663eb8cdd34826040518263ffffffff1660e01b81526004016000604051808303818588803b158015611ffd57600080fd5b505af1158015612011573d6000803e3d6000fd5b505050505080346120229190613b8c565b600e600082825461203391906138da565b925050819055506001601660003373ffffffffffffffffffffffffffffffffffffffff1673ffffffffffffffffffffffffffffffffffffffff16815260200190815260200160002060006101000a81548160ff021916908315150217905550601354426120a091906138da565b601460003373ffffffffffffffffffffffffffffffffffffffff1673ffffffffffffffffffffffffffffffffffffffff1681526020019081526020016000208190555042601560003373ffffffffffffffffffffffffffffffffffffffff1673ffffffffffffffffffffffffffffffffffffffff1681526020019081526020016000208190555082601160003373ffffffffffffffffffffffffffffffffffffffff1673ffffffffffffffffffffffffffffffffffffffff16815260200190815260200160002081905550600160126000858152602001908152602001600020600201600082825461219291906138da565b925050819055505b505050565b6000600560008473ffffffffffffffffffffffffffffffffffffffff1673ffffffffffffffffffffffffffffffffffffffff16815260200190815260200160002060008373ffffffffffffffffffffffffffffffffffffffff1673ffffffffffffffffffffffffffffffffffffffff16815260200190815260200160002060009054906101000a900460ff16905092915050565b6000600760009054906101000a900473ffffffffffffffffffffffffffffffffffffffff169050600060643460105461226c9190613d7d565b6122769190613dee565b90508173ffffffffffffffffffffffffffffffffffffffff1663eb8cdd34826040518263ffffffff1660e01b81526004016000604051808303818588803b1580156122c057600080fd5b505af11580156122d4573d6000803e3d6000fd5b505050505080346122e59190613b8c565b600e60008282546122f691906138da565b9250508190555034600f600082825461230f91906138da565b925050819055505050565b612322612452565b600073ffffffffffffffffffffffffffffffffffffffff168173ffffffffffffffffffffffffffffffffffffffff1603612391576040517f08c379a000000000000000000000000000000000000000000000000000000000815260040161238890613e91565b60405180910390fd5b61239a8161250d565b50565b60007f01ffc9a7000000000000000000000000000000000000000000000000000000007bffffffffffffffffffffffffffffffffffffffffffffffffffffffff1916827bffffffffffffffffffffffffffffffffffffffffffffffffffffffff1916149050919050565b612410816126d6565b61244f576040517f08c379a000000000000000000000000000000000000000000000000000000000815260040161244690613c3b565b60405180910390fd5b50565b61245a612717565b73ffffffffffffffffffffffffffffffffffffffff16612478611977565b73ffffffffffffffffffffffffffffffffffffffff16146124ce576040517f08c379a00000000000000000000000000000000000000000000000000000000081526004016124c590613efd565b60405180910390fd5b565b60006002600083815260200190815260200160002060009054906101000a900473ffffffffffffffffffffffffffffffffffffffff169050919050565b6000600660009054906101000a900473ffffffffffffffffffffffffffffffffffffffff16905081600660006101000a81548173ffffffffffffffffffffffffffffffffffffffff021916908373ffffffffffffffffffffffffffffffffffffffff1602179055508173ffffffffffffffffffffffffffffffffffffffff168173ffffffffffffffffffffffffffffffffffffffff167f8be0079c531659141344cd1fd0a4f28419497f9722a3daafe3b4186f6b6457e060405160405180910390a35050565b606060405180602001604052806000815250905090565b6060600060016125f98461271f565b01905060008167ffffffffffffffff81111561261857612617612fa1565b5b6040519080825280601f01601f19166020018201604052801561264a5781602001600182028036833780820191505090505b509050600082602001820190505b6001156126ad578080600190039150507f3031323334353637383961626364656600000000000000000000000000000000600a86061a8153600a85816126a1576126a0613dbf565b5b04945060008503612658575b819350505050919050565b6126d2828260405180602001604052806000815250612872565b5050565b60008073ffffffffffffffffffffffffffffffffffffffff166126f8836124d0565b73ffffffffffffffffffffffffffffffffffffffff1614159050919050565b600033905090565b600080600090507a184f03e93ff9f4daa797ed6e38ed64bf6a1f010000000000000000831061277d577a184f03e93ff9f4daa797ed6e38ed64bf6a1f010000000000000000838161277357612772613dbf565b5b0492506040810190505b6d04ee2d6d415b85acef810000000083106127ba576d04ee2d6d415b85acef810000000083816127b0576127af613dbf565b5b0492506020810190505b662386f26fc1000083106127e957662386f26fc1000083816127df576127de613dbf565b5b0492506010810190505b6305f5e1008310612812576305f5e100838161280857612807613dbf565b5b0492506008810190505b612710831061283757612710838161282d5761282c613dbf565b5b0492506004810190505b6064831061285a57606483816128505761284f613dbf565b5b0492506002810190505b600a8310612869576001810190505b80915050919050565b61287c83836128cd565b6128896000848484612aea565b6128c8576040517f08c379a00000000000000000000000000000000000000000000000000000000081526004016128bf90613f8f565b60405180910390fd5b505050565b600073ffffffffffffffffffffffffffffffffffffffff168273ffffffffffffffffffffffffffffffffffffffff160361293c576040517f08c379a000000000000000000000000000000000000000000000000000000000815260040161293390613ffb565b60405180910390fd5b612945816126d6565b15612985576040517f08c379a000000000000000000000000000000000000000000000000000000000815260040161297c90614067565b60405180910390fd5b612993600083836001612c71565b61299c816126d6565b156129dc576040517f08c379a00000000000000000000000000000000000000000000000000000000081526004016129d390614067565b60405180910390fd5b6001600360008473ffffffffffffffffffffffffffffffffffffffff1673ffffffffffffffffffffffffffffffffffffffff16815260200190815260200160002060008282540192505081905550816002600083815260200190815260200160002060006101000a81548173ffffffffffffffffffffffffffffffffffffffff021916908373ffffffffffffffffffffffffffffffffffffffff160217905550808273ffffffffffffffffffffffffffffffffffffffff16600073ffffffffffffffffffffffffffffffffffffffff167fddf252ad1be2c89b69c2b068fc378daa952ba7f163c4a11628f55a4df523b3ef60405160405180910390a4612ae6600083836001612c77565b5050565b6000612b0b8473ffffffffffffffffffffffffffffffffffffffff16612c7d565b15612c64578373ffffffffffffffffffffffffffffffffffffffff1663150b7a02612b34612717565b8786866040518563ffffffff1660e01b8152600401612b5694939291906140dc565b6020604051808303816000875af1925050508015612b9257506040513d601f19601f82011682018060405250810190612b8f919061413d565b60015b612c14573d8060008114612bc2576040519150601f19603f3d011682016040523d82523d6000602084013e612bc7565b606091505b506000815103612c0c576040517f08c379a0000000000000000000000000000000000000000000000000000000008152600401612c0390613f8f565b60405180910390fd5b805181602001fd5b63150b7a0260e01b7bffffffffffffffffffffffffffffffffffffffffffffffffffffffff1916817bffffffffffffffffffffffffffffffffffffffffffffffffffffffff191614915050612c69565b600190505b949350505050565b50505050565b50505050565b6000808273ffffffffffffffffffffffffffffffffffffffff163b119050919050565b60405180606001604052806060815260200160008152602001600081525090565b6000819050919050565b612cd481612cc1565b82525050565b6000602082019050612cef6000830184612ccb565b92915050565b6000604051905090565b600080fd5b600080fd5b60007fffffffff0000000000000000000000000000000000000000000000000000000082169050919050565b612d3e81612d09565b8114612d4957600080fd5b50565b600081359050612d5b81612d35565b92915050565b600060208284031215612d7757612d76612cff565b5b6000612d8584828501612d4c565b91505092915050565b60008115159050919050565b612da381612d8e565b82525050565b6000602082019050612dbe6000830184612d9a565b92915050565b600081519050919050565b600082825260208201905092915050565b60005b83811015612dfe578082015181840152602081019050612de3565b60008484015250505050565b6000601f19601f8301169050919050565b6000612e2682612dc4565b612e308185612dcf565b9350612e40818560208601612de0565b612e4981612e0a565b840191505092915050565b60006020820190508181036000830152612e6e8184612e1b565b905092915050565b612e7f81612cc1565b8114612e8a57600080fd5b50565b600081359050612e9c81612e76565b92915050565b600060208284031215612eb857612eb7612cff565b5b6000612ec684828501612e8d565b91505092915050565b600073ffffffffffffffffffffffffffffffffffffffff82169050919050565b6000612efa82612ecf565b9050919050565b612f0a81612eef565b82525050565b6000602082019050612f256000830184612f01565b92915050565b612f3481612eef565b8114612f3f57600080fd5b50565b600081359050612f5181612f2b565b92915050565b60008060408385031215612f6e57612f6d612cff565b5b6000612f7c85828601612f42565b9250506020612f8d85828601612e8d565b9150509250929050565b600080fd5b600080fd5b7f4e487b7100000000000000000000000000000000000000000000000000000000600052604160045260246000fd5b612fd982612e0a565b810181811067ffffffffffffffff82111715612ff857612ff7612fa1565b5b80604052505050565b600061300b612cf5565b90506130178282612fd0565b919050565b600067ffffffffffffffff82111561303757613036612fa1565b5b61304082612e0a565b9050602081019050919050565b82818337600083830152505050565b600061306f61306a8461301c565b613001565b90508281526020810184848401111561308b5761308a612f9c565b5b61309684828561304d565b509392505050565b600082601f8301126130b3576130b2612f97565b5b81356130c384826020860161305c565b91505092915050565b600080600080608085870312156130e6576130e5612cff565b5b600085013567ffffffffffffffff81111561310457613103612d04565b5b6131108782880161309e565b945050602085013567ffffffffffffffff81111561313157613130612d04565b5b61313d8782880161309e565b935050604085013567ffffffffffffffff81111561315e5761315d612d04565b5b61316a8782880161309e565b925050606061317b87828801612e8d565b91505092959194509250565b600081519050919050565b600082825260208201905092915050565b6000819050602082019050919050565b600082825260208201905092915050565b60006131cf82612dc4565b6131d981856131b3565b93506131e9818560208601612de0565b6131f281612e0a565b840191505092915050565b61320681612d8e565b82525050565b61321581612cc1565b82525050565b600060a083016000830151848203600086015261323882826131c4565b9150506020830151848203602086015261325282826131c4565b9150506040830151848203604086015261326c82826131c4565b915050606083015161328160608601826131fd565b506080830151613294608086018261320c565b508091505092915050565b60006132ab838361321b565b905092915050565b6000602082019050919050565b60006132cb82613187565b6132d58185613192565b9350836020820285016132e7856131a3565b8060005b858110156133235784840389528151613304858261329f565b945061330f836132b3565b925060208a019950506001810190506132eb565b50829750879550505050505092915050565b6000602082019050818103600083015261334f81846132c0565b905092915050565b60006020828403121561336d5761336c612cff565b5b600061337b84828501612f42565b91505092915050565b60008060006060848603121561339d5761339c612cff565b5b60006133ab86828701612f42565b93505060206133bc86828701612f42565b92505060406133cd86828701612e8d565b9150509250925092565b600060a08201905081810360008301526133f18188612e1b565b905081810360208301526134058187612e1b565b905081810360408301526134198186612e1b565b90506134286060830185612d9a565b6134356080830184612ccb565b9695505050505050565b60006020828403121561345557613454612cff565b5b600082013567ffffffffffffffff81111561347357613472612d04565b5b61347f8482850161309e565b91505092915050565b600060608201905081810360008301526134a28186612e1b565b90506134b16020830185612ccb565b6134be6040830184612ccb565b949350505050565b600060608301600083015184820360008601526134e382826131c4565b91505060208301516134f8602086018261320c565b50604083015161350b604086018261320c565b508091505092915050565b6000610100820190508181036000830152613531818b612e1b565b90508181036020830152613545818a612e1b565b90506135546040830189612ccb565b6135616060830188612ccb565b61356e6080830187612ccb565b81810360a083015261358081866134c6565b905081810360c083015261359481856134c6565b905081810360e08301526135a881846134c6565b90509998505050505050505050565b6135c081612d8e565b81146135cb57600080fd5b50565b6000813590506135dd816135b7565b92915050565b600080604083850312156135fa576135f9612cff565b5b600061360885828601612f42565b9250506020613619858286016135ce565b9150509250929050565b600067ffffffffffffffff82111561363e5761363d612fa1565b5b61364782612e0a565b9050602081019050919050565b600061366761366284613623565b613001565b90508281526020810184848401111561368357613682612f9c565b5b61368e84828561304d565b509392505050565b600082601f8301126136ab576136aa612f97565b5b81356136bb848260208601613654565b91505092915050565b600080600080608085870312156136de576136dd612cff565b5b60006136ec87828801612f42565b94505060206136fd87828801612f42565b935050604061370e87828801612e8d565b925050606085013567ffffffffffffffff81111561372f5761372e612d04565b5b61373b87828801613696565b91505092959194509250565b600060408201905061375c6000830185612d9a565b6137696020830184612ccb565b9392505050565b6000806040838503121561378757613786612cff565b5b600061379585828601612f42565b92505060206137a685828601612f42565b9150509250929050565b7f4e487b7100000000000000000000000000000000000000000000000000000000600052601160045260246000fd5b60006137ea82612cc1565b91507fffffffffffffffffffffffffffffffffffffffffffffffffffffffffffffffff820361381c5761381b6137b0565b5b600182019050919050565b7f4e487b7100000000000000000000000000000000000000000000000000000000600052602260045260246000fd5b6000600282049050600182168061386e57607f821691505b60208210810361388157613880613827565b5b50919050565b600081905092915050565b600061389d82612dc4565b6138a78185613887565b93506138b7818560208601612de0565b80840191505092915050565b60006138cf8284613892565b915081905092915050565b60006138e582612cc1565b91506138f083612cc1565b9250828201905080821115613908576139076137b0565b5b92915050565b60008190508160005260206000209050919050565b60006020601f8301049050919050565b600082821b905092915050565b6000600883026139707fffffffffffffffffffffffffffffffffffffffffffffffffffffffffffffffff82613933565b61397a8683613933565b95508019841693508086168417925050509392505050565b6000819050919050565b60006139b76139b26139ad84612cc1565b613992565b612cc1565b9050919050565b6000819050919050565b6139d18361399c565b6139e56139dd826139be565b848454613940565b825550505050565b600090565b6139fa6139ed565b613a058184846139c8565b505050565b5b81811015613a2957613a1e6000826139f2565b600181019050613a0b565b5050565b601f821115613a6e57613a3f8161390e565b613a4884613923565b81016020851015613a57578190505b613a6b613a6385613923565b830182613a0a565b50505b505050565b600082821c905092915050565b6000613a9160001984600802613a73565b1980831691505092915050565b6000613aaa8383613a80565b9150826002028217905092915050565b613ac382612dc4565b67ffffffffffffffff811115613adc57613adb612fa1565b5b613ae68254613856565b613af1828285613a2d565b600060209050601f831160018114613b245760008415613b12578287015190505b613b1c8582613a9e565b865550613b84565b601f198416613b328661390e565b60005b82811015613b5a57848901518255600182019150602085019450602081019050613b35565b86831015613b775784890151613b73601f891682613a80565b8355505b6001600288020188555050505b505050505050565b6000613b9782612cc1565b9150613ba283612cc1565b9250828203905081811115613bba57613bb96137b0565b5b92915050565b7f4e487b7100000000000000000000000000000000000000000000000000000000600052603260045260246000fd5b7f4552433732313a20696e76616c696420746f6b656e2049440000000000000000600082015250565b6000613c25601883612dcf565b9150613c3082613bef565b602082019050919050565b60006020820190508181036000830152613c5481613c18565b9050919050565b7f4552433732313a2061646472657373207a65726f206973206e6f74206120766160008201527f6c6964206f776e65720000000000000000000000000000000000000000000000602082015250565b6000613cb7602983612dcf565b9150613cc282613c5b565b604082019050919050565b60006020820190508181036000830152613ce681613caa565b9050919050565b6000613cf98285613892565b9150613d058284613892565b91508190509392505050565b7f696e76616c696420746965720000000000000000000000000000000000000000600082015250565b6000613d47600c83612dcf565b9150613d5282613d11565b602082019050919050565b60006020820190508181036000830152613d7681613d3a565b9050919050565b6000613d8882612cc1565b9150613d9383612cc1565b9250828202613da181612cc1565b91508282048414831517613db857613db76137b0565b5b5092915050565b7f4e487b7100000000000000000000000000000000000000000000000000000000600052601260045260246000fd5b6000613df982612cc1565b9150613e0483612cc1565b925082613e1457613e13613dbf565b5b828204905092915050565b7f4f776e61626c653a206e6577206f776e657220697320746865207a65726f206160008201527f6464726573730000000000000000000000000000000000000000000000000000602082015250565b6000613e7b602683612dcf565b9150613e8682613e1f565b604082019050919050565b60006020820190508181036000830152613eaa81613e6e565b9050919050565b7f4f776e61626c653a2063616c6c6572206973206e6f7420746865206f776e6572600082015250565b6000613ee7602083612dcf565b9150613ef282613eb1565b602082019050919050565b60006020820190508181036000830152613f1681613eda565b9050919050565b7f4552433732313a207472616e7366657220746f206e6f6e20455243373231526560008201527f63656976657220696d706c656d656e7465720000000000000000000000000000602082015250565b6000613f79603283612dcf565b9150613f8482613f1d565b604082019050919050565b60006020820190508181036000830152613fa881613f6c565b9050919050565b7f4552433732313a206d696e7420746f20746865207a65726f2061646472657373600082015250565b6000613fe5602083612dcf565b9150613ff082613faf565b602082019050919050565b6000602082019050818103600083015261401481613fd8565b9050919050565b7f4552433732313a20746f6b656e20616c7265616479206d696e74656400000000600082015250565b6000614051601c83612dcf565b915061405c8261401b565b602082019050919050565b6000602082019050818103600083015261408081614044565b9050919050565b600081519050919050565b600082825260208201905092915050565b60006140ae82614087565b6140b88185614092565b93506140c8818560208601612de0565b6140d181612e0a565b840191505092915050565b60006080820190506140f16000830187612f01565b6140fe6020830186612f01565b61410b6040830185612ccb565b818103606083015261411d81846140a3565b905095945050505050565b60008151905061413781612d35565b92915050565b60006020828403121561415357614152612cff565b5b600061416184828501614128565b9150509291505056fea2646970667358221220903d09c4dffe2e53404815f3c4a8f78402b633fe5bbbf8534c5376c8bdfcfc9364736f6c63430008120033a264697066735822122079eb183e6518f3af68524ac5b50b08a3348b2b8f163f51334d5a1e3448abf5a364736f6c63430008120033",
  "devdoc": {
    "kind": "dev",
    "methods": {},
    "version": 1
  },
  "userdoc": {
    "kind": "user",
    "methods": {},
    "version": 1
  },
  "storageLayout": {
    "storage": [
      {
        "astId": 2636,
        "contract": "contracts/UserFactory.sol:UserFactory",
        "label": "createdProfiles",
        "offset": 0,
        "slot": "0",
        "type": "t_array(t_address)dyn_storage"
      },
      {
        "astId": 2640,
        "contract": "contracts/UserFactory.sol:UserFactory",
        "label": "userProfile",
        "offset": 0,
        "slot": "1",
        "type": "t_mapping(t_string_memory_ptr,t_address)"
      },
      {
        "astId": 2644,
        "contract": "contracts/UserFactory.sol:UserFactory",
        "label": "creatorContract",
        "offset": 0,
        "slot": "2",
        "type": "t_mapping(t_address,t_address)"
      },
      {
        "astId": 2646,
        "contract": "contracts/UserFactory.sol:UserFactory",
        "label": "admin",
        "offset": 0,
        "slot": "3",
        "type": "t_address"
      },
      {
        "astId": 2648,
        "contract": "contracts/UserFactory.sol:UserFactory",
        "label": "suscriptionFee",
        "offset": 0,
        "slot": "4",
        "type": "t_uint256"
      },
      {
        "astId": 2650,
        "contract": "contracts/UserFactory.sol:UserFactory",
        "label": "amountRecaudedFees",
        "offset": 0,
        "slot": "5",
        "type": "t_uint256"
      }
    ],
    "types": {
      "t_address": {
        "encoding": "inplace",
        "label": "address",
        "numberOfBytes": "20"
      },
      "t_array(t_address)dyn_storage": {
        "base": "t_address",
        "encoding": "dynamic_array",
        "label": "address[]",
        "numberOfBytes": "32"
      },
      "t_mapping(t_address,t_address)": {
        "encoding": "mapping",
        "key": "t_address",
        "label": "mapping(address => address)",
        "numberOfBytes": "32",
        "value": "t_address"
      },
      "t_mapping(t_string_memory_ptr,t_address)": {
        "encoding": "mapping",
        "key": "t_string_memory_ptr",
        "label": "mapping(string => address)",
        "numberOfBytes": "32",
        "value": "t_address"
      },
      "t_string_memory_ptr": {
        "encoding": "bytes",
        "label": "string",
        "numberOfBytes": "32"
      },
      "t_uint256": {
        "encoding": "inplace",
        "label": "uint256",
        "numberOfBytes": "32"
      }
    }
  }
}