{
  "address": "0x34E45ffb50a0e5E9DeCE2845D1eE3148f39440C8",
  "abi": [
    {
      "inputs": [],
      "stateMutability": "nonpayable",
      "type": "constructor"
    },
    {
      "inputs": [],
      "name": "admin",
      "outputs": [
        {
          "internalType": "address",
          "name": "",
          "type": "address"
        }
      ],
      "stateMutability": "view",
      "type": "function"
    },
    {
      "inputs": [
        {
          "internalType": "string",
          "name": "_tokenName",
          "type": "string"
        },
        {
          "internalType": "string",
          "name": "_tokenSymbol",
          "type": "string"
        },
        {
          "internalType": "string",
          "name": "_name",
          "type": "string"
        },
        {
          "internalType": "string",
          "name": "_description",
          "type": "string"
        },
        {
          "internalType": "uint256",
          "name": "_bronzePrice",
          "type": "uint256"
        },
        {
          "internalType": "uint256",
          "name": "_silverPrice",
          "type": "uint256"
        },
        {
          "internalType": "uint256",
          "name": "_goldPrice",
          "type": "uint256"
        }
      ],
      "name": "createProfile",
      "outputs": [],
      "stateMutability": "nonpayable",
      "type": "function"
    },
    {
      "inputs": [
        {
          "internalType": "uint256",
          "name": "",
          "type": "uint256"
        }
      ],
      "name": "createdProfiles",
      "outputs": [
        {
          "internalType": "address",
          "name": "",
          "type": "address"
        }
      ],
      "stateMutability": "view",
      "type": "function"
    },
    {
      "inputs": [
        {
          "internalType": "address",
          "name": "",
          "type": "address"
        }
      ],
      "name": "creatorContract",
      "outputs": [
        {
          "internalType": "address",
          "name": "",
          "type": "address"
        }
      ],
      "stateMutability": "view",
      "type": "function"
    },
    {
      "inputs": [],
      "name": "getAllCreators",
      "outputs": [
        {
          "internalType": "address[]",
          "name": "",
          "type": "address[]"
        }
      ],
      "stateMutability": "view",
      "type": "function"
    },
    {
      "inputs": [
        {
          "internalType": "address",
          "name": "_creator",
          "type": "address"
        }
      ],
      "name": "getCreator",
      "outputs": [
        {
          "internalType": "string",
          "name": "",
          "type": "string"
        },
        {
          "internalType": "string",
          "name": "",
          "type": "string"
        }
      ],
      "stateMutability": "view",
      "type": "function"
    },
    {
      "inputs": [
        {
          "internalType": "address",
          "name": "_creatorAddress",
          "type": "address"
        }
      ],
      "name": "getCreatorContractAddress",
      "outputs": [
        {
          "internalType": "address",
          "name": "",
          "type": "address"
        }
      ],
      "stateMutability": "view",
      "type": "function"
    },
    {
      "inputs": [
        {
          "internalType": "address",
          "name": "_creator",
          "type": "address"
        }
      ],
      "name": "getCreatorDataExtended",
      "outputs": [
        {
          "internalType": "string",
          "name": "",
          "type": "string"
        },
        {
          "internalType": "string",
          "name": "",
          "type": "string"
        },
        {
          "internalType": "uint256",
          "name": "",
          "type": "uint256"
        },
        {
          "internalType": "uint256",
          "name": "",
          "type": "uint256"
        },
        {
          "internalType": "uint256",
          "name": "",
          "type": "uint256"
        },
        {
          "components": [
            {
              "internalType": "string",
              "name": "name",
              "type": "string"
            },
            {
              "internalType": "uint256",
              "name": "price",
              "type": "uint256"
            },
            {
              "internalType": "uint256",
              "name": "suscriptionsAmount",
              "type": "uint256"
            }
          ],
          "internalType": "struct UserProfile.Tier",
          "name": "",
          "type": "tuple"
        },
        {
          "components": [
            {
              "internalType": "string",
              "name": "name",
              "type": "string"
            },
            {
              "internalType": "uint256",
              "name": "price",
              "type": "uint256"
            },
            {
              "internalType": "uint256",
              "name": "suscriptionsAmount",
              "type": "uint256"
            }
          ],
          "internalType": "struct UserProfile.Tier",
          "name": "",
          "type": "tuple"
        },
        {
          "components": [
            {
              "internalType": "string",
              "name": "name",
              "type": "string"
            },
            {
              "internalType": "uint256",
              "name": "price",
              "type": "uint256"
            },
            {
              "internalType": "uint256",
              "name": "suscriptionsAmount",
              "type": "uint256"
            }
          ],
          "internalType": "struct UserProfile.Tier",
          "name": "",
          "type": "tuple"
        }
      ],
      "stateMutability": "view",
      "type": "function"
    },
    {
      "inputs": [
        {
          "internalType": "address",
          "name": "_creatorAddress",
          "type": "address"
        }
      ],
      "name": "isSignedUp",
      "outputs": [
        {
          "internalType": "bool",
          "name": "",
          "type": "bool"
        }
      ],
      "stateMutability": "view",
      "type": "function"
    },
    {
      "inputs": [
        {
          "internalType": "string",
          "name": "",
          "type": "string"
        }
      ],
      "name": "userProfile",
      "outputs": [
        {
          "internalType": "address",
          "name": "",
          "type": "address"
        }
      ],
      "stateMutability": "view",
      "type": "function"
    },
    {
      "inputs": [],
      "name": "working",
      "outputs": [
        {
          "internalType": "string",
          "name": "",
          "type": "string"
        }
      ],
      "stateMutability": "pure",
      "type": "function"
    }
  ],
  "transactionHash": "0x690e29d1ebda651cfcf4d504777d84d1084e83597cabf93c21aae1007cca699a",
  "args": [],
  "numDeployments": 21,
  "solcInputHash": "bb9a797bcee0718479078567f74b87b3",
  "bytecode": "0x608060405234801561001057600080fd5b5033600360006101000a81548173ffffffffffffffffffffffffffffffffffffffff021916908373ffffffffffffffffffffffffffffffffffffffff160217905550616461806100616000396000f3fe60806040523480156200001157600080fd5b5060043610620000b85760003560e01c8063a0210309116200007b578063a021030914620001a1578063aac7748014620001d8578063c2d8e1ad1462000215578063f193e1a5146200024b578063f851a4401462000281578063f97fac4d14620002a357620000b8565b806322b6ffca14620000bd57806334af431d14620000f35780633de6053a1462000129578063588a1682146200015f5780639f08a68c146200017f575b600080fd5b620000db6004803603810190620000d5919062000a55565b620002c5565b604051620000ea919062000aa4565b60405180910390f35b6200011160048036038101906200010b919062000a55565b6200036e565b60405162000120919062000ad2565b60405180910390f35b62000147600480360381019062000141919062000a55565b620003a1565b60405162000156919062000ad2565b60405180910390f35b6200017d600480360381019062000177919062000c8c565b6200040a565b005b62000189620006f6565b60405162000198919062000e44565b60405180910390f35b620001bf6004803603810190620001b9919062000a55565b62000733565b604051620001cf92919062000e68565b60405180910390f35b620001f66004803603810190620001f0919062000a55565b620007b6565b6040516200020c98979695949392919062000f6d565b60405180910390f35b6200023360048036038101906200022d91906200101e565b6200086e565b60405162000242919062000ad2565b60405180910390f35b6200026960048036038101906200026391906200106f565b620008b7565b60405162000278919062000ad2565b60405180910390f35b6200028b620008f7565b6040516200029a919062000ad2565b60405180910390f35b620002ad6200091d565b604051620002bc91906200116f565b60405180910390f35b60008073ffffffffffffffffffffffffffffffffffffffff16600260008473ffffffffffffffffffffffffffffffffffffffff1673ffffffffffffffffffffffffffffffffffffffff16815260200190815260200160002060009054906101000a900473ffffffffffffffffffffffffffffffffffffffff1673ffffffffffffffffffffffffffffffffffffffff160362000364576000905062000369565b600190505b919050565b60026020528060005260406000206000915054906101000a900473ffffffffffffffffffffffffffffffffffffffff1681565b6000600260008373ffffffffffffffffffffffffffffffffffffffff1673ffffffffffffffffffffffffffffffffffffffff16815260200190815260200160002060009054906101000a900473ffffffffffffffffffffffffffffffffffffffff169050919050565b60006001866040516200041e9190620011d5565b908152602001604051809103902060009054906101000a900473ffffffffffffffffffffffffffffffffffffffff169050600073ffffffffffffffffffffffffffffffffffffffff16600260003373ffffffffffffffffffffffffffffffffffffffff1673ffffffffffffffffffffffffffffffffffffffff16815260200190815260200160002060009054906101000a900473ffffffffffffffffffffffffffffffffffffffff1673ffffffffffffffffffffffffffffffffffffffff161462000520576040517f08c379a000000000000000000000000000000000000000000000000000000000815260040162000517906200123e565b60405180910390fd5b600073ffffffffffffffffffffffffffffffffffffffff168173ffffffffffffffffffffffffffffffffffffffff16146200055a57600080fd5b600088883389898989896040516200057290620009ad565b6200058598979695949392919062001260565b604051809103906000f080158015620005a2573d6000803e3d6000fd5b50905060008190506000819080600181540180825580915050600190039060005260206000200160009091909190916101000a81548173ffffffffffffffffffffffffffffffffffffffff021916908373ffffffffffffffffffffffffffffffffffffffff16021790555080600189604051620006209190620011d5565b908152602001604051809103902060006101000a81548173ffffffffffffffffffffffffffffffffffffffff021916908373ffffffffffffffffffffffffffffffffffffffff16021790555080600260003373ffffffffffffffffffffffffffffffffffffffff1673ffffffffffffffffffffffffffffffffffffffff16815260200190815260200160002060006101000a81548173ffffffffffffffffffffffffffffffffffffffff021916908373ffffffffffffffffffffffffffffffffffffffff16021790555050505050505050505050565b60606040518060400160405280601a81526020017f79657320736d617274636f6e7472616374206465706c6f796564000000000000815250905090565b6060808273ffffffffffffffffffffffffffffffffffffffff166335afba4a6040518163ffffffff1660e01b8152600401600060405180830381865afa15801562000782573d6000803e3d6000fd5b505050506040513d6000823e3d601f19601f82011682018060405250810190620007ad919062001388565b91509150915091565b6060806000806000620007c8620009bb565b620007d2620009bb565b620007dc620009bb565b8873ffffffffffffffffffffffffffffffffffffffff16638356c1e16040518163ffffffff1660e01b8152600401600060405180830381865afa15801562000828573d6000803e3d6000fd5b505050506040513d6000823e3d601f19601f82011682018060405250810190620008539190620014bc565b97509750975097509750975097509750919395975091939597565b6001818051602081018201805184825260208301602085012081835280955050505050506000915054906101000a900473ffffffffffffffffffffffffffffffffffffffff1681565b60008181548110620008c857600080fd5b906000526020600020016000915054906101000a900473ffffffffffffffffffffffffffffffffffffffff1681565b600360009054906101000a900473ffffffffffffffffffffffffffffffffffffffff1681565b60606000805480602002602001604051908101604052809291908181526020018280548015620009a357602002820191906000526020600020905b8160009054906101000a900473ffffffffffffffffffffffffffffffffffffffff1673ffffffffffffffffffffffffffffffffffffffff168152602001906001019080831162000958575b5050505050905090565b614e0b806200162183390190565b60405180606001604052806060815260200160008152602001600081525090565b6000604051905090565b600080fd5b600080fd5b600073ffffffffffffffffffffffffffffffffffffffff82169050919050565b600062000a1d82620009f0565b9050919050565b62000a2f8162000a10565b811462000a3b57600080fd5b50565b60008135905062000a4f8162000a24565b92915050565b60006020828403121562000a6e5762000a6d620009e6565b5b600062000a7e8482850162000a3e565b91505092915050565b60008115159050919050565b62000a9e8162000a87565b82525050565b600060208201905062000abb600083018462000a93565b92915050565b62000acc8162000a10565b82525050565b600060208201905062000ae9600083018462000ac1565b92915050565b600080fd5b600080fd5b6000601f19601f8301169050919050565b7f4e487b7100000000000000000000000000000000000000000000000000000000600052604160045260246000fd5b62000b448262000af9565b810181811067ffffffffffffffff8211171562000b665762000b6562000b0a565b5b80604052505050565b600062000b7b620009dc565b905062000b89828262000b39565b919050565b600067ffffffffffffffff82111562000bac5762000bab62000b0a565b5b62000bb78262000af9565b9050602081019050919050565b82818337600083830152505050565b600062000bea62000be48462000b8e565b62000b6f565b90508281526020810184848401111562000c095762000c0862000af4565b5b62000c1684828562000bc4565b509392505050565b600082601f83011262000c365762000c3562000aef565b5b813562000c4884826020860162000bd3565b91505092915050565b6000819050919050565b62000c668162000c51565b811462000c7257600080fd5b50565b60008135905062000c868162000c5b565b92915050565b600080600080600080600060e0888a03121562000cae5762000cad620009e6565b5b600088013567ffffffffffffffff81111562000ccf5762000cce620009eb565b5b62000cdd8a828b0162000c1e565b975050602088013567ffffffffffffffff81111562000d015762000d00620009eb565b5b62000d0f8a828b0162000c1e565b965050604088013567ffffffffffffffff81111562000d335762000d32620009eb565b5b62000d418a828b0162000c1e565b955050606088013567ffffffffffffffff81111562000d655762000d64620009eb565b5b62000d738a828b0162000c1e565b945050608062000d868a828b0162000c75565b93505060a062000d998a828b0162000c75565b92505060c062000dac8a828b0162000c75565b91505092959891949750929550565b600081519050919050565b600082825260208201905092915050565b60005b8381101562000df757808201518184015260208101905062000dda565b60008484015250505050565b600062000e108262000dbb565b62000e1c818562000dc6565b935062000e2e81856020860162000dd7565b62000e398162000af9565b840191505092915050565b6000602082019050818103600083015262000e60818462000e03565b905092915050565b6000604082019050818103600083015262000e84818562000e03565b9050818103602083015262000e9a818462000e03565b90509392505050565b62000eae8162000c51565b82525050565b600082825260208201905092915050565b600062000ed28262000dbb565b62000ede818562000eb4565b935062000ef081856020860162000dd7565b62000efb8162000af9565b840191505092915050565b62000f118162000c51565b82525050565b6000606083016000830151848203600086015262000f36828262000ec5565b915050602083015162000f4d602086018262000f06565b50604083015162000f62604086018262000f06565b508091505092915050565b600061010082019050818103600083015262000f8a818b62000e03565b9050818103602083015262000fa0818a62000e03565b905062000fb1604083018962000ea3565b62000fc0606083018862000ea3565b62000fcf608083018762000ea3565b81810360a083015262000fe3818662000f17565b905081810360c083015262000ff9818562000f17565b905081810360e08301526200100f818462000f17565b90509998505050505050505050565b600060208284031215620010375762001036620009e6565b5b600082013567ffffffffffffffff811115620010585762001057620009eb565b5b620010668482850162000c1e565b91505092915050565b600060208284031215620010885762001087620009e6565b5b6000620010988482850162000c75565b91505092915050565b600081519050919050565b600082825260208201905092915050565b6000819050602082019050919050565b620010d88162000a10565b82525050565b6000620010ec8383620010cd565b60208301905092915050565b6000602082019050919050565b60006200111282620010a1565b6200111e8185620010ac565b93506200112b83620010bd565b8060005b8381101562001162578151620011468882620010de565b97506200115383620010f8565b9250506001810190506200112f565b5085935050505092915050565b600060208201905081810360008301526200118b818462001105565b905092915050565b600081905092915050565b6000620011ab8262000dbb565b620011b7818562001193565b9350620011c981856020860162000dd7565b80840191505092915050565b6000620011e382846200119e565b915081905092915050565b7f6164647265737320616c72656164792068617320616e206163636f756e740000600082015250565b600062001226601e8362000dc6565b91506200123382620011ee565b602082019050919050565b60006020820190508181036000830152620012598162001217565b9050919050565b60006101008201905081810360008301526200127d818b62000e03565b9050818103602083015262001293818a62000e03565b9050620012a4604083018962000ac1565b8181036060830152620012b8818862000e03565b90508181036080830152620012ce818762000e03565b9050620012df60a083018662000ea3565b620012ee60c083018562000ea3565b620012fd60e083018462000ea3565b9998505050505050505050565b6000620013216200131b8462000b8e565b62000b6f565b90508281526020810184848401111562001340576200133f62000af4565b5b6200134d84828562000dd7565b509392505050565b600082601f8301126200136d576200136c62000aef565b5b81516200137f8482602086016200130a565b91505092915050565b60008060408385031215620013a257620013a1620009e6565b5b600083015167ffffffffffffffff811115620013c357620013c2620009eb565b5b620013d18582860162001355565b925050602083015167ffffffffffffffff811115620013f557620013f4620009eb565b5b620014038582860162001355565b9150509250929050565b6000815190506200141e8162000c5b565b92915050565b600080fd5b600080fd5b60006060828403121562001447576200144662001424565b5b62001453606062000b6f565b9050600082015167ffffffffffffffff81111562001476576200147562001429565b5b620014848482850162001355565b60008301525060206200149a848285016200140d565b6020830152506040620014b0848285016200140d565b60408301525092915050565b600080600080600080600080610100898b031215620014e057620014df620009e6565b5b600089015167ffffffffffffffff811115620015015762001500620009eb565b5b6200150f8b828c0162001355565b985050602089015167ffffffffffffffff811115620015335762001532620009eb565b5b620015418b828c0162001355565b9750506040620015548b828c016200140d565b9650506060620015678b828c016200140d565b95505060806200157a8b828c016200140d565b94505060a089015167ffffffffffffffff8111156200159e576200159d620009eb565b5b620015ac8b828c016200142e565b93505060c089015167ffffffffffffffff811115620015d057620015cf620009eb565b5b620015de8b828c016200142e565b92505060e089015167ffffffffffffffff811115620016025762001601620009eb565b5b620016108b828c016200142e565b915050929598509295989093965056fe608060405262278d006011553480156200001857600080fd5b5060405162004e0b38038062004e0b83398181016040528101906200003e9190620005b6565b878781600090816200005191906200093c565b5080600190816200006391906200093c565b505050620000866200007a620002b560201b60201c565b620002bd60201b60201c565b6200009786620002bd60201b60201c565b8460079081620000a891906200093c565b508360089081620000ba91906200093c565b5060405180606001604052806040518060400160405280600681526020017f62726f6e7a6500000000000000000000000000000000000000000000000000008152508152602001620f42408562000112919062000a52565b81526020016000815250601060006001815260200190815260200160002060008201518160000190816200014791906200093c565b50602082015181600101556040820151816002015590505060405180606001604052806040518060400160405280600681526020017f73696c76657200000000000000000000000000000000000000000000000000008152508152602001620f424084620001b6919062000a52565b8152602001600081525060106000600281526020019081526020016000206000820151816000019081620001eb91906200093c565b50602082015181600101556040820151816002015590505060405180606001604052806040518060400160405280600481526020017f676f6c64000000000000000000000000000000000000000000000000000000008152508152602001620f4240836200025a919062000a52565b81526020016000815250601060006003815260200190815260200160002060008201518160000190816200028f91906200093c565b506020820151816001015560408201518160020155905050505050505050505062000a9d565b600033905090565b6000600660009054906101000a900473ffffffffffffffffffffffffffffffffffffffff16905081600660006101000a81548173ffffffffffffffffffffffffffffffffffffffff021916908373ffffffffffffffffffffffffffffffffffffffff1602179055508173ffffffffffffffffffffffffffffffffffffffff168173ffffffffffffffffffffffffffffffffffffffff167f8be0079c531659141344cd1fd0a4f28419497f9722a3daafe3b4186f6b6457e060405160405180910390a35050565b6000604051905090565b600080fd5b600080fd5b600080fd5b600080fd5b6000601f19601f8301169050919050565b7f4e487b7100000000000000000000000000000000000000000000000000000000600052604160045260246000fd5b620003ec82620003a1565b810181811067ffffffffffffffff821117156200040e576200040d620003b2565b5b80604052505050565b60006200042362000383565b9050620004318282620003e1565b919050565b600067ffffffffffffffff821115620004545762000453620003b2565b5b6200045f82620003a1565b9050602081019050919050565b60005b838110156200048c5780820151818401526020810190506200046f565b60008484015250505050565b6000620004af620004a98462000436565b62000417565b905082815260208101848484011115620004ce57620004cd6200039c565b5b620004db8482856200046c565b509392505050565b600082601f830112620004fb57620004fa62000397565b5b81516200050d84826020860162000498565b91505092915050565b600073ffffffffffffffffffffffffffffffffffffffff82169050919050565b6000620005438262000516565b9050919050565b620005558162000536565b81146200056157600080fd5b50565b60008151905062000575816200054a565b92915050565b6000819050919050565b62000590816200057b565b81146200059c57600080fd5b50565b600081519050620005b08162000585565b92915050565b600080600080600080600080610100898b031215620005da57620005d96200038d565b5b600089015167ffffffffffffffff811115620005fb57620005fa62000392565b5b620006098b828c01620004e3565b985050602089015167ffffffffffffffff8111156200062d576200062c62000392565b5b6200063b8b828c01620004e3565b97505060406200064e8b828c0162000564565b965050606089015167ffffffffffffffff81111562000672576200067162000392565b5b620006808b828c01620004e3565b955050608089015167ffffffffffffffff811115620006a457620006a362000392565b5b620006b28b828c01620004e3565b94505060a0620006c58b828c016200059f565b93505060c0620006d88b828c016200059f565b92505060e0620006eb8b828c016200059f565b9150509295985092959890939650565b600081519050919050565b7f4e487b7100000000000000000000000000000000000000000000000000000000600052602260045260246000fd5b600060028204905060018216806200074e57607f821691505b60208210810362000764576200076362000706565b5b50919050565b60008190508160005260206000209050919050565b60006020601f8301049050919050565b600082821b905092915050565b600060088302620007ce7fffffffffffffffffffffffffffffffffffffffffffffffffffffffffffffffff826200078f565b620007da86836200078f565b95508019841693508086168417925050509392505050565b6000819050919050565b60006200081d6200081762000811846200057b565b620007f2565b6200057b565b9050919050565b6000819050919050565b6200083983620007fc565b62000851620008488262000824565b8484546200079c565b825550505050565b600090565b6200086862000859565b620008758184846200082e565b505050565b5b818110156200089d57620008916000826200085e565b6001810190506200087b565b5050565b601f821115620008ec57620008b6816200076a565b620008c1846200077f565b81016020851015620008d1578190505b620008e9620008e0856200077f565b8301826200087a565b50505b505050565b600082821c905092915050565b60006200091160001984600802620008f1565b1980831691505092915050565b60006200092c8383620008fe565b9150826002028217905092915050565b6200094782620006fb565b67ffffffffffffffff811115620009635762000962620003b2565b5b6200096f825462000735565b6200097c828285620008a1565b600060209050601f831160018114620009b457600084156200099f578287015190505b620009ab85826200091e565b86555062000a1b565b601f198416620009c4866200076a565b60005b82811015620009ee57848901518255600182019150602085019450602081019050620009c7565b8683101562000a0e578489015162000a0a601f891682620008fe565b8355505b6001600288020188555050505b505050505050565b7f4e487b7100000000000000000000000000000000000000000000000000000000600052601160045260246000fd5b600062000a5f826200057b565b915062000a6c836200057b565b925082820262000a7c816200057b565b9150828204841483151762000a965762000a9562000a23565b5b5092915050565b61435e8062000aad6000396000f3fe6080604052600436106102455760003560e01c80637a94a63311610139578063b88d4fde116100b6578063c87b56dd1161007a578063c87b56dd146108a1578063de4529eb146108de578063e0ded7761461091b578063e985e9c514610937578063ed88c68e14610974578063f2fde38b1461097e57610245565b8063b88d4fde146107a8578063b92ae87c146107d1578063bcb2226a1461080e578063c5da76041461084b578063c707944b1461087657610245565b80638da5cb5b116100fd5780638da5cb5b146106d357806395d89b41146106fe578063a22cb46514610729578063a3e3981114610752578063b1d140681461077d57610245565b80637a94a633146105e35780637efab5f31461060e5780638356c1e11461064d578063863678e91461067f578063893d20e8146106a857610245565b806327e25dcc116101c7578063534844a21161018b578063534844a2146104fe5780636352211e1461051557806370a0823114610552578063715018a61461058f5780637235d7d9146105a657610245565b806327e25dcc146104145780632ae25fd2146104555780632dc282e91461047e57806335afba4a146104a957806342842e0e146104d557610245565b8063095ea7b31161020e578063095ea7b31461033157806309c2e0d21461035a5780631dbe69d41461038357806321c7557c146103ae57806323b872dd146103eb57610245565b8062b370441461024a57806301ffc9a71461027557806302d17a15146102b257806306fdde03146102c9578063081812fc146102f4575b600080fd5b34801561025657600080fd5b5061025f6109a7565b60405161026c9190612db9565b60405180910390f35b34801561028157600080fd5b5061029c60048036038101906102979190612e40565b6109ad565b6040516102a99190612e88565b60405180910390f35b3480156102be57600080fd5b506102c7610a8f565b005b3480156102d557600080fd5b506102de610b66565b6040516102eb9190612f33565b60405180910390f35b34801561030057600080fd5b5061031b60048036038101906103169190612f81565b610bf8565b6040516103289190612fef565b60405180910390f35b34801561033d57600080fd5b5061035860048036038101906103539190613036565b610c3e565b005b34801561036657600080fd5b50610381600480360381019061037c91906131ab565b610c83565b005b34801561038f57600080fd5b50610398610dc6565b6040516103a59190613414565b60405180910390f35b3480156103ba57600080fd5b506103d560048036038101906103d09190613436565b611000565b6040516103e29190612db9565b60405180910390f35b3480156103f757600080fd5b50610412600480360381019061040d9190613463565b611018565b005b34801561042057600080fd5b5061043b60048036038101906104369190612f81565b61105e565b60405161044c9594939291906134b6565b60405180910390f35b34801561046157600080fd5b5061047c6004803603810190610477919061351e565b611249565b005b34801561048a57600080fd5b506104936112d7565b6040516104a09190612db9565b60405180910390f35b3480156104b557600080fd5b506104be6112dd565b6040516104cc929190613567565b60405180910390f35b3480156104e157600080fd5b506104fc60048036038101906104f79190613463565b611404565b005b34801561050a57600080fd5b5061051361144a565b005b34801561052157600080fd5b5061053c60048036038101906105379190612f81565b6114ba565b6040516105499190612fef565b60405180910390f35b34801561055e57600080fd5b5061057960048036038101906105749190613436565b611540565b6040516105869190612db9565b60405180910390f35b34801561059b57600080fd5b506105a46115f7565b005b3480156105b257600080fd5b506105cd60048036038101906105c8919061351e565b61160b565b6040516105da9190612db9565b60405180910390f35b3480156105ef57600080fd5b506105f8611639565b6040516106059190612db9565b60405180910390f35b34801561061a57600080fd5b5061063560048036038101906106309190612f81565b61163f565b6040516106449392919061359e565b60405180910390f35b34801561065957600080fd5b506106626116f1565b60405161067698979695949392919061362c565b60405180910390f35b34801561068b57600080fd5b506106a660048036038101906106a1919061351e565b611aa8565b005b3480156106b457600080fd5b506106bd611b36565b6040516106ca9190612fef565b60405180910390f35b3480156106df57600080fd5b506106e8611b4a565b6040516106f59190612fef565b60405180910390f35b34801561070a57600080fd5b50610713611b74565b6040516107209190612f33565b60405180910390f35b34801561073557600080fd5b50610750600480360381019061074b91906136f9565b611c06565b005b34801561075e57600080fd5b50610767611c4b565b6040516107749190612f33565b60405180910390f35b34801561078957600080fd5b50610792611cd9565b60405161079f9190612db9565b60405180910390f35b3480156107b457600080fd5b506107cf60048036038101906107ca91906137da565b611cdf565b005b3480156107dd57600080fd5b506107f860048036038101906107f39190613436565b611d26565b6040516108059190612e88565b60405180910390f35b34801561081a57600080fd5b5061083560048036038101906108309190613436565b611d7c565b6040516108429190612db9565b60405180910390f35b34801561085757600080fd5b50610860611d94565b60405161086d9190612f33565b60405180910390f35b34801561088257600080fd5b5061088b611e22565b6040516108989190612db9565b60405180910390f35b3480156108ad57600080fd5b506108c860048036038101906108c39190612f81565b611e28565b6040516108d59190612f33565b60405180910390f35b3480156108ea57600080fd5b5061090560048036038101906109009190613436565b611e90565b6040516109129190612db9565b60405180910390f35b61093560048036038101906109309190612f81565b611ea8565b005b34801561094357600080fd5b5061095e6004803603810190610959919061385d565b612331565b60405161096b9190612e88565b60405180910390f35b61097c6123c5565b005b34801561098a57600080fd5b506109a560048036038101906109a09190613436565b6123f9565b005b600e5481565b60007f80ac58cd000000000000000000000000000000000000000000000000000000007bffffffffffffffffffffffffffffffffffffffffffffffffffffffff1916827bffffffffffffffffffffffffffffffffffffffffffffffffffffffff19161480610a7857507f5b5e139f000000000000000000000000000000000000000000000000000000007bffffffffffffffffffffffffffffffffffffffffffffffffffffffff1916827bffffffffffffffffffffffffffffffffffffffffffffffffffffffff1916145b80610a885750610a878261247c565b5b9050919050565b6000600954905060005b81811015610b62576000610aac826114ba565b905042601260008373ffffffffffffffffffffffffffffffffffffffff1673ffffffffffffffffffffffffffffffffffffffff168152602001908152602001600020541015610b4e576000601460008373ffffffffffffffffffffffffffffffffffffffff1673ffffffffffffffffffffffffffffffffffffffff16815260200190815260200160002060006101000a81548160ff0219169083151502179055505b508080610b5a906138cc565b915050610a99565b5050565b606060008054610b7590613943565b80601f0160208091040260200160405190810160405280929190818152602001828054610ba190613943565b8015610bee5780601f10610bc357610100808354040283529160200191610bee565b820191906000526020600020905b815481529060010190602001808311610bd157829003601f168201915b5050505050905090565b6000610c03826124e6565b6004600083815260200190815260200160002060009054906101000a900473ffffffffffffffffffffffffffffffffffffffff169050919050565b6000610c7f576040517f08c379a0000000000000000000000000000000000000000000000000000000008152600401610c76906139c0565b60405180910390fd5b5050565b610c8b612531565b6000600c84604051610c9d9190613a1c565b90815260200160405180910390205414610cb657600080fd5b6001600a6000828254610cc99190613a33565b92505081905550600a54600c84604051610ce39190613a1c565b908152602001604051809103902081905550600b6040518060a001604052808681526020018581526020018481526020016000151581526020018381525090806001815401808255809150506001900390600052602060002090600502016000909190919091506000820151816000019081610d5f9190613c13565b506020820151816001019081610d759190613c13565b506040820151816002019081610d8b9190613c13565b5060608201518160030160006101000a81548160ff021916908315150217905550608082015181600401555050610dc0610a8f565b50505050565b6060600b805480602002602001604051908101604052809291908181526020016000905b82821015610ff757838290600052602060002090600502016040518060a0016040529081600082018054610e1d90613943565b80601f0160208091040260200160405190810160405280929190818152602001828054610e4990613943565b8015610e965780601f10610e6b57610100808354040283529160200191610e96565b820191906000526020600020905b815481529060010190602001808311610e7957829003601f168201915b50505050508152602001600182018054610eaf90613943565b80601f0160208091040260200160405190810160405280929190818152602001828054610edb90613943565b8015610f285780601f10610efd57610100808354040283529160200191610f28565b820191906000526020600020905b815481529060010190602001808311610f0b57829003601f168201915b50505050508152602001600282018054610f4190613943565b80601f0160208091040260200160405190810160405280929190818152602001828054610f6d90613943565b8015610fba5780601f10610f8f57610100808354040283529160200191610fba565b820191906000526020600020905b815481529060010190602001808311610f9d57829003601f168201915b505050505081526020016003820160009054906101000a900460ff1615151515815260200160048201548152505081526020019060010190610dea565b50505050905090565b600f6020528060005260406000206000915090505481565b6000611059576040517f08c379a000000000000000000000000000000000000000000000000000000000815260040161105090613d31565b60405180910390fd5b505050565b600b818154811061106e57600080fd5b906000526020600020906005020160009150905080600001805461109190613943565b80601f01602080910402602001604051908101604052809291908181526020018280546110bd90613943565b801561110a5780601f106110df5761010080835404028352916020019161110a565b820191906000526020600020905b8154815290600101906020018083116110ed57829003601f168201915b50505050509080600101805461111f90613943565b80601f016020809104026020016040519081016040528092919081815260200182805461114b90613943565b80156111985780601f1061116d57610100808354040283529160200191611198565b820191906000526020600020905b81548152906001019060200180831161117b57829003601f168201915b5050505050908060020180546111ad90613943565b80601f01602080910402602001604051908101604052809291908181526020018280546111d990613943565b80156112265780601f106111fb57610100808354040283529160200191611226565b820191906000526020600020905b81548152906001019060200180831161120957829003601f168201915b5050505050908060030160009054906101000a900460ff16908060040154905085565b611251612531565b6000600c826040516112639190613a1c565b90815260200160405180910390205490506000811161128157600080fd5b6000600b6001836112929190613d51565b815481106112a3576112a2613d85565b5b906000526020600020906005020160030160006101000a81548160ff0219169083151502179055506112d3610a8f565b5050565b600a5481565b606080600760088180546112f090613943565b80601f016020809104026020016040519081016040528092919081815260200182805461131c90613943565b80156113695780601f1061133e57610100808354040283529160200191611369565b820191906000526020600020905b81548152906001019060200180831161134c57829003601f168201915b5050505050915080805461137c90613943565b80601f01602080910402602001604051908101604052809291908181526020018280546113a890613943565b80156113f55780601f106113ca576101008083540402835291602001916113f5565b820191906000526020600020905b8154815290600101906020018083116113d857829003601f168201915b50505050509050915091509091565b6000611445576040517f08c379a000000000000000000000000000000000000000000000000000000000815260040161143c90613d31565b60405180910390fd5b505050565b611452612531565b600061145c611b4a565b90508073ffffffffffffffffffffffffffffffffffffffff166108fc600d549081150290604051600060405180830381858888f193505050501580156114a6573d6000803e3d6000fd5b506000600d819055506114b7610a8f565b50565b6000806114c6836125af565b9050600073ffffffffffffffffffffffffffffffffffffffff168173ffffffffffffffffffffffffffffffffffffffff1603611537576040517f08c379a000000000000000000000000000000000000000000000000000000000815260040161152e90613e00565b60405180910390fd5b80915050919050565b60008073ffffffffffffffffffffffffffffffffffffffff168273ffffffffffffffffffffffffffffffffffffffff16036115b0576040517f08c379a00000000000000000000000000000000000000000000000000000000081526004016115a790613e92565b60405180910390fd5b600360008373ffffffffffffffffffffffffffffffffffffffff1673ffffffffffffffffffffffffffffffffffffffff168152602001908152602001600020549050919050565b6115ff612531565b61160960006125ec565b565b600c818051602081018201805184825260208301602085012081835280955050505050506000915090505481565b60115481565b601060205280600052604060002060009150905080600001805461166290613943565b80601f016020809104026020016040519081016040528092919081815260200182805461168e90613943565b80156116db5780601f106116b0576101008083540402835291602001916116db565b820191906000526020600020905b8154815290600101906020018083116116be57829003601f168201915b5050505050908060010154908060020154905083565b6060806000806000611701612d7f565b611709612d7f565b611711612d7f565b60076008600954600a54600d5460106000600181526020019081526020016000206010600060028152602001908152602001600020601060006003815260200190815260200160002087805461176690613943565b80601f016020809104026020016040519081016040528092919081815260200182805461179290613943565b80156117df5780601f106117b4576101008083540402835291602001916117df565b820191906000526020600020905b8154815290600101906020018083116117c257829003601f168201915b505050505097508680546117f290613943565b80601f016020809104026020016040519081016040528092919081815260200182805461181e90613943565b801561186b5780601f106118405761010080835404028352916020019161186b565b820191906000526020600020905b81548152906001019060200180831161184e57829003601f168201915b505050505096508260405180606001604052908160008201805461188e90613943565b80601f01602080910402602001604051908101604052809291908181526020018280546118ba90613943565b80156119075780601f106118dc57610100808354040283529160200191611907565b820191906000526020600020905b8154815290600101906020018083116118ea57829003601f168201915b505050505081526020016001820154815260200160028201548152505092508160405180606001604052908160008201805461194290613943565b80601f016020809104026020016040519081016040528092919081815260200182805461196e90613943565b80156119bb5780601f10611990576101008083540402835291602001916119bb565b820191906000526020600020905b81548152906001019060200180831161199e57829003601f168201915b50505050508152602001600182015481526020016002820154815250509150806040518060600160405290816000820180546119f690613943565b80601f0160208091040260200160405190810160405280929190818152602001828054611a2290613943565b8015611a6f5780601f10611a4457610100808354040283529160200191611a6f565b820191906000526020600020905b815481529060010190602001808311611a5257829003601f168201915b50505050508152602001600182015481526020016002820154815250509050975097509750975097509750975097509091929394959697565b611ab0612531565b6000600c82604051611ac29190613a1c565b908152602001604051809103902054905060008111611ae057600080fd5b6001600b600183611af19190613d51565b81548110611b0257611b01613d85565b5b906000526020600020906005020160030160006101000a81548160ff021916908315150217905550611b32610a8f565b5050565b600080611b41611b4a565b90508091505090565b6000600660009054906101000a900473ffffffffffffffffffffffffffffffffffffffff16905090565b606060018054611b8390613943565b80601f0160208091040260200160405190810160405280929190818152602001828054611baf90613943565b8015611bfc5780601f10611bd157610100808354040283529160200191611bfc565b820191906000526020600020905b815481529060010190602001808311611bdf57829003601f168201915b5050505050905090565b6000611c47576040517f08c379a0000000000000000000000000000000000000000000000000000000008152600401611c3e906139c0565b60405180910390fd5b5050565b60088054611c5890613943565b80601f0160208091040260200160405190810160405280929190818152602001828054611c8490613943565b8015611cd15780601f10611ca657610100808354040283529160200191611cd1565b820191906000526020600020905b815481529060010190602001808311611cb457829003601f168201915b505050505081565b600d5481565b6000611d20576040517f08c379a0000000000000000000000000000000000000000000000000000000008152600401611d1790613d31565b60405180910390fd5b50505050565b6000601460008373ffffffffffffffffffffffffffffffffffffffff1673ffffffffffffffffffffffffffffffffffffffff16815260200190815260200160002060009054906101000a900460ff169050919050565b60126020528060005260406000206000915090505481565b60078054611da190613943565b80601f0160208091040260200160405190810160405280929190818152602001828054611dcd90613943565b8015611e1a5780601f10611def57610100808354040283529160200191611e1a565b820191906000526020600020905b815481529060010190602001808311611dfd57829003601f168201915b505050505081565b60095481565b6060611e33826124e6565b6000611e3d6126b2565b90506000815111611e5d5760405180602001604052806000815250611e88565b80611e67846126c9565b604051602001611e78929190613eb2565b6040516020818303038152906040525b915050919050565b60136020528060005260406000206000915090505481565b6001811015611eec576040517f08c379a0000000000000000000000000000000000000000000000000000000008152600401611ee390613f22565b60405180910390fd5b6003811115611f30576040517f08c379a0000000000000000000000000000000000000000000000000000000008152600401611f2790613f22565b60405180910390fd5b6000611f3b33611540565b036121005760106000828152602001908152602001600020600101543411611f6257600080fd5b6001600954611f719190613a33565b600981905550611f8333600954612797565b34600d6000828254611f959190613a33565b925050819055506001601460003373ffffffffffffffffffffffffffffffffffffffff1673ffffffffffffffffffffffffffffffffffffffff16815260200190815260200160002060006101000a81548160ff021916908315150217905550601154426120029190613a33565b601260003373ffffffffffffffffffffffffffffffffffffffff1673ffffffffffffffffffffffffffffffffffffffff1681526020019081526020016000208190555042601360003373ffffffffffffffffffffffffffffffffffffffff1673ffffffffffffffffffffffffffffffffffffffff1681526020019081526020016000208190555080600f60003373ffffffffffffffffffffffffffffffffffffffff1673ffffffffffffffffffffffffffffffffffffffff1681526020019081526020016000208190555060016010600083815260200190815260200160002060020160008282546120f49190613a33565b9250508190555061232e565b60001515601460003373ffffffffffffffffffffffffffffffffffffffff1673ffffffffffffffffffffffffffffffffffffffff16815260200190815260200160002060009054906101000a900460ff16151514612193576040517f08c379a000000000000000000000000000000000000000000000000000000000815260040161218a90613f8e565b60405180910390fd5b601060008281526020019081526020016000206001015434116121b557600080fd5b34600d60008282546121c79190613a33565b925050819055506001601460003373ffffffffffffffffffffffffffffffffffffffff1673ffffffffffffffffffffffffffffffffffffffff16815260200190815260200160002060006101000a81548160ff021916908315150217905550601154426122349190613a33565b601260003373ffffffffffffffffffffffffffffffffffffffff1673ffffffffffffffffffffffffffffffffffffffff1681526020019081526020016000208190555042601360003373ffffffffffffffffffffffffffffffffffffffff1673ffffffffffffffffffffffffffffffffffffffff1681526020019081526020016000208190555080600f60003373ffffffffffffffffffffffffffffffffffffffff1673ffffffffffffffffffffffffffffffffffffffff1681526020019081526020016000208190555060016010600083815260200190815260200160002060020160008282546123269190613a33565b925050819055505b50565b6000600560008473ffffffffffffffffffffffffffffffffffffffff1673ffffffffffffffffffffffffffffffffffffffff16815260200190815260200160002060008373ffffffffffffffffffffffffffffffffffffffff1673ffffffffffffffffffffffffffffffffffffffff16815260200190815260200160002060009054906101000a900460ff16905092915050565b34600d60008282546123d79190613a33565b9250508190555034600e60008282546123f09190613a33565b92505081905550565b612401612531565b600073ffffffffffffffffffffffffffffffffffffffff168173ffffffffffffffffffffffffffffffffffffffff1603612470576040517f08c379a000000000000000000000000000000000000000000000000000000000815260040161246790614020565b60405180910390fd5b612479816125ec565b50565b60007f01ffc9a7000000000000000000000000000000000000000000000000000000007bffffffffffffffffffffffffffffffffffffffffffffffffffffffff1916827bffffffffffffffffffffffffffffffffffffffffffffffffffffffff1916149050919050565b6124ef816127b5565b61252e576040517f08c379a000000000000000000000000000000000000000000000000000000000815260040161252590613e00565b60405180910390fd5b50565b6125396127f6565b73ffffffffffffffffffffffffffffffffffffffff16612557611b4a565b73ffffffffffffffffffffffffffffffffffffffff16146125ad576040517f08c379a00000000000000000000000000000000000000000000000000000000081526004016125a49061408c565b60405180910390fd5b565b60006002600083815260200190815260200160002060009054906101000a900473ffffffffffffffffffffffffffffffffffffffff169050919050565b6000600660009054906101000a900473ffffffffffffffffffffffffffffffffffffffff16905081600660006101000a81548173ffffffffffffffffffffffffffffffffffffffff021916908373ffffffffffffffffffffffffffffffffffffffff1602179055508173ffffffffffffffffffffffffffffffffffffffff168173ffffffffffffffffffffffffffffffffffffffff167f8be0079c531659141344cd1fd0a4f28419497f9722a3daafe3b4186f6b6457e060405160405180910390a35050565b606060405180602001604052806000815250905090565b6060600060016126d8846127fe565b01905060008167ffffffffffffffff8111156126f7576126f6613080565b5b6040519080825280601f01601f1916602001820160405280156127295781602001600182028036833780820191505090505b509050600082602001820190505b60011561278c578080600190039150507f3031323334353637383961626364656600000000000000000000000000000000600a86061a8153600a85816127805761277f6140ac565b5b04945060008503612737575b819350505050919050565b6127b1828260405180602001604052806000815250612951565b5050565b60008073ffffffffffffffffffffffffffffffffffffffff166127d7836125af565b73ffffffffffffffffffffffffffffffffffffffff1614159050919050565b600033905090565b600080600090507a184f03e93ff9f4daa797ed6e38ed64bf6a1f010000000000000000831061285c577a184f03e93ff9f4daa797ed6e38ed64bf6a1f0100000000000000008381612852576128516140ac565b5b0492506040810190505b6d04ee2d6d415b85acef81000000008310612899576d04ee2d6d415b85acef8100000000838161288f5761288e6140ac565b5b0492506020810190505b662386f26fc1000083106128c857662386f26fc1000083816128be576128bd6140ac565b5b0492506010810190505b6305f5e10083106128f1576305f5e10083816128e7576128e66140ac565b5b0492506008810190505b612710831061291657612710838161290c5761290b6140ac565b5b0492506004810190505b60648310612939576064838161292f5761292e6140ac565b5b0492506002810190505b600a8310612948576001810190505b80915050919050565b61295b83836129ac565b6129686000848484612bc9565b6129a7576040517f08c379a000000000000000000000000000000000000000000000000000000000815260040161299e9061414d565b60405180910390fd5b505050565b600073ffffffffffffffffffffffffffffffffffffffff168273ffffffffffffffffffffffffffffffffffffffff1603612a1b576040517f08c379a0000000000000000000000000000000000000000000000000000000008152600401612a12906141b9565b60405180910390fd5b612a24816127b5565b15612a64576040517f08c379a0000000000000000000000000000000000000000000000000000000008152600401612a5b90614225565b60405180910390fd5b612a72600083836001612d50565b612a7b816127b5565b15612abb576040517f08c379a0000000000000000000000000000000000000000000000000000000008152600401612ab290614225565b60405180910390fd5b6001600360008473ffffffffffffffffffffffffffffffffffffffff1673ffffffffffffffffffffffffffffffffffffffff16815260200190815260200160002060008282540192505081905550816002600083815260200190815260200160002060006101000a81548173ffffffffffffffffffffffffffffffffffffffff021916908373ffffffffffffffffffffffffffffffffffffffff160217905550808273ffffffffffffffffffffffffffffffffffffffff16600073ffffffffffffffffffffffffffffffffffffffff167fddf252ad1be2c89b69c2b068fc378daa952ba7f163c4a11628f55a4df523b3ef60405160405180910390a4612bc5600083836001612d56565b5050565b6000612bea8473ffffffffffffffffffffffffffffffffffffffff16612d5c565b15612d43578373ffffffffffffffffffffffffffffffffffffffff1663150b7a02612c136127f6565b8786866040518563ffffffff1660e01b8152600401612c35949392919061429a565b6020604051808303816000875af1925050508015612c7157506040513d601f19601f82011682018060405250810190612c6e91906142fb565b60015b612cf3573d8060008114612ca1576040519150601f19603f3d011682016040523d82523d6000602084013e612ca6565b606091505b506000815103612ceb576040517f08c379a0000000000000000000000000000000000000000000000000000000008152600401612ce29061414d565b60405180910390fd5b805181602001fd5b63150b7a0260e01b7bffffffffffffffffffffffffffffffffffffffffffffffffffffffff1916817bffffffffffffffffffffffffffffffffffffffffffffffffffffffff191614915050612d48565b600190505b949350505050565b50505050565b50505050565b6000808273ffffffffffffffffffffffffffffffffffffffff163b119050919050565b60405180606001604052806060815260200160008152602001600081525090565b6000819050919050565b612db381612da0565b82525050565b6000602082019050612dce6000830184612daa565b92915050565b6000604051905090565b600080fd5b600080fd5b60007fffffffff0000000000000000000000000000000000000000000000000000000082169050919050565b612e1d81612de8565b8114612e2857600080fd5b50565b600081359050612e3a81612e14565b92915050565b600060208284031215612e5657612e55612dde565b5b6000612e6484828501612e2b565b91505092915050565b60008115159050919050565b612e8281612e6d565b82525050565b6000602082019050612e9d6000830184612e79565b92915050565b600081519050919050565b600082825260208201905092915050565b60005b83811015612edd578082015181840152602081019050612ec2565b60008484015250505050565b6000601f19601f8301169050919050565b6000612f0582612ea3565b612f0f8185612eae565b9350612f1f818560208601612ebf565b612f2881612ee9565b840191505092915050565b60006020820190508181036000830152612f4d8184612efa565b905092915050565b612f5e81612da0565b8114612f6957600080fd5b50565b600081359050612f7b81612f55565b92915050565b600060208284031215612f9757612f96612dde565b5b6000612fa584828501612f6c565b91505092915050565b600073ffffffffffffffffffffffffffffffffffffffff82169050919050565b6000612fd982612fae565b9050919050565b612fe981612fce565b82525050565b60006020820190506130046000830184612fe0565b92915050565b61301381612fce565b811461301e57600080fd5b50565b6000813590506130308161300a565b92915050565b6000806040838503121561304d5761304c612dde565b5b600061305b85828601613021565b925050602061306c85828601612f6c565b9150509250929050565b600080fd5b600080fd5b7f4e487b7100000000000000000000000000000000000000000000000000000000600052604160045260246000fd5b6130b882612ee9565b810181811067ffffffffffffffff821117156130d7576130d6613080565b5b80604052505050565b60006130ea612dd4565b90506130f682826130af565b919050565b600067ffffffffffffffff82111561311657613115613080565b5b61311f82612ee9565b9050602081019050919050565b82818337600083830152505050565b600061314e613149846130fb565b6130e0565b90508281526020810184848401111561316a5761316961307b565b5b61317584828561312c565b509392505050565b600082601f83011261319257613191613076565b5b81356131a284826020860161313b565b91505092915050565b600080600080608085870312156131c5576131c4612dde565b5b600085013567ffffffffffffffff8111156131e3576131e2612de3565b5b6131ef8782880161317d565b945050602085013567ffffffffffffffff8111156132105761320f612de3565b5b61321c8782880161317d565b935050604085013567ffffffffffffffff81111561323d5761323c612de3565b5b6132498782880161317d565b925050606061325a87828801612f6c565b91505092959194509250565b600081519050919050565b600082825260208201905092915050565b6000819050602082019050919050565b600082825260208201905092915050565b60006132ae82612ea3565b6132b88185613292565b93506132c8818560208601612ebf565b6132d181612ee9565b840191505092915050565b6132e581612e6d565b82525050565b6132f481612da0565b82525050565b600060a083016000830151848203600086015261331782826132a3565b9150506020830151848203602086015261333182826132a3565b9150506040830151848203604086015261334b82826132a3565b915050606083015161336060608601826132dc565b50608083015161337360808601826132eb565b508091505092915050565b600061338a83836132fa565b905092915050565b6000602082019050919050565b60006133aa82613266565b6133b48185613271565b9350836020820285016133c685613282565b8060005b8581101561340257848403895281516133e3858261337e565b94506133ee83613392565b925060208a019950506001810190506133ca565b50829750879550505050505092915050565b6000602082019050818103600083015261342e818461339f565b905092915050565b60006020828403121561344c5761344b612dde565b5b600061345a84828501613021565b91505092915050565b60008060006060848603121561347c5761347b612dde565b5b600061348a86828701613021565b935050602061349b86828701613021565b92505060406134ac86828701612f6c565b9150509250925092565b600060a08201905081810360008301526134d08188612efa565b905081810360208301526134e48187612efa565b905081810360408301526134f88186612efa565b90506135076060830185612e79565b6135146080830184612daa565b9695505050505050565b60006020828403121561353457613533612dde565b5b600082013567ffffffffffffffff81111561355257613551612de3565b5b61355e8482850161317d565b91505092915050565b600060408201905081810360008301526135818185612efa565b905081810360208301526135958184612efa565b90509392505050565b600060608201905081810360008301526135b88186612efa565b90506135c76020830185612daa565b6135d46040830184612daa565b949350505050565b600060608301600083015184820360008601526135f982826132a3565b915050602083015161360e60208601826132eb565b50604083015161362160408601826132eb565b508091505092915050565b6000610100820190508181036000830152613647818b612efa565b9050818103602083015261365b818a612efa565b905061366a6040830189612daa565b6136776060830188612daa565b6136846080830187612daa565b81810360a083015261369681866135dc565b905081810360c08301526136aa81856135dc565b905081810360e08301526136be81846135dc565b90509998505050505050505050565b6136d681612e6d565b81146136e157600080fd5b50565b6000813590506136f3816136cd565b92915050565b600080604083850312156137105761370f612dde565b5b600061371e85828601613021565b925050602061372f858286016136e4565b9150509250929050565b600067ffffffffffffffff82111561375457613753613080565b5b61375d82612ee9565b9050602081019050919050565b600061377d61377884613739565b6130e0565b9050828152602081018484840111156137995761379861307b565b5b6137a484828561312c565b509392505050565b600082601f8301126137c1576137c0613076565b5b81356137d184826020860161376a565b91505092915050565b600080600080608085870312156137f4576137f3612dde565b5b600061380287828801613021565b945050602061381387828801613021565b935050604061382487828801612f6c565b925050606085013567ffffffffffffffff81111561384557613844612de3565b5b613851878288016137ac565b91505092959194509250565b6000806040838503121561387457613873612dde565b5b600061388285828601613021565b925050602061389385828601613021565b9150509250929050565b7f4e487b7100000000000000000000000000000000000000000000000000000000600052601160045260246000fd5b60006138d782612da0565b91507fffffffffffffffffffffffffffffffffffffffffffffffffffffffffffffffff82036139095761390861389d565b5b600182019050919050565b7f4e487b7100000000000000000000000000000000000000000000000000000000600052602260045260246000fd5b6000600282049050600182168061395b57607f821691505b60208210810361396e5761396d613914565b5b50919050565b7f617070726f76616c732064697361626c65642e00000000000000000000000000600082015250565b60006139aa601383612eae565b91506139b582613974565b602082019050919050565b600060208201905081810360008301526139d98161399d565b9050919050565b600081905092915050565b60006139f682612ea3565b613a0081856139e0565b9350613a10818560208601612ebf565b80840191505092915050565b6000613a2882846139eb565b915081905092915050565b6000613a3e82612da0565b9150613a4983612da0565b9250828201905080821115613a6157613a6061389d565b5b92915050565b60008190508160005260206000209050919050565b60006020601f8301049050919050565b600082821b905092915050565b600060088302613ac97fffffffffffffffffffffffffffffffffffffffffffffffffffffffffffffffff82613a8c565b613ad38683613a8c565b95508019841693508086168417925050509392505050565b6000819050919050565b6000613b10613b0b613b0684612da0565b613aeb565b612da0565b9050919050565b6000819050919050565b613b2a83613af5565b613b3e613b3682613b17565b848454613a99565b825550505050565b600090565b613b53613b46565b613b5e818484613b21565b505050565b5b81811015613b8257613b77600082613b4b565b600181019050613b64565b5050565b601f821115613bc757613b9881613a67565b613ba184613a7c565b81016020851015613bb0578190505b613bc4613bbc85613a7c565b830182613b63565b50505b505050565b600082821c905092915050565b6000613bea60001984600802613bcc565b1980831691505092915050565b6000613c038383613bd9565b9150826002028217905092915050565b613c1c82612ea3565b67ffffffffffffffff811115613c3557613c34613080565b5b613c3f8254613943565b613c4a828285613b86565b600060209050601f831160018114613c7d5760008415613c6b578287015190505b613c758582613bf7565b865550613cdd565b601f198416613c8b86613a67565b60005b82811015613cb357848901518255600182019150602085019450602081019050613c8e565b86831015613cd05784890151613ccc601f891682613bd9565b8355505b6001600288020188555050505b505050505050565b7f7472616e73666572732064697361626c65642e00000000000000000000000000600082015250565b6000613d1b601383612eae565b9150613d2682613ce5565b602082019050919050565b60006020820190508181036000830152613d4a81613d0e565b9050919050565b6000613d5c82612da0565b9150613d6783612da0565b9250828203905081811115613d7f57613d7e61389d565b5b92915050565b7f4e487b7100000000000000000000000000000000000000000000000000000000600052603260045260246000fd5b7f4552433732313a20696e76616c696420746f6b656e2049440000000000000000600082015250565b6000613dea601883612eae565b9150613df582613db4565b602082019050919050565b60006020820190508181036000830152613e1981613ddd565b9050919050565b7f4552433732313a2061646472657373207a65726f206973206e6f74206120766160008201527f6c6964206f776e65720000000000000000000000000000000000000000000000602082015250565b6000613e7c602983612eae565b9150613e8782613e20565b604082019050919050565b60006020820190508181036000830152613eab81613e6f565b9050919050565b6000613ebe82856139eb565b9150613eca82846139eb565b91508190509392505050565b7f696e76616c696420746965720000000000000000000000000000000000000000600082015250565b6000613f0c600c83612eae565b9150613f1782613ed6565b602082019050919050565b60006020820190508181036000830152613f3b81613eff565b9050919050565b7f7573657220616c72656164792073756273637269626564000000000000000000600082015250565b6000613f78601783612eae565b9150613f8382613f42565b602082019050919050565b60006020820190508181036000830152613fa781613f6b565b9050919050565b7f4f776e61626c653a206e6577206f776e657220697320746865207a65726f206160008201527f6464726573730000000000000000000000000000000000000000000000000000602082015250565b600061400a602683612eae565b915061401582613fae565b604082019050919050565b6000602082019050818103600083015261403981613ffd565b9050919050565b7f4f776e61626c653a2063616c6c6572206973206e6f7420746865206f776e6572600082015250565b6000614076602083612eae565b915061408182614040565b602082019050919050565b600060208201905081810360008301526140a581614069565b9050919050565b7f4e487b7100000000000000000000000000000000000000000000000000000000600052601260045260246000fd5b7f4552433732313a207472616e7366657220746f206e6f6e20455243373231526560008201527f63656976657220696d706c656d656e7465720000000000000000000000000000602082015250565b6000614137603283612eae565b9150614142826140db565b604082019050919050565b600060208201905081810360008301526141668161412a565b9050919050565b7f4552433732313a206d696e7420746f20746865207a65726f2061646472657373600082015250565b60006141a3602083612eae565b91506141ae8261416d565b602082019050919050565b600060208201905081810360008301526141d281614196565b9050919050565b7f4552433732313a20746f6b656e20616c7265616479206d696e74656400000000600082015250565b600061420f601c83612eae565b915061421a826141d9565b602082019050919050565b6000602082019050818103600083015261423e81614202565b9050919050565b600081519050919050565b600082825260208201905092915050565b600061426c82614245565b6142768185614250565b9350614286818560208601612ebf565b61428f81612ee9565b840191505092915050565b60006080820190506142af6000830187612fe0565b6142bc6020830186612fe0565b6142c96040830185612daa565b81810360608301526142db8184614261565b905095945050505050565b6000815190506142f581612e14565b92915050565b60006020828403121561431157614310612dde565b5b600061431f848285016142e6565b9150509291505056fea26469706673582212206933f2a5cff111451aa64cb43976bda53696a6a042f80f191264dbfdaf8cf3f164736f6c63430008120033a2646970667358221220ef741a01726dfba27d23153d45671a71a43827fdcf4e5e298c43d3f6ee2643de64736f6c63430008120033",
  "devdoc": {
    "kind": "dev",
    "methods": {},
    "version": 1
  },
  "userdoc": {
    "kind": "user",
    "methods": {},
    "version": 1
  },
  "storageLayout": {
    "storage": [
      {
        "astId": 2636,
        "contract": "contracts/UserFactory.sol:UserFactory",
        "label": "createdProfiles",
        "offset": 0,
        "slot": "0",
        "type": "t_array(t_address)dyn_storage"
      },
      {
        "astId": 2640,
        "contract": "contracts/UserFactory.sol:UserFactory",
        "label": "userProfile",
        "offset": 0,
        "slot": "1",
        "type": "t_mapping(t_string_memory_ptr,t_address)"
      },
      {
        "astId": 2644,
        "contract": "contracts/UserFactory.sol:UserFactory",
        "label": "creatorContract",
        "offset": 0,
        "slot": "2",
        "type": "t_mapping(t_address,t_address)"
      },
      {
        "astId": 2646,
        "contract": "contracts/UserFactory.sol:UserFactory",
        "label": "admin",
        "offset": 0,
        "slot": "3",
        "type": "t_address"
      }
    ],
    "types": {
      "t_address": {
        "encoding": "inplace",
        "label": "address",
        "numberOfBytes": "20"
      },
      "t_array(t_address)dyn_storage": {
        "base": "t_address",
        "encoding": "dynamic_array",
        "label": "address[]",
        "numberOfBytes": "32"
      },
      "t_mapping(t_address,t_address)": {
        "encoding": "mapping",
        "key": "t_address",
        "label": "mapping(address => address)",
        "numberOfBytes": "32",
        "value": "t_address"
      },
      "t_mapping(t_string_memory_ptr,t_address)": {
        "encoding": "mapping",
        "key": "t_string_memory_ptr",
        "label": "mapping(string => address)",
        "numberOfBytes": "32",
        "value": "t_address"
      },
      "t_string_memory_ptr": {
        "encoding": "bytes",
        "label": "string",
        "numberOfBytes": "32"
      }
    }
  }
}