{
  "address": "0xC1b59D145c9e7e90D459Ed22d9fbCF97eb317066",
  "abi": [
    {
      "inputs": [],
      "stateMutability": "nonpayable",
      "type": "constructor"
    },
    {
      "inputs": [],
      "name": "admin",
      "outputs": [
        {
          "internalType": "address",
          "name": "",
          "type": "address"
        }
      ],
      "stateMutability": "view",
      "type": "function"
    },
    {
      "inputs": [
        {
          "internalType": "string",
          "name": "_tokenName",
          "type": "string"
        },
        {
          "internalType": "string",
          "name": "_tokenSymbol",
          "type": "string"
        },
        {
          "internalType": "string",
          "name": "_name",
          "type": "string"
        },
        {
          "internalType": "string",
          "name": "_description",
          "type": "string"
        },
        {
          "internalType": "uint256",
          "name": "_subscriptionAmount",
          "type": "uint256"
        }
      ],
      "name": "createProfile",
      "outputs": [],
      "stateMutability": "nonpayable",
      "type": "function"
    },
    {
      "inputs": [
        {
          "internalType": "uint256",
          "name": "",
          "type": "uint256"
        }
      ],
      "name": "createdProfiles",
      "outputs": [
        {
          "internalType": "address",
          "name": "",
          "type": "address"
        }
      ],
      "stateMutability": "view",
      "type": "function"
    },
    {
      "inputs": [],
      "name": "getAllCreators",
      "outputs": [
        {
          "internalType": "address[]",
          "name": "",
          "type": "address[]"
        }
      ],
      "stateMutability": "view",
      "type": "function"
    },
    {
      "inputs": [
        {
          "internalType": "string",
          "name": "",
          "type": "string"
        }
      ],
      "name": "userProfile",
      "outputs": [
        {
          "internalType": "address",
          "name": "",
          "type": "address"
        }
      ],
      "stateMutability": "view",
      "type": "function"
    },
    {
      "inputs": [],
      "name": "working",
      "outputs": [
        {
          "internalType": "string",
          "name": "",
          "type": "string"
        }
      ],
      "stateMutability": "pure",
      "type": "function"
    }
  ],
  "transactionHash": "0x245d045dbd2fecc1004cad0dbc86f66597253d53813034e086462f7fbf273793",
  "args": [],
  "numDeployments": 3,
  "solcInputHash": "cef4e4ddaec4e68535a9feb9d5d5493d",
  "bytecode": "0x608060405234801561001057600080fd5b5033600260006101000a81548173ffffffffffffffffffffffffffffffffffffffff021916908373ffffffffffffffffffffffffffffffffffffffff160217905550615137806100616000396000f3fe60806040523480156200001157600080fd5b50600436106200006a5760003560e01c80637cfe4053146200006f5780639f08a68c146200008f578063c2d8e1ad14620000b1578063f193e1a514620000e7578063f851a440146200011d578063f97fac4d146200013f575b600080fd5b6200008d600480360381019062000087919062000633565b62000161565b005b62000099620002f8565b604051620000a89190620007c0565b60405180910390f35b620000cf6004803603810190620000c99190620007e4565b62000335565b604051620000de91906200087a565b60405180910390f35b620001056004803603810190620000ff919062000897565b6200037e565b6040516200011491906200087a565b60405180910390f35b62000127620003be565b6040516200013691906200087a565b60405180910390f35b62000149620003e4565b60405162000158919062000997565b60405180910390f35b6000600184604051620001759190620009fd565b908152602001604051809103902060009054906101000a900473ffffffffffffffffffffffffffffffffffffffff169050600073ffffffffffffffffffffffffffffffffffffffff168173ffffffffffffffffffffffffffffffffffffffff1614620001e057600080fd5b6000868633878787604051620001f69062000474565b620002079695949392919062000a27565b604051809103906000f08015801562000224573d6000803e3d6000fd5b50905060008190506000819080600181540180825580915050600190039060005260206000200160009091909190916101000a81548173ffffffffffffffffffffffffffffffffffffffff021916908373ffffffffffffffffffffffffffffffffffffffff16021790555080600187604051620002a29190620009fd565b908152602001604051809103902060006101000a81548173ffffffffffffffffffffffffffffffffffffffff021916908373ffffffffffffffffffffffffffffffffffffffff1602179055505050505050505050565b60606040518060400160405280601a81526020017f79657320736d617274636f6e7472616374206465706c6f796564000000000000815250905090565b6001818051602081018201805184825260208301602085012081835280955050505050506000915054906101000a900473ffffffffffffffffffffffffffffffffffffffff1681565b600081815481106200038f57600080fd5b906000526020600020016000915054906101000a900473ffffffffffffffffffffffffffffffffffffffff1681565b600260009054906101000a900473ffffffffffffffffffffffffffffffffffffffff1681565b606060008054806020026020016040519081016040528092919081815260200182805480156200046a57602002820191906000526020600020905b8160009054906101000a900473ffffffffffffffffffffffffffffffffffffffff1673ffffffffffffffffffffffffffffffffffffffff16815260200190600101908083116200041f575b5050505050905090565b6146518062000ab183390190565b6000604051905090565b600080fd5b600080fd5b600080fd5b600080fd5b6000601f19601f8301169050919050565b7f4e487b7100000000000000000000000000000000000000000000000000000000600052604160045260246000fd5b620004eb82620004a0565b810181811067ffffffffffffffff821117156200050d576200050c620004b1565b5b80604052505050565b60006200052262000482565b9050620005308282620004e0565b919050565b600067ffffffffffffffff821115620005535762000552620004b1565b5b6200055e82620004a0565b9050602081019050919050565b82818337600083830152505050565b6000620005916200058b8462000535565b62000516565b905082815260208101848484011115620005b057620005af6200049b565b5b620005bd8482856200056b565b509392505050565b600082601f830112620005dd57620005dc62000496565b5b8135620005ef8482602086016200057a565b91505092915050565b6000819050919050565b6200060d81620005f8565b81146200061957600080fd5b50565b6000813590506200062d8162000602565b92915050565b600080600080600060a086880312156200065257620006516200048c565b5b600086013567ffffffffffffffff81111562000673576200067262000491565b5b6200068188828901620005c5565b955050602086013567ffffffffffffffff811115620006a557620006a462000491565b5b620006b388828901620005c5565b945050604086013567ffffffffffffffff811115620006d757620006d662000491565b5b620006e588828901620005c5565b935050606086013567ffffffffffffffff81111562000709576200070862000491565b5b6200071788828901620005c5565b92505060806200072a888289016200061c565b9150509295509295909350565b600081519050919050565b600082825260208201905092915050565b60005b838110156200077357808201518184015260208101905062000756565b60008484015250505050565b60006200078c8262000737565b62000798818562000742565b9350620007aa81856020860162000753565b620007b581620004a0565b840191505092915050565b60006020820190508181036000830152620007dc81846200077f565b905092915050565b600060208284031215620007fd57620007fc6200048c565b5b600082013567ffffffffffffffff8111156200081e576200081d62000491565b5b6200082c84828501620005c5565b91505092915050565b600073ffffffffffffffffffffffffffffffffffffffff82169050919050565b6000620008628262000835565b9050919050565b620008748162000855565b82525050565b600060208201905062000891600083018462000869565b92915050565b600060208284031215620008b057620008af6200048c565b5b6000620008c0848285016200061c565b91505092915050565b600081519050919050565b600082825260208201905092915050565b6000819050602082019050919050565b620009008162000855565b82525050565b6000620009148383620008f5565b60208301905092915050565b6000602082019050919050565b60006200093a82620008c9565b620009468185620008d4565b93506200095383620008e5565b8060005b838110156200098a5781516200096e888262000906565b97506200097b8362000920565b92505060018101905062000957565b5085935050505092915050565b60006020820190508181036000830152620009b381846200092d565b905092915050565b600081905092915050565b6000620009d38262000737565b620009df8185620009bb565b9350620009f181856020860162000753565b80840191505092915050565b600062000a0b8284620009c6565b915081905092915050565b62000a2181620005f8565b82525050565b600060c082019050818103600083015262000a4381896200077f565b9050818103602083015262000a5981886200077f565b905062000a6a604083018762000869565b818103606083015262000a7e81866200077f565b9050818103608083015262000a9481856200077f565b905062000aa560a083018462000a16565b97965050505050505056fe60806040523480156200001157600080fd5b5060405162004651380380620046518339818101604052810190620000379190620003d8565b858581600090816200004a919062000731565b5080600190816200005c919062000731565b5050506200007f62000073620000d760201b60201c565b620000df60201b60201c565b6200009084620000df60201b60201c565b8260079081620000a1919062000731565b508160089081620000b3919062000731565b50620f424081620000c5919062000847565b600b8190555050505050505062000892565b600033905090565b6000600660009054906101000a900473ffffffffffffffffffffffffffffffffffffffff16905081600660006101000a81548173ffffffffffffffffffffffffffffffffffffffff021916908373ffffffffffffffffffffffffffffffffffffffff1602179055508173ffffffffffffffffffffffffffffffffffffffff168173ffffffffffffffffffffffffffffffffffffffff167f8be0079c531659141344cd1fd0a4f28419497f9722a3daafe3b4186f6b6457e060405160405180910390a35050565b6000604051905090565b600080fd5b600080fd5b600080fd5b600080fd5b6000601f19601f8301169050919050565b7f4e487b7100000000000000000000000000000000000000000000000000000000600052604160045260246000fd5b6200020e82620001c3565b810181811067ffffffffffffffff8211171562000230576200022f620001d4565b5b80604052505050565b600062000245620001a5565b905062000253828262000203565b919050565b600067ffffffffffffffff821115620002765762000275620001d4565b5b6200028182620001c3565b9050602081019050919050565b60005b83811015620002ae57808201518184015260208101905062000291565b60008484015250505050565b6000620002d1620002cb8462000258565b62000239565b905082815260208101848484011115620002f057620002ef620001be565b5b620002fd8482856200028e565b509392505050565b600082601f8301126200031d576200031c620001b9565b5b81516200032f848260208601620002ba565b91505092915050565b600073ffffffffffffffffffffffffffffffffffffffff82169050919050565b6000620003658262000338565b9050919050565b620003778162000358565b81146200038357600080fd5b50565b60008151905062000397816200036c565b92915050565b6000819050919050565b620003b2816200039d565b8114620003be57600080fd5b50565b600081519050620003d281620003a7565b92915050565b60008060008060008060c08789031215620003f857620003f7620001af565b5b600087015167ffffffffffffffff811115620004195762000418620001b4565b5b6200042789828a0162000305565b965050602087015167ffffffffffffffff8111156200044b576200044a620001b4565b5b6200045989828a0162000305565b95505060406200046c89828a0162000386565b945050606087015167ffffffffffffffff81111562000490576200048f620001b4565b5b6200049e89828a0162000305565b935050608087015167ffffffffffffffff811115620004c257620004c1620001b4565b5b620004d089828a0162000305565b92505060a0620004e389828a01620003c1565b9150509295509295509295565b600081519050919050565b7f4e487b7100000000000000000000000000000000000000000000000000000000600052602260045260246000fd5b600060028204905060018216806200054357607f821691505b602082108103620005595762000558620004fb565b5b50919050565b60008190508160005260206000209050919050565b60006020601f8301049050919050565b600082821b905092915050565b600060088302620005c37fffffffffffffffffffffffffffffffffffffffffffffffffffffffffffffffff8262000584565b620005cf868362000584565b95508019841693508086168417925050509392505050565b6000819050919050565b6000620006126200060c62000606846200039d565b620005e7565b6200039d565b9050919050565b6000819050919050565b6200062e83620005f1565b620006466200063d8262000619565b84845462000591565b825550505050565b600090565b6200065d6200064e565b6200066a81848462000623565b505050565b5b8181101562000692576200068660008262000653565b60018101905062000670565b5050565b601f821115620006e157620006ab816200055f565b620006b68462000574565b81016020851015620006c6578190505b620006de620006d58562000574565b8301826200066f565b50505b505050565b600082821c905092915050565b60006200070660001984600802620006e6565b1980831691505092915050565b6000620007218383620006f3565b9150826002028217905092915050565b6200073c82620004f0565b67ffffffffffffffff811115620007585762000757620001d4565b5b6200076482546200052a565b6200077182828562000696565b600060209050601f831160018114620007a9576000841562000794578287015190505b620007a0858262000713565b86555062000810565b601f198416620007b9866200055f565b60005b82811015620007e357848901518255600182019150602085019450602081019050620007bc565b86831015620008035784890151620007ff601f891682620006f3565b8355505b6001600288020188555050505b505050505050565b7f4e487b7100000000000000000000000000000000000000000000000000000000600052601160045260246000fd5b600062000854826200039d565b915062000861836200039d565b925082820262000871816200039d565b915082820484148315176200088b576200088a62000818565b5b5092915050565b613daf80620008a26000396000f3fe6080604052600436106101ed5760003560e01c80637235d7d91161010d578063b1d14068116100a0578063c707944b1161006f578063c707944b146106c1578063c87b56dd146106ec578063e985e9c514610729578063ed88c68e14610766578063f2fde38b14610770576101ed565b8063b1d1406814610617578063b88d4fde14610642578063c5da76041461066b578063c603ffe114610696576101ed565b806395d89b41116100dc57806395d89b411461058e578063a22cb465146105b9578063a3e39811146105e2578063a7bd9d5f1461060d576101ed565b80637235d7d9146104cd5780638356c1e11461050a578063863678e91461053a5780638da5cb5b14610563576101ed565b80632a83556711610185578063534844a211610154578063534844a2146104255780636352211e1461043c57806370a0823114610479578063715018a6146104b6576101ed565b80632a8355671461037f5780632ae25fd2146103a85780632dc282e9146103d157806342842e0e146103fc576101ed565b8063095ea7b3116101c1578063095ea7b3146102c25780631dbe69d4146102eb57806323b872dd1461031657806327e25dcc1461033f576101ed565b8062b37044146101f257806301ffc9a71461021d57806306fdde031461025a578063081812fc14610285575b600080fd5b3480156101fe57600080fd5b50610207610799565b60405161021491906127f7565b60405180910390f35b34801561022957600080fd5b50610244600480360381019061023f919061287e565b61079f565b60405161025191906128c6565b60405180910390f35b34801561026657600080fd5b5061026f610881565b60405161027c9190612971565b60405180910390f35b34801561029157600080fd5b506102ac60048036038101906102a791906129bf565b610913565b6040516102b99190612a2d565b60405180910390f35b3480156102ce57600080fd5b506102e960048036038101906102e49190612a74565b610959565b005b3480156102f757600080fd5b50610300610a70565b60405161030d9190612c40565b60405180910390f35b34801561032257600080fd5b5061033d60048036038101906103389190612c62565b610ca0565b005b34801561034b57600080fd5b50610366600480360381019061036191906129bf565b610d00565b6040516103769493929190612cb5565b60405180910390f35b34801561038b57600080fd5b506103a660048036038101906103a19190612e44565b610ee5565b005b3480156103b457600080fd5b506103cf60048036038101906103ca9190612eeb565b61100f565b005b3480156103dd57600080fd5b506103e6611095565b6040516103f391906127f7565b60405180910390f35b34801561040857600080fd5b50610423600480360381019061041e9190612c62565b61109b565b005b34801561043157600080fd5b5061043a6110bb565b005b34801561044857600080fd5b50610463600480360381019061045e91906129bf565b611123565b6040516104709190612a2d565b60405180910390f35b34801561048557600080fd5b506104a0600480360381019061049b9190612f34565b6111a9565b6040516104ad91906127f7565b60405180910390f35b3480156104c257600080fd5b506104cb611260565b005b3480156104d957600080fd5b506104f460048036038101906104ef9190612eeb565b611274565b60405161050191906127f7565b60405180910390f35b34801561051657600080fd5b5061051f6112a2565b60405161053196959493929190612f61565b60405180910390f35b34801561054657600080fd5b50610561600480360381019061055c9190612eeb565b6113e7565b005b34801561056f57600080fd5b5061057861146d565b6040516105859190612a2d565b60405180910390f35b34801561059a57600080fd5b506105a3611497565b6040516105b09190612971565b60405180910390f35b3480156105c557600080fd5b506105e060048036038101906105db9190612ffc565b611529565b005b3480156105ee57600080fd5b506105f761153f565b6040516106049190612971565b60405180910390f35b6106156115cd565b005b34801561062357600080fd5b5061062c611617565b60405161063991906127f7565b60405180910390f35b34801561064e57600080fd5b50610669600480360381019061066491906130dd565b61161d565b005b34801561067757600080fd5b5061068061167f565b60405161068d9190612971565b60405180910390f35b3480156106a257600080fd5b506106ab61170d565b6040516106b891906127f7565b60405180910390f35b3480156106cd57600080fd5b506106d6611713565b6040516106e391906127f7565b60405180910390f35b3480156106f857600080fd5b50610713600480360381019061070e91906129bf565b611719565b6040516107209190612971565b60405180910390f35b34801561073557600080fd5b50610750600480360381019061074b9190613160565b611781565b60405161075d91906128c6565b60405180910390f35b61076e611815565b005b34801561077c57600080fd5b5061079760048036038101906107929190612f34565b611849565b005b600f5481565b60007f80ac58cd000000000000000000000000000000000000000000000000000000007bffffffffffffffffffffffffffffffffffffffffffffffffffffffff1916827bffffffffffffffffffffffffffffffffffffffffffffffffffffffff1916148061086a57507f5b5e139f000000000000000000000000000000000000000000000000000000007bffffffffffffffffffffffffffffffffffffffffffffffffffffffff1916827bffffffffffffffffffffffffffffffffffffffffffffffffffffffff1916145b8061087a5750610879826118cc565b5b9050919050565b606060008054610890906131cf565b80601f01602080910402602001604051908101604052809291908181526020018280546108bc906131cf565b80156109095780601f106108de57610100808354040283529160200191610909565b820191906000526020600020905b8154815290600101906020018083116108ec57829003601f168201915b5050505050905090565b600061091e82611936565b6004600083815260200190815260200160002060009054906101000a900473ffffffffffffffffffffffffffffffffffffffff169050919050565b600061096482611123565b90508073ffffffffffffffffffffffffffffffffffffffff168373ffffffffffffffffffffffffffffffffffffffff16036109d4576040517f08c379a00000000000000000000000000000000000000000000000000000000081526004016109cb90613272565b60405180910390fd5b8073ffffffffffffffffffffffffffffffffffffffff166109f3611981565b73ffffffffffffffffffffffffffffffffffffffff161480610a225750610a2181610a1c611981565b611781565b5b610a61576040517f08c379a0000000000000000000000000000000000000000000000000000000008152600401610a5890613304565b60405180910390fd5b610a6b8383611989565b505050565b6060600c805480602002602001604051908101604052809291908181526020016000905b82821015610c975783829060005260206000209060040201604051806080016040529081600082018054610ac7906131cf565b80601f0160208091040260200160405190810160405280929190818152602001828054610af3906131cf565b8015610b405780601f10610b1557610100808354040283529160200191610b40565b820191906000526020600020905b815481529060010190602001808311610b2357829003601f168201915b50505050508152602001600182018054610b59906131cf565b80601f0160208091040260200160405190810160405280929190818152602001828054610b85906131cf565b8015610bd25780601f10610ba757610100808354040283529160200191610bd2565b820191906000526020600020905b815481529060010190602001808311610bb557829003601f168201915b50505050508152602001600282018054610beb906131cf565b80601f0160208091040260200160405190810160405280929190818152602001828054610c17906131cf565b8015610c645780601f10610c3957610100808354040283529160200191610c64565b820191906000526020600020905b815481529060010190602001808311610c4757829003601f168201915b505050505081526020016003820160009054906101000a900460ff16151515158152505081526020019060010190610a94565b50505050905090565b610cb1610cab611981565b82611a42565b610cf0576040517f08c379a0000000000000000000000000000000000000000000000000000000008152600401610ce790613396565b60405180910390fd5b610cfb838383611ad7565b505050565b600c8181548110610d1057600080fd5b9060005260206000209060040201600091509050806000018054610d33906131cf565b80601f0160208091040260200160405190810160405280929190818152602001828054610d5f906131cf565b8015610dac5780601f10610d8157610100808354040283529160200191610dac565b820191906000526020600020905b815481529060010190602001808311610d8f57829003601f168201915b505050505090806001018054610dc1906131cf565b80601f0160208091040260200160405190810160405280929190818152602001828054610ded906131cf565b8015610e3a5780601f10610e0f57610100808354040283529160200191610e3a565b820191906000526020600020905b815481529060010190602001808311610e1d57829003601f168201915b505050505090806002018054610e4f906131cf565b80601f0160208091040260200160405190810160405280929190818152602001828054610e7b906131cf565b8015610ec85780601f10610e9d57610100808354040283529160200191610ec8565b820191906000526020600020905b815481529060010190602001808311610eab57829003601f168201915b5050505050908060030160009054906101000a900460ff16905084565b610eed611dd0565b6000600d83604051610eff91906133f2565b90815260200160405180910390205414610f1857600080fd5b6001600a6000828254610f2b9190613438565b92505081905550600a54600d83604051610f4591906133f2565b908152602001604051809103902081905550600c60405180608001604052808581526020018481526020018381526020016000151581525090806001815401808255809150506001900390600052602060002090600402016000909190919091506000820151816000019081610fbb9190613618565b506020820151816001019081610fd19190613618565b506040820151816002019081610fe79190613618565b5060608201518160030160006101000a81548160ff0219169083151502179055505050505050565b611017611dd0565b6000600d8260405161102991906133f2565b90815260200160405180910390205490506000811161104757600080fd5b6000600c60018361105891906136ea565b815481106110695761106861371e565b5b906000526020600020906004020160030160006101000a81548160ff0219169083151502179055505050565b600a5481565b6110b68383836040518060200160405280600081525061161d565b505050565b6110c3611dd0565b60006110cd61146d565b90508073ffffffffffffffffffffffffffffffffffffffff166108fc600e549081150290604051600060405180830381858888f19350505050158015611117573d6000803e3d6000fd5b506000600e8190555050565b60008061112f83611e4e565b9050600073ffffffffffffffffffffffffffffffffffffffff168173ffffffffffffffffffffffffffffffffffffffff16036111a0576040517f08c379a000000000000000000000000000000000000000000000000000000000815260040161119790613799565b60405180910390fd5b80915050919050565b60008073ffffffffffffffffffffffffffffffffffffffff168273ffffffffffffffffffffffffffffffffffffffff1603611219576040517f08c379a00000000000000000000000000000000000000000000000000000000081526004016112109061382b565b60405180910390fd5b600360008373ffffffffffffffffffffffffffffffffffffffff1673ffffffffffffffffffffffffffffffffffffffff168152602001908152602001600020549050919050565b611268611dd0565b6112726000611e8b565b565b600d818051602081018201805184825260208301602085012081835280955050505050506000915090505481565b60608060008060008060076008600954600a54600b54600e548580546112c7906131cf565b80601f01602080910402602001604051908101604052809291908181526020018280546112f3906131cf565b80156113405780601f1061131557610100808354040283529160200191611340565b820191906000526020600020905b81548152906001019060200180831161132357829003601f168201915b50505050509550848054611353906131cf565b80601f016020809104026020016040519081016040528092919081815260200182805461137f906131cf565b80156113cc5780601f106113a1576101008083540402835291602001916113cc565b820191906000526020600020905b8154815290600101906020018083116113af57829003601f168201915b50505050509450955095509550955095509550909192939495565b6113ef611dd0565b6000600d8260405161140191906133f2565b90815260200160405180910390205490506000811161141f57600080fd5b6001600c60018361143091906136ea565b815481106114415761144061371e565b5b906000526020600020906004020160030160006101000a81548160ff0219169083151502179055505050565b6000600660009054906101000a900473ffffffffffffffffffffffffffffffffffffffff16905090565b6060600180546114a6906131cf565b80601f01602080910402602001604051908101604052809291908181526020018280546114d2906131cf565b801561151f5780601f106114f45761010080835404028352916020019161151f565b820191906000526020600020905b81548152906001019060200180831161150257829003601f168201915b5050505050905090565b61153b611534611981565b8383611f51565b5050565b6008805461154c906131cf565b80601f0160208091040260200160405190810160405280929190818152602001828054611578906131cf565b80156115c55780601f1061159a576101008083540402835291602001916115c5565b820191906000526020600020905b8154815290600101906020018083116115a857829003601f168201915b505050505081565b600b5434116115db57600080fd5b60016009546115ea9190613438565b6009819055506115fc336009546120bd565b34600e600082825461160e9190613438565b92505081905550565b600e5481565b61162e611628611981565b83611a42565b61166d576040517f08c379a000000000000000000000000000000000000000000000000000000000815260040161166490613396565b60405180910390fd5b611679848484846120db565b50505050565b6007805461168c906131cf565b80601f01602080910402602001604051908101604052809291908181526020018280546116b8906131cf565b80156117055780601f106116da57610100808354040283529160200191611705565b820191906000526020600020905b8154815290600101906020018083116116e857829003601f168201915b505050505081565b600b5481565b60095481565b606061172482611936565b600061172e612137565b9050600081511161174e5760405180602001604052806000815250611779565b806117588461214e565b60405160200161176992919061384b565b6040516020818303038152906040525b915050919050565b6000600560008473ffffffffffffffffffffffffffffffffffffffff1673ffffffffffffffffffffffffffffffffffffffff16815260200190815260200160002060008373ffffffffffffffffffffffffffffffffffffffff1673ffffffffffffffffffffffffffffffffffffffff16815260200190815260200160002060009054906101000a900460ff16905092915050565b34600e60008282546118279190613438565b9250508190555034600f60008282546118409190613438565b92505081905550565b611851611dd0565b600073ffffffffffffffffffffffffffffffffffffffff168173ffffffffffffffffffffffffffffffffffffffff16036118c0576040517f08c379a00000000000000000000000000000000000000000000000000000000081526004016118b7906138e1565b60405180910390fd5b6118c981611e8b565b50565b60007f01ffc9a7000000000000000000000000000000000000000000000000000000007bffffffffffffffffffffffffffffffffffffffffffffffffffffffff1916827bffffffffffffffffffffffffffffffffffffffffffffffffffffffff1916149050919050565b61193f8161221c565b61197e576040517f08c379a000000000000000000000000000000000000000000000000000000000815260040161197590613799565b60405180910390fd5b50565b600033905090565b816004600083815260200190815260200160002060006101000a81548173ffffffffffffffffffffffffffffffffffffffff021916908373ffffffffffffffffffffffffffffffffffffffff160217905550808273ffffffffffffffffffffffffffffffffffffffff166119fc83611123565b73ffffffffffffffffffffffffffffffffffffffff167f8c5be1e5ebec7d5bd14f71427d1e84f3dd0314c0f7b2291e5b200ac8c7c3b92560405160405180910390a45050565b600080611a4e83611123565b90508073ffffffffffffffffffffffffffffffffffffffff168473ffffffffffffffffffffffffffffffffffffffff161480611a905750611a8f8185611781565b5b80611ace57508373ffffffffffffffffffffffffffffffffffffffff16611ab684610913565b73ffffffffffffffffffffffffffffffffffffffff16145b91505092915050565b8273ffffffffffffffffffffffffffffffffffffffff16611af782611123565b73ffffffffffffffffffffffffffffffffffffffff1614611b4d576040517f08c379a0000000000000000000000000000000000000000000000000000000008152600401611b4490613973565b60405180910390fd5b600073ffffffffffffffffffffffffffffffffffffffff168273ffffffffffffffffffffffffffffffffffffffff1603611bbc576040517f08c379a0000000000000000000000000000000000000000000000000000000008152600401611bb390613a05565b60405180910390fd5b611bc9838383600161225d565b8273ffffffffffffffffffffffffffffffffffffffff16611be982611123565b73ffffffffffffffffffffffffffffffffffffffff1614611c3f576040517f08c379a0000000000000000000000000000000000000000000000000000000008152600401611c3690613973565b60405180910390fd5b6004600082815260200190815260200160002060006101000a81549073ffffffffffffffffffffffffffffffffffffffff02191690556001600360008573ffffffffffffffffffffffffffffffffffffffff1673ffffffffffffffffffffffffffffffffffffffff168152602001908152602001600020600082825403925050819055506001600360008473ffffffffffffffffffffffffffffffffffffffff1673ffffffffffffffffffffffffffffffffffffffff16815260200190815260200160002060008282540192505081905550816002600083815260200190815260200160002060006101000a81548173ffffffffffffffffffffffffffffffffffffffff021916908373ffffffffffffffffffffffffffffffffffffffff160217905550808273ffffffffffffffffffffffffffffffffffffffff168473ffffffffffffffffffffffffffffffffffffffff167fddf252ad1be2c89b69c2b068fc378daa952ba7f163c4a11628f55a4df523b3ef60405160405180910390a4611dcb8383836001612263565b505050565b611dd8611981565b73ffffffffffffffffffffffffffffffffffffffff16611df661146d565b73ffffffffffffffffffffffffffffffffffffffff1614611e4c576040517f08c379a0000000000000000000000000000000000000000000000000000000008152600401611e4390613a71565b60405180910390fd5b565b60006002600083815260200190815260200160002060009054906101000a900473ffffffffffffffffffffffffffffffffffffffff169050919050565b6000600660009054906101000a900473ffffffffffffffffffffffffffffffffffffffff16905081600660006101000a81548173ffffffffffffffffffffffffffffffffffffffff021916908373ffffffffffffffffffffffffffffffffffffffff1602179055508173ffffffffffffffffffffffffffffffffffffffff168173ffffffffffffffffffffffffffffffffffffffff167f8be0079c531659141344cd1fd0a4f28419497f9722a3daafe3b4186f6b6457e060405160405180910390a35050565b8173ffffffffffffffffffffffffffffffffffffffff168373ffffffffffffffffffffffffffffffffffffffff1603611fbf576040517f08c379a0000000000000000000000000000000000000000000000000000000008152600401611fb690613add565b60405180910390fd5b80600560008573ffffffffffffffffffffffffffffffffffffffff1673ffffffffffffffffffffffffffffffffffffffff16815260200190815260200160002060008473ffffffffffffffffffffffffffffffffffffffff1673ffffffffffffffffffffffffffffffffffffffff16815260200190815260200160002060006101000a81548160ff0219169083151502179055508173ffffffffffffffffffffffffffffffffffffffff168373ffffffffffffffffffffffffffffffffffffffff167f17307eab39ab6107e8899845ad3d59bd9653f200f220920489ca2b5937696c31836040516120b091906128c6565b60405180910390a3505050565b6120d7828260405180602001604052806000815250612269565b5050565b6120e6848484611ad7565b6120f2848484846122c4565b612131576040517f08c379a000000000000000000000000000000000000000000000000000000000815260040161212890613b6f565b60405180910390fd5b50505050565b606060405180602001604052806000815250905090565b60606000600161215d8461244b565b01905060008167ffffffffffffffff81111561217c5761217b612d19565b5b6040519080825280601f01601f1916602001820160405280156121ae5781602001600182028036833780820191505090505b509050600082602001820190505b600115612211578080600190039150507f3031323334353637383961626364656600000000000000000000000000000000600a86061a8153600a858161220557612204613b8f565b5b049450600085036121bc575b819350505050919050565b60008073ffffffffffffffffffffffffffffffffffffffff1661223e83611e4e565b73ffffffffffffffffffffffffffffffffffffffff1614159050919050565b50505050565b50505050565b612273838361259e565b61228060008484846122c4565b6122bf576040517f08c379a00000000000000000000000000000000000000000000000000000000081526004016122b690613b6f565b60405180910390fd5b505050565b60006122e58473ffffffffffffffffffffffffffffffffffffffff166127bb565b1561243e578373ffffffffffffffffffffffffffffffffffffffff1663150b7a0261230e611981565b8786866040518563ffffffff1660e01b81526004016123309493929190613c13565b6020604051808303816000875af192505050801561236c57506040513d601f19601f820116820180604052508101906123699190613c74565b60015b6123ee573d806000811461239c576040519150601f19603f3d011682016040523d82523d6000602084013e6123a1565b606091505b5060008151036123e6576040517f08c379a00000000000000000000000000000000000000000000000000000000081526004016123dd90613b6f565b60405180910390fd5b805181602001fd5b63150b7a0260e01b7bffffffffffffffffffffffffffffffffffffffffffffffffffffffff1916817bffffffffffffffffffffffffffffffffffffffffffffffffffffffff191614915050612443565b600190505b949350505050565b600080600090507a184f03e93ff9f4daa797ed6e38ed64bf6a1f01000000000000000083106124a9577a184f03e93ff9f4daa797ed6e38ed64bf6a1f010000000000000000838161249f5761249e613b8f565b5b0492506040810190505b6d04ee2d6d415b85acef810000000083106124e6576d04ee2d6d415b85acef810000000083816124dc576124db613b8f565b5b0492506020810190505b662386f26fc10000831061251557662386f26fc10000838161250b5761250a613b8f565b5b0492506010810190505b6305f5e100831061253e576305f5e100838161253457612533613b8f565b5b0492506008810190505b612710831061256357612710838161255957612558613b8f565b5b0492506004810190505b60648310612586576064838161257c5761257b613b8f565b5b0492506002810190505b600a8310612595576001810190505b80915050919050565b600073ffffffffffffffffffffffffffffffffffffffff168273ffffffffffffffffffffffffffffffffffffffff160361260d576040517f08c379a000000000000000000000000000000000000000000000000000000000815260040161260490613ced565b60405180910390fd5b6126168161221c565b15612656576040517f08c379a000000000000000000000000000000000000000000000000000000000815260040161264d90613d59565b60405180910390fd5b61266460008383600161225d565b61266d8161221c565b156126ad576040517f08c379a00000000000000000000000000000000000000000000000000000000081526004016126a490613d59565b60405180910390fd5b6001600360008473ffffffffffffffffffffffffffffffffffffffff1673ffffffffffffffffffffffffffffffffffffffff16815260200190815260200160002060008282540192505081905550816002600083815260200190815260200160002060006101000a81548173ffffffffffffffffffffffffffffffffffffffff021916908373ffffffffffffffffffffffffffffffffffffffff160217905550808273ffffffffffffffffffffffffffffffffffffffff16600073ffffffffffffffffffffffffffffffffffffffff167fddf252ad1be2c89b69c2b068fc378daa952ba7f163c4a11628f55a4df523b3ef60405160405180910390a46127b7600083836001612263565b5050565b6000808273ffffffffffffffffffffffffffffffffffffffff163b119050919050565b6000819050919050565b6127f1816127de565b82525050565b600060208201905061280c60008301846127e8565b92915050565b6000604051905090565b600080fd5b600080fd5b60007fffffffff0000000000000000000000000000000000000000000000000000000082169050919050565b61285b81612826565b811461286657600080fd5b50565b60008135905061287881612852565b92915050565b6000602082840312156128945761289361281c565b5b60006128a284828501612869565b91505092915050565b60008115159050919050565b6128c0816128ab565b82525050565b60006020820190506128db60008301846128b7565b92915050565b600081519050919050565b600082825260208201905092915050565b60005b8381101561291b578082015181840152602081019050612900565b60008484015250505050565b6000601f19601f8301169050919050565b6000612943826128e1565b61294d81856128ec565b935061295d8185602086016128fd565b61296681612927565b840191505092915050565b6000602082019050818103600083015261298b8184612938565b905092915050565b61299c816127de565b81146129a757600080fd5b50565b6000813590506129b981612993565b92915050565b6000602082840312156129d5576129d461281c565b5b60006129e3848285016129aa565b91505092915050565b600073ffffffffffffffffffffffffffffffffffffffff82169050919050565b6000612a17826129ec565b9050919050565b612a2781612a0c565b82525050565b6000602082019050612a426000830184612a1e565b92915050565b612a5181612a0c565b8114612a5c57600080fd5b50565b600081359050612a6e81612a48565b92915050565b60008060408385031215612a8b57612a8a61281c565b5b6000612a9985828601612a5f565b9250506020612aaa858286016129aa565b9150509250929050565b600081519050919050565b600082825260208201905092915050565b6000819050602082019050919050565b600082825260208201905092915050565b6000612afc826128e1565b612b068185612ae0565b9350612b168185602086016128fd565b612b1f81612927565b840191505092915050565b612b33816128ab565b82525050565b60006080830160008301518482036000860152612b568282612af1565b91505060208301518482036020860152612b708282612af1565b91505060408301518482036040860152612b8a8282612af1565b9150506060830151612b9f6060860182612b2a565b508091505092915050565b6000612bb68383612b39565b905092915050565b6000602082019050919050565b6000612bd682612ab4565b612be08185612abf565b935083602082028501612bf285612ad0565b8060005b85811015612c2e5784840389528151612c0f8582612baa565b9450612c1a83612bbe565b925060208a01995050600181019050612bf6565b50829750879550505050505092915050565b60006020820190508181036000830152612c5a8184612bcb565b905092915050565b600080600060608486031215612c7b57612c7a61281c565b5b6000612c8986828701612a5f565b9350506020612c9a86828701612a5f565b9250506040612cab868287016129aa565b9150509250925092565b60006080820190508181036000830152612ccf8187612938565b90508181036020830152612ce38186612938565b90508181036040830152612cf78185612938565b9050612d0660608301846128b7565b95945050505050565b600080fd5b600080fd5b7f4e487b7100000000000000000000000000000000000000000000000000000000600052604160045260246000fd5b612d5182612927565b810181811067ffffffffffffffff82111715612d7057612d6f612d19565b5b80604052505050565b6000612d83612812565b9050612d8f8282612d48565b919050565b600067ffffffffffffffff821115612daf57612dae612d19565b5b612db882612927565b9050602081019050919050565b82818337600083830152505050565b6000612de7612de284612d94565b612d79565b905082815260208101848484011115612e0357612e02612d14565b5b612e0e848285612dc5565b509392505050565b600082601f830112612e2b57612e2a612d0f565b5b8135612e3b848260208601612dd4565b91505092915050565b600080600060608486031215612e5d57612e5c61281c565b5b600084013567ffffffffffffffff811115612e7b57612e7a612821565b5b612e8786828701612e16565b935050602084013567ffffffffffffffff811115612ea857612ea7612821565b5b612eb486828701612e16565b925050604084013567ffffffffffffffff811115612ed557612ed4612821565b5b612ee186828701612e16565b9150509250925092565b600060208284031215612f0157612f0061281c565b5b600082013567ffffffffffffffff811115612f1f57612f1e612821565b5b612f2b84828501612e16565b91505092915050565b600060208284031215612f4a57612f4961281c565b5b6000612f5884828501612a5f565b91505092915050565b600060c0820190508181036000830152612f7b8189612938565b90508181036020830152612f8f8188612938565b9050612f9e60408301876127e8565b612fab60608301866127e8565b612fb860808301856127e8565b612fc560a08301846127e8565b979650505050505050565b612fd9816128ab565b8114612fe457600080fd5b50565b600081359050612ff681612fd0565b92915050565b600080604083850312156130135761301261281c565b5b600061302185828601612a5f565b925050602061303285828601612fe7565b9150509250929050565b600067ffffffffffffffff82111561305757613056612d19565b5b61306082612927565b9050602081019050919050565b600061308061307b8461303c565b612d79565b90508281526020810184848401111561309c5761309b612d14565b5b6130a7848285612dc5565b509392505050565b600082601f8301126130c4576130c3612d0f565b5b81356130d484826020860161306d565b91505092915050565b600080600080608085870312156130f7576130f661281c565b5b600061310587828801612a5f565b945050602061311687828801612a5f565b9350506040613127878288016129aa565b925050606085013567ffffffffffffffff81111561314857613147612821565b5b613154878288016130af565b91505092959194509250565b600080604083850312156131775761317661281c565b5b600061318585828601612a5f565b925050602061319685828601612a5f565b9150509250929050565b7f4e487b7100000000000000000000000000000000000000000000000000000000600052602260045260246000fd5b600060028204905060018216806131e757607f821691505b6020821081036131fa576131f96131a0565b5b50919050565b7f4552433732313a20617070726f76616c20746f2063757272656e74206f776e6560008201527f7200000000000000000000000000000000000000000000000000000000000000602082015250565b600061325c6021836128ec565b915061326782613200565b604082019050919050565b6000602082019050818103600083015261328b8161324f565b9050919050565b7f4552433732313a20617070726f76652063616c6c6572206973206e6f7420746f60008201527f6b656e206f776e6572206f7220617070726f76656420666f7220616c6c000000602082015250565b60006132ee603d836128ec565b91506132f982613292565b604082019050919050565b6000602082019050818103600083015261331d816132e1565b9050919050565b7f4552433732313a2063616c6c6572206973206e6f7420746f6b656e206f776e6560008201527f72206f7220617070726f76656400000000000000000000000000000000000000602082015250565b6000613380602d836128ec565b915061338b82613324565b604082019050919050565b600060208201905081810360008301526133af81613373565b9050919050565b600081905092915050565b60006133cc826128e1565b6133d681856133b6565b93506133e68185602086016128fd565b80840191505092915050565b60006133fe82846133c1565b915081905092915050565b7f4e487b7100000000000000000000000000000000000000000000000000000000600052601160045260246000fd5b6000613443826127de565b915061344e836127de565b925082820190508082111561346657613465613409565b5b92915050565b60008190508160005260206000209050919050565b60006020601f8301049050919050565b600082821b905092915050565b6000600883026134ce7fffffffffffffffffffffffffffffffffffffffffffffffffffffffffffffffff82613491565b6134d88683613491565b95508019841693508086168417925050509392505050565b6000819050919050565b600061351561351061350b846127de565b6134f0565b6127de565b9050919050565b6000819050919050565b61352f836134fa565b61354361353b8261351c565b84845461349e565b825550505050565b600090565b61355861354b565b613563818484613526565b505050565b5b818110156135875761357c600082613550565b600181019050613569565b5050565b601f8211156135cc5761359d8161346c565b6135a684613481565b810160208510156135b5578190505b6135c96135c185613481565b830182613568565b50505b505050565b600082821c905092915050565b60006135ef600019846008026135d1565b1980831691505092915050565b600061360883836135de565b9150826002028217905092915050565b613621826128e1565b67ffffffffffffffff81111561363a57613639612d19565b5b61364482546131cf565b61364f82828561358b565b600060209050601f8311600181146136825760008415613670578287015190505b61367a85826135fc565b8655506136e2565b601f1984166136908661346c565b60005b828110156136b857848901518255600182019150602085019450602081019050613693565b868310156136d557848901516136d1601f8916826135de565b8355505b6001600288020188555050505b505050505050565b60006136f5826127de565b9150613700836127de565b925082820390508181111561371857613717613409565b5b92915050565b7f4e487b7100000000000000000000000000000000000000000000000000000000600052603260045260246000fd5b7f4552433732313a20696e76616c696420746f6b656e2049440000000000000000600082015250565b60006137836018836128ec565b915061378e8261374d565b602082019050919050565b600060208201905081810360008301526137b281613776565b9050919050565b7f4552433732313a2061646472657373207a65726f206973206e6f74206120766160008201527f6c6964206f776e65720000000000000000000000000000000000000000000000602082015250565b60006138156029836128ec565b9150613820826137b9565b604082019050919050565b6000602082019050818103600083015261384481613808565b9050919050565b600061385782856133c1565b915061386382846133c1565b91508190509392505050565b7f4f776e61626c653a206e6577206f776e657220697320746865207a65726f206160008201527f6464726573730000000000000000000000000000000000000000000000000000602082015250565b60006138cb6026836128ec565b91506138d68261386f565b604082019050919050565b600060208201905081810360008301526138fa816138be565b9050919050565b7f4552433732313a207472616e736665722066726f6d20696e636f72726563742060008201527f6f776e6572000000000000000000000000000000000000000000000000000000602082015250565b600061395d6025836128ec565b915061396882613901565b604082019050919050565b6000602082019050818103600083015261398c81613950565b9050919050565b7f4552433732313a207472616e7366657220746f20746865207a65726f2061646460008201527f7265737300000000000000000000000000000000000000000000000000000000602082015250565b60006139ef6024836128ec565b91506139fa82613993565b604082019050919050565b60006020820190508181036000830152613a1e816139e2565b9050919050565b7f4f776e61626c653a2063616c6c6572206973206e6f7420746865206f776e6572600082015250565b6000613a5b6020836128ec565b9150613a6682613a25565b602082019050919050565b60006020820190508181036000830152613a8a81613a4e565b9050919050565b7f4552433732313a20617070726f766520746f2063616c6c657200000000000000600082015250565b6000613ac76019836128ec565b9150613ad282613a91565b602082019050919050565b60006020820190508181036000830152613af681613aba565b9050919050565b7f4552433732313a207472616e7366657220746f206e6f6e20455243373231526560008201527f63656976657220696d706c656d656e7465720000000000000000000000000000602082015250565b6000613b596032836128ec565b9150613b6482613afd565b604082019050919050565b60006020820190508181036000830152613b8881613b4c565b9050919050565b7f4e487b7100000000000000000000000000000000000000000000000000000000600052601260045260246000fd5b600081519050919050565b600082825260208201905092915050565b6000613be582613bbe565b613bef8185613bc9565b9350613bff8185602086016128fd565b613c0881612927565b840191505092915050565b6000608082019050613c286000830187612a1e565b613c356020830186612a1e565b613c4260408301856127e8565b8181036060830152613c548184613bda565b905095945050505050565b600081519050613c6e81612852565b92915050565b600060208284031215613c8a57613c8961281c565b5b6000613c9884828501613c5f565b91505092915050565b7f4552433732313a206d696e7420746f20746865207a65726f2061646472657373600082015250565b6000613cd76020836128ec565b9150613ce282613ca1565b602082019050919050565b60006020820190508181036000830152613d0681613cca565b9050919050565b7f4552433732313a20746f6b656e20616c7265616479206d696e74656400000000600082015250565b6000613d43601c836128ec565b9150613d4e82613d0d565b602082019050919050565b60006020820190508181036000830152613d7281613d36565b905091905056fea2646970667358221220647cbbef43a73281785d4028f5aab77830a3f7365eeebdd8aff665dc008134c164736f6c63430008120033a264697066735822122095f2b361448288d2c74d2fddf224617a453d228eae0e924dd37f61ca3d37efa264736f6c63430008120033",
  "devdoc": {
    "kind": "dev",
    "methods": {},
    "version": 1
  },
  "userdoc": {
    "kind": "user",
    "methods": {},
    "version": 1
  },
  "storageLayout": {
    "storage": [
      {
        "astId": 2636,
        "contract": "contracts/UserFactory.sol:UserFactory",
        "label": "createdProfiles",
        "offset": 0,
        "slot": "0",
        "type": "t_array(t_address)dyn_storage"
      },
      {
        "astId": 2640,
        "contract": "contracts/UserFactory.sol:UserFactory",
        "label": "userProfile",
        "offset": 0,
        "slot": "1",
        "type": "t_mapping(t_string_memory_ptr,t_address)"
      },
      {
        "astId": 2642,
        "contract": "contracts/UserFactory.sol:UserFactory",
        "label": "admin",
        "offset": 0,
        "slot": "2",
        "type": "t_address"
      }
    ],
    "types": {
      "t_address": {
        "encoding": "inplace",
        "label": "address",
        "numberOfBytes": "20"
      },
      "t_array(t_address)dyn_storage": {
        "base": "t_address",
        "encoding": "dynamic_array",
        "label": "address[]",
        "numberOfBytes": "32"
      },
      "t_mapping(t_string_memory_ptr,t_address)": {
        "encoding": "mapping",
        "key": "t_string_memory_ptr",
        "label": "mapping(string => address)",
        "numberOfBytes": "32",
        "value": "t_address"
      },
      "t_string_memory_ptr": {
        "encoding": "bytes",
        "label": "string",
        "numberOfBytes": "32"
      }
    }
  }
}