{
  "address": "0xFaE98aDA8c60948679bA4f72DC5bbe2f6F3F8C28",
  "abi": [
    {
      "inputs": [],
      "stateMutability": "nonpayable",
      "type": "constructor"
    },
    {
      "inputs": [],
      "name": "admin",
      "outputs": [
        {
          "internalType": "address",
          "name": "",
          "type": "address"
        }
      ],
      "stateMutability": "view",
      "type": "function"
    },
    {
      "inputs": [],
      "name": "amountRecaudedFees",
      "outputs": [
        {
          "internalType": "uint256",
          "name": "",
          "type": "uint256"
        }
      ],
      "stateMutability": "view",
      "type": "function"
    },
    {
      "inputs": [
        {
          "internalType": "string",
          "name": "_tokenName",
          "type": "string"
        },
        {
          "internalType": "string",
          "name": "_tokenSymbol",
          "type": "string"
        },
        {
          "internalType": "string",
          "name": "_name",
          "type": "string"
        },
        {
          "internalType": "string",
          "name": "_description",
          "type": "string"
        },
        {
          "internalType": "uint256",
          "name": "_bronzePrice",
          "type": "uint256"
        },
        {
          "internalType": "uint256",
          "name": "_silverPrice",
          "type": "uint256"
        },
        {
          "internalType": "uint256",
          "name": "_goldPrice",
          "type": "uint256"
        }
      ],
      "name": "createProfile",
      "outputs": [],
      "stateMutability": "nonpayable",
      "type": "function"
    },
    {
      "inputs": [
        {
          "internalType": "uint256",
          "name": "",
          "type": "uint256"
        }
      ],
      "name": "createdProfiles",
      "outputs": [
        {
          "internalType": "address",
          "name": "",
          "type": "address"
        }
      ],
      "stateMutability": "view",
      "type": "function"
    },
    {
      "inputs": [
        {
          "internalType": "address",
          "name": "",
          "type": "address"
        }
      ],
      "name": "creatorContract",
      "outputs": [
        {
          "internalType": "address",
          "name": "",
          "type": "address"
        }
      ],
      "stateMutability": "view",
      "type": "function"
    },
    {
      "inputs": [],
      "name": "getAllCreators",
      "outputs": [
        {
          "internalType": "address[]",
          "name": "",
          "type": "address[]"
        }
      ],
      "stateMutability": "view",
      "type": "function"
    },
    {
      "inputs": [
        {
          "internalType": "address",
          "name": "_creatorAddress",
          "type": "address"
        }
      ],
      "name": "getCreatorContractAddress",
      "outputs": [
        {
          "internalType": "address",
          "name": "",
          "type": "address"
        }
      ],
      "stateMutability": "view",
      "type": "function"
    },
    {
      "inputs": [
        {
          "internalType": "address",
          "name": "_creatorAddress",
          "type": "address"
        }
      ],
      "name": "isSignedUp",
      "outputs": [
        {
          "internalType": "bool",
          "name": "",
          "type": "bool"
        }
      ],
      "stateMutability": "view",
      "type": "function"
    },
    {
      "inputs": [],
      "name": "recaudeFees",
      "outputs": [],
      "stateMutability": "payable",
      "type": "function"
    },
    {
      "inputs": [],
      "name": "suscriptionFee",
      "outputs": [
        {
          "internalType": "uint256",
          "name": "",
          "type": "uint256"
        }
      ],
      "stateMutability": "view",
      "type": "function"
    },
    {
      "inputs": [
        {
          "internalType": "string",
          "name": "",
          "type": "string"
        }
      ],
      "name": "userProfile",
      "outputs": [
        {
          "internalType": "address",
          "name": "",
          "type": "address"
        }
      ],
      "stateMutability": "view",
      "type": "function"
    },
    {
      "inputs": [
        {
          "internalType": "address payable",
          "name": "_to",
          "type": "address"
        }
      ],
      "name": "withdrawFees",
      "outputs": [],
      "stateMutability": "nonpayable",
      "type": "function"
    }
  ],
  "transactionHash": "0x315b25236b451a8d5a3569b391f395e8a9f8f0ed758307da01fd0b8ff0bd7cb0",
  "args": [],
  "numDeployments": 23,
  "solcInputHash": "70c52c6869ebb2d3f46e64e945254c7f",
  "bytecode": "0x608060405234801561001057600080fd5b5033600360006101000a81548173ffffffffffffffffffffffffffffffffffffffff021916908373ffffffffffffffffffffffffffffffffffffffff1602179055506014600481905550615f8a806100696000396000f3fe608060405260043610620000b65760003560e01c8063aae83c82116200006d578063aae83c821462000213578063c2d8e1ad1462000243578063eb8cdd341462000287578063f193e1a51462000293578063f851a44014620002d7578063f97fac4d146200030757620000b6565b8063164e68de14620000bb57806322b6ffca14620000e957806327537498146200012d57806334af431d146200015d5780633de6053a14620001a1578063588a168214620001e5575b600080fd5b348015620000c857600080fd5b50620000e76004803603810190620000e1919062000a0b565b62000337565b005b348015620000f657600080fd5b506200011560048036038101906200010f919062000a82565b620003e7565b60405162000124919062000ad1565b60405180910390f35b3480156200013a57600080fd5b506200014562000490565b60405162000154919062000b09565b60405180910390f35b3480156200016a57600080fd5b5062000189600480360381019062000183919062000a82565b62000496565b60405162000198919062000b37565b60405180910390f35b348015620001ae57600080fd5b50620001cd6004803603810190620001c7919062000a82565b620004c9565b604051620001dc919062000b37565b60405180910390f35b348015620001f257600080fd5b506200021160048036038101906200020b919062000ce7565b62000532565b005b3480156200022057600080fd5b506200022b62000822565b6040516200023a919062000b09565b60405180910390f35b3480156200025057600080fd5b506200026f600480360381019062000269919062000e16565b62000828565b6040516200027e919062000b37565b60405180910390f35b6200029162000871565b005b348015620002a057600080fd5b50620002bf6004803603810190620002b9919062000e67565b6200088e565b604051620002ce919062000b37565b60405180910390f35b348015620002e457600080fd5b50620002ef620008ce565b604051620002fe919062000b37565b60405180910390f35b3480156200031457600080fd5b506200031f620008f4565b6040516200032e919062000f67565b60405180910390f35b600360009054906101000a900473ffffffffffffffffffffffffffffffffffffffff1673ffffffffffffffffffffffffffffffffffffffff163373ffffffffffffffffffffffffffffffffffffffff16146200039257600080fd5b8073ffffffffffffffffffffffffffffffffffffffff166108fc6005549081150290604051600060405180830381858888f19350505050158015620003db573d6000803e3d6000fd5b50600060058190555050565b60008073ffffffffffffffffffffffffffffffffffffffff16600260008473ffffffffffffffffffffffffffffffffffffffff1673ffffffffffffffffffffffffffffffffffffffff16815260200190815260200160002060009054906101000a900473ffffffffffffffffffffffffffffffffffffffff1673ffffffffffffffffffffffffffffffffffffffff16036200048657600090506200048b565b600190505b919050565b60045481565b60026020528060005260406000206000915054906101000a900473ffffffffffffffffffffffffffffffffffffffff1681565b6000600260008373ffffffffffffffffffffffffffffffffffffffff1673ffffffffffffffffffffffffffffffffffffffff16815260200190815260200160002060009054906101000a900473ffffffffffffffffffffffffffffffffffffffff169050919050565b600060018660405162000546919062001004565b908152602001604051809103902060009054906101000a900473ffffffffffffffffffffffffffffffffffffffff169050600073ffffffffffffffffffffffffffffffffffffffff16600260003373ffffffffffffffffffffffffffffffffffffffff1673ffffffffffffffffffffffffffffffffffffffff16815260200190815260200160002060009054906101000a900473ffffffffffffffffffffffffffffffffffffffff1673ffffffffffffffffffffffffffffffffffffffff161462000648576040517f08c379a00000000000000000000000000000000000000000000000000000000081526004016200063f906200107e565b60405180910390fd5b600073ffffffffffffffffffffffffffffffffffffffff168173ffffffffffffffffffffffffffffffffffffffff16146200068257600080fd5b600088883389898989896004546040516200069d9062000984565b620006b199989796959493929190620010e1565b604051809103906000f080158015620006ce573d6000803e3d6000fd5b50905060008190506000819080600181540180825580915050600190039060005260206000200160009091909190916101000a81548173ffffffffffffffffffffffffffffffffffffffff021916908373ffffffffffffffffffffffffffffffffffffffff160217905550806001896040516200074c919062001004565b908152602001604051809103902060006101000a81548173ffffffffffffffffffffffffffffffffffffffff021916908373ffffffffffffffffffffffffffffffffffffffff16021790555080600260003373ffffffffffffffffffffffffffffffffffffffff1673ffffffffffffffffffffffffffffffffffffffff16815260200190815260200160002060006101000a81548173ffffffffffffffffffffffffffffffffffffffff021916908373ffffffffffffffffffffffffffffffffffffffff16021790555050505050505050505050565b60055481565b6001818051602081018201805184825260208301602085012081835280955050505050506000915054906101000a900473ffffffffffffffffffffffffffffffffffffffff1681565b3460056000828254620008859190620011cb565b92505081905550565b600081815481106200089f57600080fd5b906000526020600020016000915054906101000a900473ffffffffffffffffffffffffffffffffffffffff1681565b600360009054906101000a900473ffffffffffffffffffffffffffffffffffffffff1681565b606060008054806020026020016040519081016040528092919081815260200182805480156200097a57602002820191906000526020600020905b8160009054906101000a900473ffffffffffffffffffffffffffffffffffffffff1673ffffffffffffffffffffffffffffffffffffffff16815260200190600101908083116200092f575b5050505050905090565b614d4e806200120783390190565b6000604051905090565b600080fd5b600080fd5b600073ffffffffffffffffffffffffffffffffffffffff82169050919050565b6000620009d382620009a6565b9050919050565b620009e581620009c6565b8114620009f157600080fd5b50565b60008135905062000a0581620009da565b92915050565b60006020828403121562000a245762000a236200099c565b5b600062000a3484828501620009f4565b91505092915050565b600062000a4a82620009a6565b9050919050565b62000a5c8162000a3d565b811462000a6857600080fd5b50565b60008135905062000a7c8162000a51565b92915050565b60006020828403121562000a9b5762000a9a6200099c565b5b600062000aab8482850162000a6b565b91505092915050565b60008115159050919050565b62000acb8162000ab4565b82525050565b600060208201905062000ae8600083018462000ac0565b92915050565b6000819050919050565b62000b038162000aee565b82525050565b600060208201905062000b20600083018462000af8565b92915050565b62000b318162000a3d565b82525050565b600060208201905062000b4e600083018462000b26565b92915050565b600080fd5b600080fd5b6000601f19601f8301169050919050565b7f4e487b7100000000000000000000000000000000000000000000000000000000600052604160045260246000fd5b62000ba98262000b5e565b810181811067ffffffffffffffff8211171562000bcb5762000bca62000b6f565b5b80604052505050565b600062000be062000992565b905062000bee828262000b9e565b919050565b600067ffffffffffffffff82111562000c115762000c1062000b6f565b5b62000c1c8262000b5e565b9050602081019050919050565b82818337600083830152505050565b600062000c4f62000c498462000bf3565b62000bd4565b90508281526020810184848401111562000c6e5762000c6d62000b59565b5b62000c7b84828562000c29565b509392505050565b600082601f83011262000c9b5762000c9a62000b54565b5b813562000cad84826020860162000c38565b91505092915050565b62000cc18162000aee565b811462000ccd57600080fd5b50565b60008135905062000ce18162000cb6565b92915050565b600080600080600080600060e0888a03121562000d095762000d086200099c565b5b600088013567ffffffffffffffff81111562000d2a5762000d29620009a1565b5b62000d388a828b0162000c83565b975050602088013567ffffffffffffffff81111562000d5c5762000d5b620009a1565b5b62000d6a8a828b0162000c83565b965050604088013567ffffffffffffffff81111562000d8e5762000d8d620009a1565b5b62000d9c8a828b0162000c83565b955050606088013567ffffffffffffffff81111562000dc05762000dbf620009a1565b5b62000dce8a828b0162000c83565b945050608062000de18a828b0162000cd0565b93505060a062000df48a828b0162000cd0565b92505060c062000e078a828b0162000cd0565b91505092959891949750929550565b60006020828403121562000e2f5762000e2e6200099c565b5b600082013567ffffffffffffffff81111562000e505762000e4f620009a1565b5b62000e5e8482850162000c83565b91505092915050565b60006020828403121562000e805762000e7f6200099c565b5b600062000e908482850162000cd0565b91505092915050565b600081519050919050565b600082825260208201905092915050565b6000819050602082019050919050565b62000ed08162000a3d565b82525050565b600062000ee4838362000ec5565b60208301905092915050565b6000602082019050919050565b600062000f0a8262000e99565b62000f16818562000ea4565b935062000f238362000eb5565b8060005b8381101562000f5a57815162000f3e888262000ed6565b975062000f4b8362000ef0565b92505060018101905062000f27565b5085935050505092915050565b6000602082019050818103600083015262000f83818462000efd565b905092915050565b600081519050919050565b600081905092915050565b60005b8381101562000fc157808201518184015260208101905062000fa4565b60008484015250505050565b600062000fda8262000f8b565b62000fe6818562000f96565b935062000ff881856020860162000fa1565b80840191505092915050565b600062001012828462000fcd565b915081905092915050565b600082825260208201905092915050565b7f6164647265737320616c72656164792068617320616e206163636f756e740000600082015250565b600062001066601e836200101d565b915062001073826200102e565b602082019050919050565b60006020820190508181036000830152620010998162001057565b9050919050565b6000620010ad8262000f8b565b620010b981856200101d565b9350620010cb81856020860162000fa1565b620010d68162000b5e565b840191505092915050565b6000610120820190508181036000830152620010fe818c620010a0565b9050818103602083015262001114818b620010a0565b905062001125604083018a62000b26565b8181036060830152620011398189620010a0565b905081810360808301526200114f8188620010a0565b90506200116060a083018762000af8565b6200116f60c083018662000af8565b6200117e60e083018562000af8565b6200118e61010083018462000af8565b9a9950505050505050505050565b7f4e487b7100000000000000000000000000000000000000000000000000000000600052601160045260246000fd5b6000620011d88262000aee565b9150620011e58362000aee565b92508282019050808211156200120057620011ff6200119c565b5b9291505056fe608060405262278d006013553480156200001857600080fd5b5060405162004d4e38038062004d4e83398181016040528101906200003e9190620005ff565b888881600090816200005191906200099b565b5080600190816200006391906200099b565b505050620000866200007a620002fe60201b60201c565b6200030660201b60201c565b33600760006101000a81548173ffffffffffffffffffffffffffffffffffffffff021916908373ffffffffffffffffffffffffffffffffffffffff160217905550620000d8876200030660201b60201c565b8560089081620000e991906200099b565b508460099081620000fb91906200099b565b508060108190555060405180606001604052806040518060400160405280600681526020017f62726f6e7a6500000000000000000000000000000000000000000000000000008152508152602001620f4240866200015a919062000ab1565b81526020016000815250601260006001815260200190815260200160002060008201518160000190816200018f91906200099b565b50602082015181600101556040820151816002015590505060405180606001604052806040518060400160405280600681526020017f73696c76657200000000000000000000000000000000000000000000000000008152508152602001620f424085620001fe919062000ab1565b81526020016000815250601260006002815260200190815260200160002060008201518160000190816200023391906200099b565b50602082015181600101556040820151816002015590505060405180606001604052806040518060400160405280600481526020017f676f6c64000000000000000000000000000000000000000000000000000000008152508152602001620f424084620002a2919062000ab1565b8152602001600081525060126000600381526020019081526020016000206000820151816000019081620002d791906200099b565b50602082015181600101556040820151816002015590505050505050505050505062000afc565b600033905090565b6000600660009054906101000a900473ffffffffffffffffffffffffffffffffffffffff16905081600660006101000a81548173ffffffffffffffffffffffffffffffffffffffff021916908373ffffffffffffffffffffffffffffffffffffffff1602179055508173ffffffffffffffffffffffffffffffffffffffff168173ffffffffffffffffffffffffffffffffffffffff167f8be0079c531659141344cd1fd0a4f28419497f9722a3daafe3b4186f6b6457e060405160405180910390a35050565b6000604051905090565b600080fd5b600080fd5b600080fd5b600080fd5b6000601f19601f8301169050919050565b7f4e487b7100000000000000000000000000000000000000000000000000000000600052604160045260246000fd5b6200043582620003ea565b810181811067ffffffffffffffff82111715620004575762000456620003fb565b5b80604052505050565b60006200046c620003cc565b90506200047a82826200042a565b919050565b600067ffffffffffffffff8211156200049d576200049c620003fb565b5b620004a882620003ea565b9050602081019050919050565b60005b83811015620004d5578082015181840152602081019050620004b8565b60008484015250505050565b6000620004f8620004f2846200047f565b62000460565b905082815260208101848484011115620005175762000516620003e5565b5b62000524848285620004b5565b509392505050565b600082601f830112620005445762000543620003e0565b5b815162000556848260208601620004e1565b91505092915050565b600073ffffffffffffffffffffffffffffffffffffffff82169050919050565b60006200058c826200055f565b9050919050565b6200059e816200057f565b8114620005aa57600080fd5b50565b600081519050620005be8162000593565b92915050565b6000819050919050565b620005d981620005c4565b8114620005e557600080fd5b50565b600081519050620005f981620005ce565b92915050565b60008060008060008060008060006101208a8c031215620006255762000624620003d6565b5b60008a015167ffffffffffffffff811115620006465762000645620003db565b5b620006548c828d016200052c565b99505060208a015167ffffffffffffffff811115620006785762000677620003db565b5b620006868c828d016200052c565b9850506040620006998c828d01620005ad565b97505060608a015167ffffffffffffffff811115620006bd57620006bc620003db565b5b620006cb8c828d016200052c565b96505060808a015167ffffffffffffffff811115620006ef57620006ee620003db565b5b620006fd8c828d016200052c565b95505060a0620007108c828d01620005e8565b94505060c0620007238c828d01620005e8565b93505060e0620007368c828d01620005e8565b9250506101006200074a8c828d01620005e8565b9150509295985092959850929598565b600081519050919050565b7f4e487b7100000000000000000000000000000000000000000000000000000000600052602260045260246000fd5b60006002820490506001821680620007ad57607f821691505b602082108103620007c357620007c262000765565b5b50919050565b60008190508160005260206000209050919050565b60006020601f8301049050919050565b600082821b905092915050565b6000600883026200082d7fffffffffffffffffffffffffffffffffffffffffffffffffffffffffffffffff82620007ee565b620008398683620007ee565b95508019841693508086168417925050509392505050565b6000819050919050565b60006200087c620008766200087084620005c4565b62000851565b620005c4565b9050919050565b6000819050919050565b62000898836200085b565b620008b0620008a78262000883565b848454620007fb565b825550505050565b600090565b620008c7620008b8565b620008d48184846200088d565b505050565b5b81811015620008fc57620008f0600082620008bd565b600181019050620008da565b5050565b601f8211156200094b576200091581620007c9565b6200092084620007de565b8101602085101562000930578190505b620009486200093f85620007de565b830182620008d9565b50505b505050565b600082821c905092915050565b6000620009706000198460080262000950565b1980831691505092915050565b60006200098b83836200095d565b9150826002028217905092915050565b620009a6826200075a565b67ffffffffffffffff811115620009c257620009c1620003fb565b5b620009ce825462000794565b620009db82828562000900565b600060209050601f83116001811462000a135760008415620009fe578287015190505b62000a0a85826200097d565b86555062000a7a565b601f19841662000a2386620007c9565b60005b8281101562000a4d5784890151825560018201915060208501945060208101905062000a26565b8683101562000a6d578489015162000a69601f8916826200095d565b8355505b6001600288020188555050505b505050505050565b7f4e487b7100000000000000000000000000000000000000000000000000000000600052601160045260246000fd5b600062000abe82620005c4565b915062000acb83620005c4565b925082820262000adb81620005c4565b9150828204841483151762000af55762000af462000a82565b5b5092915050565b6142428062000b0c6000396000f3fe6080604052600436106102455760003560e01c80637a94a63311610139578063b88d4fde116100b6578063c87b56dd1161007a578063c87b56dd146108a0578063de4529eb146108dd578063e0ded7761461091a578063e985e9c514610936578063ed88c68e14610973578063f2fde38b1461097d57610245565b8063b88d4fde146107a7578063b92ae87c146107d0578063bcb2226a1461080d578063c5da76041461084a578063c707944b1461087557610245565b80638da5cb5b116100fd5780638da5cb5b146106d257806395d89b41146106fd578063a22cb46514610728578063a3e3981114610751578063b1d140681461077c57610245565b80637a94a633146105e25780637efab5f31461060d5780638356c1e11461064c578063863678e91461067e578063893d20e8146106a757610245565b806327537498116101c7578063534844a21161018b578063534844a2146104fd5780636352211e1461051457806370a0823114610551578063715018a61461058e5780637235d7d9146105a557610245565b8063275374981461041457806327e25dcc1461043f5780632ae25fd2146104805780632dc282e9146104a957806342842e0e146104d457610245565b8063095ea7b31161020e578063095ea7b31461033157806309c2e0d21461035a5780631dbe69d41461038357806321c7557c146103ae57806323b872dd146103eb57610245565b8062b370441461024a57806301ffc9a71461027557806302d17a15146102b257806306fdde03146102c9578063081812fc146102f4575b600080fd5b34801561025657600080fd5b5061025f6109a6565b60405161026c9190612d39565b60405180910390f35b34801561028157600080fd5b5061029c60048036038101906102979190612dc0565b6109ac565b6040516102a99190612e08565b60405180910390f35b3480156102be57600080fd5b506102c7610a8e565b005b3480156102d557600080fd5b506102de610b65565b6040516102eb9190612eb3565b60405180910390f35b34801561030057600080fd5b5061031b60048036038101906103169190612f01565b610bf7565b6040516103289190612f6f565b60405180910390f35b34801561033d57600080fd5b5061035860048036038101906103539190612fb6565b610c3d565b005b34801561036657600080fd5b50610381600480360381019061037c919061312b565b610c4c565b005b34801561038f57600080fd5b50610398610d8f565b6040516103a59190613394565b60405180910390f35b3480156103ba57600080fd5b506103d560048036038101906103d091906133b6565b610fc9565b6040516103e29190612d39565b60405180910390f35b3480156103f757600080fd5b50610412600480360381019061040d91906133e3565b610fe1565b005b34801561042057600080fd5b50610429610ff1565b6040516104369190612d39565b60405180910390f35b34801561044b57600080fd5b5061046660048036038101906104619190612f01565b610ff7565b604051610477959493929190613436565b60405180910390f35b34801561048c57600080fd5b506104a760048036038101906104a2919061349e565b6111e2565b005b3480156104b557600080fd5b506104be611270565b6040516104cb9190612d39565b60405180910390f35b3480156104e057600080fd5b506104fb60048036038101906104f691906133e3565b611276565b005b34801561050957600080fd5b50610512611286565b005b34801561052057600080fd5b5061053b60048036038101906105369190612f01565b6112f6565b6040516105489190612f6f565b60405180910390f35b34801561055d57600080fd5b50610578600480360381019061057391906133b6565b61137c565b6040516105859190612d39565b60405180910390f35b34801561059a57600080fd5b506105a3611433565b005b3480156105b157600080fd5b506105cc60048036038101906105c7919061349e565b611447565b6040516105d99190612d39565b60405180910390f35b3480156105ee57600080fd5b506105f7611475565b6040516106049190612d39565b60405180910390f35b34801561061957600080fd5b50610634600480360381019061062f9190612f01565b61147b565b604051610643939291906134e7565b60405180910390f35b34801561065857600080fd5b5061066161152d565b604051610675989796959493929190613575565b60405180910390f35b34801561068a57600080fd5b506106a560048036038101906106a0919061349e565b6118e4565b005b3480156106b357600080fd5b506106bc611972565b6040516106c99190612f6f565b60405180910390f35b3480156106de57600080fd5b506106e7611986565b6040516106f49190612f6f565b60405180910390f35b34801561070957600080fd5b506107126119b0565b60405161071f9190612eb3565b60405180910390f35b34801561073457600080fd5b5061074f600480360381019061074a9190613642565b611a42565b005b34801561075d57600080fd5b50610766611a51565b6040516107739190612eb3565b60405180910390f35b34801561078857600080fd5b50610791611adf565b60405161079e9190612d39565b60405180910390f35b3480156107b357600080fd5b506107ce60048036038101906107c99190613723565b611ae5565b005b3480156107dc57600080fd5b506107f760048036038101906107f291906133b6565b611af6565b6040516108049190612e08565b60405180910390f35b34801561081957600080fd5b50610834600480360381019061082f91906133b6565b611b4c565b6040516108419190612d39565b60405180910390f35b34801561085657600080fd5b5061085f611b64565b60405161086c9190612eb3565b60405180910390f35b34801561088157600080fd5b5061088a611bf2565b6040516108979190612d39565b60405180910390f35b3480156108ac57600080fd5b506108c760048036038101906108c29190612f01565b611bf8565b6040516108d49190612eb3565b60405180910390f35b3480156108e957600080fd5b5061090460048036038101906108ff91906133b6565b611c60565b6040516109119190612d39565b60405180910390f35b610934600480360381019061092f9190612f01565b611c78565b005b34801561094257600080fd5b5061095d600480360381019061095891906137a6565b6121fe565b60405161096a9190612e08565b60405180910390f35b61097b612292565b005b34801561098957600080fd5b506109a4600480360381019061099f91906133b6565b612379565b005b600f5481565b60007f80ac58cd000000000000000000000000000000000000000000000000000000007bffffffffffffffffffffffffffffffffffffffffffffffffffffffff1916827bffffffffffffffffffffffffffffffffffffffffffffffffffffffff19161480610a7757507f5b5e139f000000000000000000000000000000000000000000000000000000007bffffffffffffffffffffffffffffffffffffffffffffffffffffffff1916827bffffffffffffffffffffffffffffffffffffffffffffffffffffffff1916145b80610a875750610a86826123fc565b5b9050919050565b6000600a54905060005b81811015610b61576000610aab826112f6565b905042601460008373ffffffffffffffffffffffffffffffffffffffff1673ffffffffffffffffffffffffffffffffffffffff168152602001908152602001600020541015610b4d576000601660008373ffffffffffffffffffffffffffffffffffffffff1673ffffffffffffffffffffffffffffffffffffffff16815260200190815260200160002060006101000a81548160ff0219169083151502179055505b508080610b5990613815565b915050610a98565b5050565b606060008054610b749061388c565b80601f0160208091040260200160405190810160405280929190818152602001828054610ba09061388c565b8015610bed5780601f10610bc257610100808354040283529160200191610bed565b820191906000526020600020905b815481529060010190602001808311610bd057829003601f168201915b5050505050905090565b6000610c0282612466565b6004600083815260200190815260200160002060009054906101000a900473ffffffffffffffffffffffffffffffffffffffff169050919050565b6000610c4857600080fd5b5050565b610c546124b1565b6000600d84604051610c6691906138f9565b90815260200160405180910390205414610c7f57600080fd5b6001600b6000828254610c929190613910565b92505081905550600b54600d84604051610cac91906138f9565b908152602001604051809103902081905550600c6040518060a001604052808681526020018581526020018481526020016000151581526020018381525090806001815401808255809150506001900390600052602060002090600502016000909190919091506000820151816000019081610d289190613af0565b506020820151816001019081610d3e9190613af0565b506040820151816002019081610d549190613af0565b5060608201518160030160006101000a81548160ff021916908315150217905550608082015181600401555050610d89610a8e565b50505050565b6060600c805480602002602001604051908101604052809291908181526020016000905b82821015610fc057838290600052602060002090600502016040518060a0016040529081600082018054610de69061388c565b80601f0160208091040260200160405190810160405280929190818152602001828054610e129061388c565b8015610e5f5780601f10610e3457610100808354040283529160200191610e5f565b820191906000526020600020905b815481529060010190602001808311610e4257829003601f168201915b50505050508152602001600182018054610e789061388c565b80601f0160208091040260200160405190810160405280929190818152602001828054610ea49061388c565b8015610ef15780601f10610ec657610100808354040283529160200191610ef1565b820191906000526020600020905b815481529060010190602001808311610ed457829003601f168201915b50505050508152602001600282018054610f0a9061388c565b80601f0160208091040260200160405190810160405280929190818152602001828054610f369061388c565b8015610f835780601f10610f5857610100808354040283529160200191610f83565b820191906000526020600020905b815481529060010190602001808311610f6657829003601f168201915b505050505081526020016003820160009054906101000a900460ff1615151515815260200160048201548152505081526020019060010190610db3565b50505050905090565b60116020528060005260406000206000915090505481565b6000610fec57600080fd5b505050565b60105481565b600c818154811061100757600080fd5b906000526020600020906005020160009150905080600001805461102a9061388c565b80601f01602080910402602001604051908101604052809291908181526020018280546110569061388c565b80156110a35780601f10611078576101008083540402835291602001916110a3565b820191906000526020600020905b81548152906001019060200180831161108657829003601f168201915b5050505050908060010180546110b89061388c565b80601f01602080910402602001604051908101604052809291908181526020018280546110e49061388c565b80156111315780601f1061110657610100808354040283529160200191611131565b820191906000526020600020905b81548152906001019060200180831161111457829003601f168201915b5050505050908060020180546111469061388c565b80601f01602080910402602001604051908101604052809291908181526020018280546111729061388c565b80156111bf5780601f10611194576101008083540402835291602001916111bf565b820191906000526020600020905b8154815290600101906020018083116111a257829003601f168201915b5050505050908060030160009054906101000a900460ff16908060040154905085565b6111ea6124b1565b6000600d826040516111fc91906138f9565b90815260200160405180910390205490506000811161121a57600080fd5b6000600c60018361122b9190613bc2565b8154811061123c5761123b613bf6565b5b906000526020600020906005020160030160006101000a81548160ff02191690831515021790555061126c610a8e565b5050565b600b5481565b600061128157600080fd5b505050565b61128e6124b1565b6000611298611986565b90508073ffffffffffffffffffffffffffffffffffffffff166108fc600e549081150290604051600060405180830381858888f193505050501580156112e2573d6000803e3d6000fd5b506000600e819055506112f3610a8e565b50565b6000806113028361252f565b9050600073ffffffffffffffffffffffffffffffffffffffff168173ffffffffffffffffffffffffffffffffffffffff1603611373576040517f08c379a000000000000000000000000000000000000000000000000000000000815260040161136a90613c71565b60405180910390fd5b80915050919050565b60008073ffffffffffffffffffffffffffffffffffffffff168273ffffffffffffffffffffffffffffffffffffffff16036113ec576040517f08c379a00000000000000000000000000000000000000000000000000000000081526004016113e390613d03565b60405180910390fd5b600360008373ffffffffffffffffffffffffffffffffffffffff1673ffffffffffffffffffffffffffffffffffffffff168152602001908152602001600020549050919050565b61143b6124b1565b611445600061256c565b565b600d818051602081018201805184825260208301602085012081835280955050505050506000915090505481565b60135481565b601260205280600052604060002060009150905080600001805461149e9061388c565b80601f01602080910402602001604051908101604052809291908181526020018280546114ca9061388c565b80156115175780601f106114ec57610100808354040283529160200191611517565b820191906000526020600020905b8154815290600101906020018083116114fa57829003601f168201915b5050505050908060010154908060020154905083565b606080600080600061153d612cff565b611545612cff565b61154d612cff565b60086009600a54600b54600e546012600060018152602001908152602001600020601260006002815260200190815260200160002060126000600381526020019081526020016000208780546115a29061388c565b80601f01602080910402602001604051908101604052809291908181526020018280546115ce9061388c565b801561161b5780601f106115f05761010080835404028352916020019161161b565b820191906000526020600020905b8154815290600101906020018083116115fe57829003601f168201915b5050505050975086805461162e9061388c565b80601f016020809104026020016040519081016040528092919081815260200182805461165a9061388c565b80156116a75780601f1061167c576101008083540402835291602001916116a7565b820191906000526020600020905b81548152906001019060200180831161168a57829003601f168201915b50505050509650826040518060600160405290816000820180546116ca9061388c565b80601f01602080910402602001604051908101604052809291908181526020018280546116f69061388c565b80156117435780601f1061171857610100808354040283529160200191611743565b820191906000526020600020905b81548152906001019060200180831161172657829003601f168201915b505050505081526020016001820154815260200160028201548152505092508160405180606001604052908160008201805461177e9061388c565b80601f01602080910402602001604051908101604052809291908181526020018280546117aa9061388c565b80156117f75780601f106117cc576101008083540402835291602001916117f7565b820191906000526020600020905b8154815290600101906020018083116117da57829003601f168201915b50505050508152602001600182015481526020016002820154815250509150806040518060600160405290816000820180546118329061388c565b80601f016020809104026020016040519081016040528092919081815260200182805461185e9061388c565b80156118ab5780601f10611880576101008083540402835291602001916118ab565b820191906000526020600020905b81548152906001019060200180831161188e57829003601f168201915b50505050508152602001600182015481526020016002820154815250509050975097509750975097509750975097509091929394959697565b6118ec6124b1565b6000600d826040516118fe91906138f9565b90815260200160405180910390205490506000811161191c57600080fd5b6001600c60018361192d9190613bc2565b8154811061193e5761193d613bf6565b5b906000526020600020906005020160030160006101000a81548160ff02191690831515021790555061196e610a8e565b5050565b60008061197d611986565b90508091505090565b6000600660009054906101000a900473ffffffffffffffffffffffffffffffffffffffff16905090565b6060600180546119bf9061388c565b80601f01602080910402602001604051908101604052809291908181526020018280546119eb9061388c565b8015611a385780601f10611a0d57610100808354040283529160200191611a38565b820191906000526020600020905b815481529060010190602001808311611a1b57829003601f168201915b5050505050905090565b6000611a4d57600080fd5b5050565b60098054611a5e9061388c565b80601f0160208091040260200160405190810160405280929190818152602001828054611a8a9061388c565b8015611ad75780601f10611aac57610100808354040283529160200191611ad7565b820191906000526020600020905b815481529060010190602001808311611aba57829003601f168201915b505050505081565b600e5481565b6000611af057600080fd5b50505050565b6000601660008373ffffffffffffffffffffffffffffffffffffffff1673ffffffffffffffffffffffffffffffffffffffff16815260200190815260200160002060009054906101000a900460ff169050919050565b60146020528060005260406000206000915090505481565b60088054611b719061388c565b80601f0160208091040260200160405190810160405280929190818152602001828054611b9d9061388c565b8015611bea5780601f10611bbf57610100808354040283529160200191611bea565b820191906000526020600020905b815481529060010190602001808311611bcd57829003601f168201915b505050505081565b600a5481565b6060611c0382612466565b6000611c0d612632565b90506000815111611c2d5760405180602001604052806000815250611c58565b80611c3784612649565b604051602001611c48929190613d23565b6040516020818303038152906040525b915050919050565b60156020528060005260406000206000915090505481565b6001811015611cbc576040517f08c379a0000000000000000000000000000000000000000000000000000000008152600401611cb390613d93565b60405180910390fd5b6003811115611d00576040517f08c379a0000000000000000000000000000000000000000000000000000000008152600401611cf790613d93565b60405180910390fd5b60126000828152602001908152602001600020600101543411611d2257600080fd5b6000600760009054906101000a900473ffffffffffffffffffffffffffffffffffffffff1690506000606434601054611d5b9190613db3565b611d659190613e24565b90506000611d723361137c565b03611f81576001600a54611d869190613910565b600a81905550611d9833600a54612717565b8173ffffffffffffffffffffffffffffffffffffffff1663eb8cdd34826040518263ffffffff1660e01b81526004016000604051808303818588803b158015611de057600080fd5b505af1158015611df4573d6000803e3d6000fd5b50505050508034611e059190613bc2565b600e6000828254611e169190613910565b925050819055506001601660003373ffffffffffffffffffffffffffffffffffffffff1673ffffffffffffffffffffffffffffffffffffffff16815260200190815260200160002060006101000a81548160ff02191690831515021790555060135442611e839190613910565b601460003373ffffffffffffffffffffffffffffffffffffffff1673ffffffffffffffffffffffffffffffffffffffff1681526020019081526020016000208190555042601560003373ffffffffffffffffffffffffffffffffffffffff1673ffffffffffffffffffffffffffffffffffffffff1681526020019081526020016000208190555082601160003373ffffffffffffffffffffffffffffffffffffffff1673ffffffffffffffffffffffffffffffffffffffff168152602001908152602001600020819055506001601260008581526020019081526020016000206002016000828254611f759190613910565b925050819055506121f9565b60001515601660003373ffffffffffffffffffffffffffffffffffffffff1673ffffffffffffffffffffffffffffffffffffffff16815260200190815260200160002060009054906101000a900460ff16151514612014576040517f08c379a000000000000000000000000000000000000000000000000000000000815260040161200b90613ea1565b60405180910390fd5b8173ffffffffffffffffffffffffffffffffffffffff1663eb8cdd34826040518263ffffffff1660e01b81526004016000604051808303818588803b15801561205c57600080fd5b505af1158015612070573d6000803e3d6000fd5b505050505080346120819190613bc2565b600e60008282546120929190613910565b925050819055506001601660003373ffffffffffffffffffffffffffffffffffffffff1673ffffffffffffffffffffffffffffffffffffffff16815260200190815260200160002060006101000a81548160ff021916908315150217905550601354426120ff9190613910565b601460003373ffffffffffffffffffffffffffffffffffffffff1673ffffffffffffffffffffffffffffffffffffffff1681526020019081526020016000208190555042601560003373ffffffffffffffffffffffffffffffffffffffff1673ffffffffffffffffffffffffffffffffffffffff1681526020019081526020016000208190555082601160003373ffffffffffffffffffffffffffffffffffffffff1673ffffffffffffffffffffffffffffffffffffffff1681526020019081526020016000208190555060016012600085815260200190815260200160002060020160008282546121f19190613910565b925050819055505b505050565b6000600560008473ffffffffffffffffffffffffffffffffffffffff1673ffffffffffffffffffffffffffffffffffffffff16815260200190815260200160002060008373ffffffffffffffffffffffffffffffffffffffff1673ffffffffffffffffffffffffffffffffffffffff16815260200190815260200160002060009054906101000a900460ff16905092915050565b6000600760009054906101000a900473ffffffffffffffffffffffffffffffffffffffff16905060006064346010546122cb9190613db3565b6122d59190613e24565b90508173ffffffffffffffffffffffffffffffffffffffff1663eb8cdd34826040518263ffffffff1660e01b81526004016000604051808303818588803b15801561231f57600080fd5b505af1158015612333573d6000803e3d6000fd5b505050505080346123449190613bc2565b600e60008282546123559190613910565b9250508190555034600f600082825461236e9190613910565b925050819055505050565b6123816124b1565b600073ffffffffffffffffffffffffffffffffffffffff168173ffffffffffffffffffffffffffffffffffffffff16036123f0576040517f08c379a00000000000000000000000000000000000000000000000000000000081526004016123e790613f33565b60405180910390fd5b6123f98161256c565b50565b60007f01ffc9a7000000000000000000000000000000000000000000000000000000007bffffffffffffffffffffffffffffffffffffffffffffffffffffffff1916827bffffffffffffffffffffffffffffffffffffffffffffffffffffffff1916149050919050565b61246f81612735565b6124ae576040517f08c379a00000000000000000000000000000000000000000000000000000000081526004016124a590613c71565b60405180910390fd5b50565b6124b9612776565b73ffffffffffffffffffffffffffffffffffffffff166124d7611986565b73ffffffffffffffffffffffffffffffffffffffff161461252d576040517f08c379a000000000000000000000000000000000000000000000000000000000815260040161252490613f9f565b60405180910390fd5b565b60006002600083815260200190815260200160002060009054906101000a900473ffffffffffffffffffffffffffffffffffffffff169050919050565b6000600660009054906101000a900473ffffffffffffffffffffffffffffffffffffffff16905081600660006101000a81548173ffffffffffffffffffffffffffffffffffffffff021916908373ffffffffffffffffffffffffffffffffffffffff1602179055508173ffffffffffffffffffffffffffffffffffffffff168173ffffffffffffffffffffffffffffffffffffffff167f8be0079c531659141344cd1fd0a4f28419497f9722a3daafe3b4186f6b6457e060405160405180910390a35050565b606060405180602001604052806000815250905090565b6060600060016126588461277e565b01905060008167ffffffffffffffff81111561267757612676613000565b5b6040519080825280601f01601f1916602001820160405280156126a95781602001600182028036833780820191505090505b509050600082602001820190505b60011561270c578080600190039150507f3031323334353637383961626364656600000000000000000000000000000000600a86061a8153600a8581612700576126ff613df5565b5b049450600085036126b7575b819350505050919050565b6127318282604051806020016040528060008152506128d1565b5050565b60008073ffffffffffffffffffffffffffffffffffffffff166127578361252f565b73ffffffffffffffffffffffffffffffffffffffff1614159050919050565b600033905090565b600080600090507a184f03e93ff9f4daa797ed6e38ed64bf6a1f01000000000000000083106127dc577a184f03e93ff9f4daa797ed6e38ed64bf6a1f01000000000000000083816127d2576127d1613df5565b5b0492506040810190505b6d04ee2d6d415b85acef81000000008310612819576d04ee2d6d415b85acef8100000000838161280f5761280e613df5565b5b0492506020810190505b662386f26fc10000831061284857662386f26fc10000838161283e5761283d613df5565b5b0492506010810190505b6305f5e1008310612871576305f5e100838161286757612866613df5565b5b0492506008810190505b612710831061289657612710838161288c5761288b613df5565b5b0492506004810190505b606483106128b957606483816128af576128ae613df5565b5b0492506002810190505b600a83106128c8576001810190505b80915050919050565b6128db838361292c565b6128e86000848484612b49565b612927576040517f08c379a000000000000000000000000000000000000000000000000000000000815260040161291e90614031565b60405180910390fd5b505050565b600073ffffffffffffffffffffffffffffffffffffffff168273ffffffffffffffffffffffffffffffffffffffff160361299b576040517f08c379a00000000000000000000000000000000000000000000000000000000081526004016129929061409d565b60405180910390fd5b6129a481612735565b156129e4576040517f08c379a00000000000000000000000000000000000000000000000000000000081526004016129db90614109565b60405180910390fd5b6129f2600083836001612cd0565b6129fb81612735565b15612a3b576040517f08c379a0000000000000000000000000000000000000000000000000000000008152600401612a3290614109565b60405180910390fd5b6001600360008473ffffffffffffffffffffffffffffffffffffffff1673ffffffffffffffffffffffffffffffffffffffff16815260200190815260200160002060008282540192505081905550816002600083815260200190815260200160002060006101000a81548173ffffffffffffffffffffffffffffffffffffffff021916908373ffffffffffffffffffffffffffffffffffffffff160217905550808273ffffffffffffffffffffffffffffffffffffffff16600073ffffffffffffffffffffffffffffffffffffffff167fddf252ad1be2c89b69c2b068fc378daa952ba7f163c4a11628f55a4df523b3ef60405160405180910390a4612b45600083836001612cd6565b5050565b6000612b6a8473ffffffffffffffffffffffffffffffffffffffff16612cdc565b15612cc3578373ffffffffffffffffffffffffffffffffffffffff1663150b7a02612b93612776565b8786866040518563ffffffff1660e01b8152600401612bb5949392919061417e565b6020604051808303816000875af1925050508015612bf157506040513d601f19601f82011682018060405250810190612bee91906141df565b60015b612c73573d8060008114612c21576040519150601f19603f3d011682016040523d82523d6000602084013e612c26565b606091505b506000815103612c6b576040517f08c379a0000000000000000000000000000000000000000000000000000000008152600401612c6290614031565b60405180910390fd5b805181602001fd5b63150b7a0260e01b7bffffffffffffffffffffffffffffffffffffffffffffffffffffffff1916817bffffffffffffffffffffffffffffffffffffffffffffffffffffffff191614915050612cc8565b600190505b949350505050565b50505050565b50505050565b6000808273ffffffffffffffffffffffffffffffffffffffff163b119050919050565b60405180606001604052806060815260200160008152602001600081525090565b6000819050919050565b612d3381612d20565b82525050565b6000602082019050612d4e6000830184612d2a565b92915050565b6000604051905090565b600080fd5b600080fd5b60007fffffffff0000000000000000000000000000000000000000000000000000000082169050919050565b612d9d81612d68565b8114612da857600080fd5b50565b600081359050612dba81612d94565b92915050565b600060208284031215612dd657612dd5612d5e565b5b6000612de484828501612dab565b91505092915050565b60008115159050919050565b612e0281612ded565b82525050565b6000602082019050612e1d6000830184612df9565b92915050565b600081519050919050565b600082825260208201905092915050565b60005b83811015612e5d578082015181840152602081019050612e42565b60008484015250505050565b6000601f19601f8301169050919050565b6000612e8582612e23565b612e8f8185612e2e565b9350612e9f818560208601612e3f565b612ea881612e69565b840191505092915050565b60006020820190508181036000830152612ecd8184612e7a565b905092915050565b612ede81612d20565b8114612ee957600080fd5b50565b600081359050612efb81612ed5565b92915050565b600060208284031215612f1757612f16612d5e565b5b6000612f2584828501612eec565b91505092915050565b600073ffffffffffffffffffffffffffffffffffffffff82169050919050565b6000612f5982612f2e565b9050919050565b612f6981612f4e565b82525050565b6000602082019050612f846000830184612f60565b92915050565b612f9381612f4e565b8114612f9e57600080fd5b50565b600081359050612fb081612f8a565b92915050565b60008060408385031215612fcd57612fcc612d5e565b5b6000612fdb85828601612fa1565b9250506020612fec85828601612eec565b9150509250929050565b600080fd5b600080fd5b7f4e487b7100000000000000000000000000000000000000000000000000000000600052604160045260246000fd5b61303882612e69565b810181811067ffffffffffffffff8211171561305757613056613000565b5b80604052505050565b600061306a612d54565b9050613076828261302f565b919050565b600067ffffffffffffffff82111561309657613095613000565b5b61309f82612e69565b9050602081019050919050565b82818337600083830152505050565b60006130ce6130c98461307b565b613060565b9050828152602081018484840111156130ea576130e9612ffb565b5b6130f58482856130ac565b509392505050565b600082601f83011261311257613111612ff6565b5b81356131228482602086016130bb565b91505092915050565b6000806000806080858703121561314557613144612d5e565b5b600085013567ffffffffffffffff81111561316357613162612d63565b5b61316f878288016130fd565b945050602085013567ffffffffffffffff8111156131905761318f612d63565b5b61319c878288016130fd565b935050604085013567ffffffffffffffff8111156131bd576131bc612d63565b5b6131c9878288016130fd565b92505060606131da87828801612eec565b91505092959194509250565b600081519050919050565b600082825260208201905092915050565b6000819050602082019050919050565b600082825260208201905092915050565b600061322e82612e23565b6132388185613212565b9350613248818560208601612e3f565b61325181612e69565b840191505092915050565b61326581612ded565b82525050565b61327481612d20565b82525050565b600060a08301600083015184820360008601526132978282613223565b915050602083015184820360208601526132b18282613223565b915050604083015184820360408601526132cb8282613223565b91505060608301516132e0606086018261325c565b5060808301516132f3608086018261326b565b508091505092915050565b600061330a838361327a565b905092915050565b6000602082019050919050565b600061332a826131e6565b61333481856131f1565b93508360208202850161334685613202565b8060005b85811015613382578484038952815161336385826132fe565b945061336e83613312565b925060208a0199505060018101905061334a565b50829750879550505050505092915050565b600060208201905081810360008301526133ae818461331f565b905092915050565b6000602082840312156133cc576133cb612d5e565b5b60006133da84828501612fa1565b91505092915050565b6000806000606084860312156133fc576133fb612d5e565b5b600061340a86828701612fa1565b935050602061341b86828701612fa1565b925050604061342c86828701612eec565b9150509250925092565b600060a08201905081810360008301526134508188612e7a565b905081810360208301526134648187612e7a565b905081810360408301526134788186612e7a565b90506134876060830185612df9565b6134946080830184612d2a565b9695505050505050565b6000602082840312156134b4576134b3612d5e565b5b600082013567ffffffffffffffff8111156134d2576134d1612d63565b5b6134de848285016130fd565b91505092915050565b600060608201905081810360008301526135018186612e7a565b90506135106020830185612d2a565b61351d6040830184612d2a565b949350505050565b600060608301600083015184820360008601526135428282613223565b9150506020830151613557602086018261326b565b50604083015161356a604086018261326b565b508091505092915050565b6000610100820190508181036000830152613590818b612e7a565b905081810360208301526135a4818a612e7a565b90506135b36040830189612d2a565b6135c06060830188612d2a565b6135cd6080830187612d2a565b81810360a08301526135df8186613525565b905081810360c08301526135f38185613525565b905081810360e08301526136078184613525565b90509998505050505050505050565b61361f81612ded565b811461362a57600080fd5b50565b60008135905061363c81613616565b92915050565b6000806040838503121561365957613658612d5e565b5b600061366785828601612fa1565b92505060206136788582860161362d565b9150509250929050565b600067ffffffffffffffff82111561369d5761369c613000565b5b6136a682612e69565b9050602081019050919050565b60006136c66136c184613682565b613060565b9050828152602081018484840111156136e2576136e1612ffb565b5b6136ed8482856130ac565b509392505050565b600082601f83011261370a57613709612ff6565b5b813561371a8482602086016136b3565b91505092915050565b6000806000806080858703121561373d5761373c612d5e565b5b600061374b87828801612fa1565b945050602061375c87828801612fa1565b935050604061376d87828801612eec565b925050606085013567ffffffffffffffff81111561378e5761378d612d63565b5b61379a878288016136f5565b91505092959194509250565b600080604083850312156137bd576137bc612d5e565b5b60006137cb85828601612fa1565b92505060206137dc85828601612fa1565b9150509250929050565b7f4e487b7100000000000000000000000000000000000000000000000000000000600052601160045260246000fd5b600061382082612d20565b91507fffffffffffffffffffffffffffffffffffffffffffffffffffffffffffffffff8203613852576138516137e6565b5b600182019050919050565b7f4e487b7100000000000000000000000000000000000000000000000000000000600052602260045260246000fd5b600060028204905060018216806138a457607f821691505b6020821081036138b7576138b661385d565b5b50919050565b600081905092915050565b60006138d382612e23565b6138dd81856138bd565b93506138ed818560208601612e3f565b80840191505092915050565b600061390582846138c8565b915081905092915050565b600061391b82612d20565b915061392683612d20565b925082820190508082111561393e5761393d6137e6565b5b92915050565b60008190508160005260206000209050919050565b60006020601f8301049050919050565b600082821b905092915050565b6000600883026139a67fffffffffffffffffffffffffffffffffffffffffffffffffffffffffffffffff82613969565b6139b08683613969565b95508019841693508086168417925050509392505050565b6000819050919050565b60006139ed6139e86139e384612d20565b6139c8565b612d20565b9050919050565b6000819050919050565b613a07836139d2565b613a1b613a13826139f4565b848454613976565b825550505050565b600090565b613a30613a23565b613a3b8184846139fe565b505050565b5b81811015613a5f57613a54600082613a28565b600181019050613a41565b5050565b601f821115613aa457613a7581613944565b613a7e84613959565b81016020851015613a8d578190505b613aa1613a9985613959565b830182613a40565b50505b505050565b600082821c905092915050565b6000613ac760001984600802613aa9565b1980831691505092915050565b6000613ae08383613ab6565b9150826002028217905092915050565b613af982612e23565b67ffffffffffffffff811115613b1257613b11613000565b5b613b1c825461388c565b613b27828285613a63565b600060209050601f831160018114613b5a5760008415613b48578287015190505b613b528582613ad4565b865550613bba565b601f198416613b6886613944565b60005b82811015613b9057848901518255600182019150602085019450602081019050613b6b565b86831015613bad5784890151613ba9601f891682613ab6565b8355505b6001600288020188555050505b505050505050565b6000613bcd82612d20565b9150613bd883612d20565b9250828203905081811115613bf057613bef6137e6565b5b92915050565b7f4e487b7100000000000000000000000000000000000000000000000000000000600052603260045260246000fd5b7f4552433732313a20696e76616c696420746f6b656e2049440000000000000000600082015250565b6000613c5b601883612e2e565b9150613c6682613c25565b602082019050919050565b60006020820190508181036000830152613c8a81613c4e565b9050919050565b7f4552433732313a2061646472657373207a65726f206973206e6f74206120766160008201527f6c6964206f776e65720000000000000000000000000000000000000000000000602082015250565b6000613ced602983612e2e565b9150613cf882613c91565b604082019050919050565b60006020820190508181036000830152613d1c81613ce0565b9050919050565b6000613d2f82856138c8565b9150613d3b82846138c8565b91508190509392505050565b7f696e76616c696420746965720000000000000000000000000000000000000000600082015250565b6000613d7d600c83612e2e565b9150613d8882613d47565b602082019050919050565b60006020820190508181036000830152613dac81613d70565b9050919050565b6000613dbe82612d20565b9150613dc983612d20565b9250828202613dd781612d20565b91508282048414831517613dee57613ded6137e6565b5b5092915050565b7f4e487b7100000000000000000000000000000000000000000000000000000000600052601260045260246000fd5b6000613e2f82612d20565b9150613e3a83612d20565b925082613e4a57613e49613df5565b5b828204905092915050565b7f7573657220616c72656164792073756273637269626564000000000000000000600082015250565b6000613e8b601783612e2e565b9150613e9682613e55565b602082019050919050565b60006020820190508181036000830152613eba81613e7e565b9050919050565b7f4f776e61626c653a206e6577206f776e657220697320746865207a65726f206160008201527f6464726573730000000000000000000000000000000000000000000000000000602082015250565b6000613f1d602683612e2e565b9150613f2882613ec1565b604082019050919050565b60006020820190508181036000830152613f4c81613f10565b9050919050565b7f4f776e61626c653a2063616c6c6572206973206e6f7420746865206f776e6572600082015250565b6000613f89602083612e2e565b9150613f9482613f53565b602082019050919050565b60006020820190508181036000830152613fb881613f7c565b9050919050565b7f4552433732313a207472616e7366657220746f206e6f6e20455243373231526560008201527f63656976657220696d706c656d656e7465720000000000000000000000000000602082015250565b600061401b603283612e2e565b915061402682613fbf565b604082019050919050565b6000602082019050818103600083015261404a8161400e565b9050919050565b7f4552433732313a206d696e7420746f20746865207a65726f2061646472657373600082015250565b6000614087602083612e2e565b915061409282614051565b602082019050919050565b600060208201905081810360008301526140b68161407a565b9050919050565b7f4552433732313a20746f6b656e20616c7265616479206d696e74656400000000600082015250565b60006140f3601c83612e2e565b91506140fe826140bd565b602082019050919050565b60006020820190508181036000830152614122816140e6565b9050919050565b600081519050919050565b600082825260208201905092915050565b600061415082614129565b61415a8185614134565b935061416a818560208601612e3f565b61417381612e69565b840191505092915050565b60006080820190506141936000830187612f60565b6141a06020830186612f60565b6141ad6040830185612d2a565b81810360608301526141bf8184614145565b905095945050505050565b6000815190506141d981612d94565b92915050565b6000602082840312156141f5576141f4612d5e565b5b6000614203848285016141ca565b9150509291505056fea2646970667358221220d7c6ed5c60ebd775191b630edebc89c7632d00552dbfc6ba92ba9f6641eb3e6464736f6c63430008120033a26469706673582212205f437ea06d5dada2eb2178d12535bc71400c26efa2527d5307ca143f8a7bc87a64736f6c63430008120033",
  "devdoc": {
    "kind": "dev",
    "methods": {},
    "version": 1
  },
  "userdoc": {
    "kind": "user",
    "methods": {},
    "version": 1
  },
  "storageLayout": {
    "storage": [
      {
        "astId": 2636,
        "contract": "contracts/UserFactory.sol:UserFactory",
        "label": "createdProfiles",
        "offset": 0,
        "slot": "0",
        "type": "t_array(t_address)dyn_storage"
      },
      {
        "astId": 2640,
        "contract": "contracts/UserFactory.sol:UserFactory",
        "label": "userProfile",
        "offset": 0,
        "slot": "1",
        "type": "t_mapping(t_string_memory_ptr,t_address)"
      },
      {
        "astId": 2644,
        "contract": "contracts/UserFactory.sol:UserFactory",
        "label": "creatorContract",
        "offset": 0,
        "slot": "2",
        "type": "t_mapping(t_address,t_address)"
      },
      {
        "astId": 2646,
        "contract": "contracts/UserFactory.sol:UserFactory",
        "label": "admin",
        "offset": 0,
        "slot": "3",
        "type": "t_address"
      },
      {
        "astId": 2648,
        "contract": "contracts/UserFactory.sol:UserFactory",
        "label": "suscriptionFee",
        "offset": 0,
        "slot": "4",
        "type": "t_uint256"
      },
      {
        "astId": 2650,
        "contract": "contracts/UserFactory.sol:UserFactory",
        "label": "amountRecaudedFees",
        "offset": 0,
        "slot": "5",
        "type": "t_uint256"
      }
    ],
    "types": {
      "t_address": {
        "encoding": "inplace",
        "label": "address",
        "numberOfBytes": "20"
      },
      "t_array(t_address)dyn_storage": {
        "base": "t_address",
        "encoding": "dynamic_array",
        "label": "address[]",
        "numberOfBytes": "32"
      },
      "t_mapping(t_address,t_address)": {
        "encoding": "mapping",
        "key": "t_address",
        "label": "mapping(address => address)",
        "numberOfBytes": "32",
        "value": "t_address"
      },
      "t_mapping(t_string_memory_ptr,t_address)": {
        "encoding": "mapping",
        "key": "t_string_memory_ptr",
        "label": "mapping(string => address)",
        "numberOfBytes": "32",
        "value": "t_address"
      },
      "t_string_memory_ptr": {
        "encoding": "bytes",
        "label": "string",
        "numberOfBytes": "32"
      },
      "t_uint256": {
        "encoding": "inplace",
        "label": "uint256",
        "numberOfBytes": "32"
      }
    }
  }
}