{
  "address": "0x5fa604644b4e7Bbf01328260405C90F26d095A0e",
  "abi": [
    {
      "inputs": [],
      "stateMutability": "nonpayable",
      "type": "constructor"
    },
    {
      "inputs": [],
      "name": "admin",
      "outputs": [
        {
          "internalType": "address",
          "name": "",
          "type": "address"
        }
      ],
      "stateMutability": "view",
      "type": "function"
    },
    {
      "inputs": [
        {
          "internalType": "string",
          "name": "_tokenName",
          "type": "string"
        },
        {
          "internalType": "string",
          "name": "_tokenSymbol",
          "type": "string"
        },
        {
          "internalType": "string",
          "name": "_name",
          "type": "string"
        },
        {
          "internalType": "string",
          "name": "_description",
          "type": "string"
        },
        {
          "internalType": "uint256",
          "name": "_subscriptionAmount",
          "type": "uint256"
        }
      ],
      "name": "createProfile",
      "outputs": [],
      "stateMutability": "nonpayable",
      "type": "function"
    },
    {
      "inputs": [
        {
          "internalType": "uint256",
          "name": "",
          "type": "uint256"
        }
      ],
      "name": "createdProfiles",
      "outputs": [
        {
          "internalType": "address",
          "name": "",
          "type": "address"
        }
      ],
      "stateMutability": "view",
      "type": "function"
    },
    {
      "inputs": [],
      "name": "getAllCreators",
      "outputs": [
        {
          "internalType": "address[]",
          "name": "",
          "type": "address[]"
        }
      ],
      "stateMutability": "view",
      "type": "function"
    },
    {
      "inputs": [
        {
          "internalType": "address",
          "name": "_creator",
          "type": "address"
        }
      ],
      "name": "getCreator",
      "outputs": [
        {
          "internalType": "string",
          "name": "",
          "type": "string"
        },
        {
          "internalType": "string",
          "name": "",
          "type": "string"
        },
        {
          "internalType": "uint256",
          "name": "",
          "type": "uint256"
        }
      ],
      "stateMutability": "view",
      "type": "function"
    },
    {
      "inputs": [
        {
          "internalType": "string",
          "name": "",
          "type": "string"
        }
      ],
      "name": "userProfile",
      "outputs": [
        {
          "internalType": "address",
          "name": "",
          "type": "address"
        }
      ],
      "stateMutability": "view",
      "type": "function"
    },
    {
      "inputs": [],
      "name": "working",
      "outputs": [
        {
          "internalType": "string",
          "name": "",
          "type": "string"
        }
      ],
      "stateMutability": "pure",
      "type": "function"
    }
  ],
  "transactionHash": "0x5a0f5fcdab1bb0438515ade86cf3a144164cb611513e32807c763ee02f478198",
  "args": [],
  "numDeployments": 4,
  "solcInputHash": "2088f53e97ecd6069ee916af0cf193f6",
  "bytecode": "0x608060405234801561001057600080fd5b5033600260006101000a81548173ffffffffffffffffffffffffffffffffffffffff021916908373ffffffffffffffffffffffffffffffffffffffff16021790555061559f806100616000396000f3fe60806040523480156200001157600080fd5b5060043610620000885760003560e01c8063c2d8e1ad1162000063578063c2d8e1ad1462000107578063f193e1a5146200013d578063f851a4401462000173578063f97fac4d14620001955762000088565b80637cfe4053146200008d5780639f08a68c14620000ad578063a021030914620000cf575b600080fd5b620000ab6004803603810190620000a5919062000712565b620001b7565b005b620000b76200034e565b604051620000c691906200089f565b60405180910390f35b620000ed6004803603810190620000e7919062000928565b6200038b565b604051620000fe939291906200096b565b60405180910390f35b6200012560048036038101906200011f9190620009b6565b62000414565b60405162000134919062000a18565b60405180910390f35b6200015b600480360381019062000155919062000a35565b6200045d565b6040516200016a919062000a18565b60405180910390f35b6200017d6200049d565b6040516200018c919062000a18565b60405180910390f35b6200019f620004c3565b604051620001ae919062000b35565b60405180910390f35b6000600184604051620001cb919062000b9b565b908152602001604051809103902060009054906101000a900473ffffffffffffffffffffffffffffffffffffffff169050600073ffffffffffffffffffffffffffffffffffffffff168173ffffffffffffffffffffffffffffffffffffffff16146200023657600080fd5b60008686338787876040516200024c9062000553565b6200025d9695949392919062000bb4565b604051809103906000f0801580156200027a573d6000803e3d6000fd5b50905060008190506000819080600181540180825580915050600190039060005260206000200160009091909190916101000a81548173ffffffffffffffffffffffffffffffffffffffff021916908373ffffffffffffffffffffffffffffffffffffffff16021790555080600187604051620002f8919062000b9b565b908152602001604051809103902060006101000a81548173ffffffffffffffffffffffffffffffffffffffff021916908373ffffffffffffffffffffffffffffffffffffffff1602179055505050505050505050565b60606040518060400160405280601b81526020017f79657320736d61727420636f6e7472616374206465706c6f7965640000000000815250905090565b60608060008373ffffffffffffffffffffffffffffffffffffffff166335afba4a6040518163ffffffff1660e01b8152600401600060405180830381865afa158015620003dc573d6000803e3d6000fd5b505050506040513d6000823e3d601f19601f8201168201806040525081019062000407919062000cd2565b9250925092509193909250565b6001818051602081018201805184825260208301602085012081835280955050505050506000915054906101000a900473ffffffffffffffffffffffffffffffffffffffff1681565b600081815481106200046e57600080fd5b906000526020600020016000915054906101000a900473ffffffffffffffffffffffffffffffffffffffff1681565b600260009054906101000a900473ffffffffffffffffffffffffffffffffffffffff1681565b606060008054806020026020016040519081016040528092919081815260200182805480156200054957602002820191906000526020600020905b8160009054906101000a900473ffffffffffffffffffffffffffffffffffffffff1673ffffffffffffffffffffffffffffffffffffffff1681526020019060010190808311620004fe575b5050505050905090565b6147fd8062000d6d83390190565b6000604051905090565b600080fd5b600080fd5b600080fd5b600080fd5b6000601f19601f8301169050919050565b7f4e487b7100000000000000000000000000000000000000000000000000000000600052604160045260246000fd5b620005ca826200057f565b810181811067ffffffffffffffff82111715620005ec57620005eb62000590565b5b80604052505050565b60006200060162000561565b90506200060f8282620005bf565b919050565b600067ffffffffffffffff82111562000632576200063162000590565b5b6200063d826200057f565b9050602081019050919050565b82818337600083830152505050565b6000620006706200066a8462000614565b620005f5565b9050828152602081018484840111156200068f576200068e6200057a565b5b6200069c8482856200064a565b509392505050565b600082601f830112620006bc57620006bb62000575565b5b8135620006ce84826020860162000659565b91505092915050565b6000819050919050565b620006ec81620006d7565b8114620006f857600080fd5b50565b6000813590506200070c81620006e1565b92915050565b600080600080600060a086880312156200073157620007306200056b565b5b600086013567ffffffffffffffff81111562000752576200075162000570565b5b6200076088828901620006a4565b955050602086013567ffffffffffffffff81111562000784576200078362000570565b5b6200079288828901620006a4565b945050604086013567ffffffffffffffff811115620007b657620007b562000570565b5b620007c488828901620006a4565b935050606086013567ffffffffffffffff811115620007e857620007e762000570565b5b620007f688828901620006a4565b92505060806200080988828901620006fb565b9150509295509295909350565b600081519050919050565b600082825260208201905092915050565b60005b838110156200085257808201518184015260208101905062000835565b60008484015250505050565b60006200086b8262000816565b62000877818562000821565b93506200088981856020860162000832565b62000894816200057f565b840191505092915050565b60006020820190508181036000830152620008bb81846200085e565b905092915050565b600073ffffffffffffffffffffffffffffffffffffffff82169050919050565b6000620008f082620008c3565b9050919050565b6200090281620008e3565b81146200090e57600080fd5b50565b6000813590506200092281620008f7565b92915050565b6000602082840312156200094157620009406200056b565b5b6000620009518482850162000911565b91505092915050565b6200096581620006d7565b82525050565b600060608201905081810360008301526200098781866200085e565b905081810360208301526200099d81856200085e565b9050620009ae60408301846200095a565b949350505050565b600060208284031215620009cf57620009ce6200056b565b5b600082013567ffffffffffffffff811115620009f057620009ef62000570565b5b620009fe84828501620006a4565b91505092915050565b62000a1281620008e3565b82525050565b600060208201905062000a2f600083018462000a07565b92915050565b60006020828403121562000a4e5762000a4d6200056b565b5b600062000a5e84828501620006fb565b91505092915050565b600081519050919050565b600082825260208201905092915050565b6000819050602082019050919050565b62000a9e81620008e3565b82525050565b600062000ab2838362000a93565b60208301905092915050565b6000602082019050919050565b600062000ad88262000a67565b62000ae4818562000a72565b935062000af18362000a83565b8060005b8381101562000b2857815162000b0c888262000aa4565b975062000b198362000abe565b92505060018101905062000af5565b5085935050505092915050565b6000602082019050818103600083015262000b51818462000acb565b905092915050565b600081905092915050565b600062000b718262000816565b62000b7d818562000b59565b935062000b8f81856020860162000832565b80840191505092915050565b600062000ba9828462000b64565b915081905092915050565b600060c082019050818103600083015262000bd081896200085e565b9050818103602083015262000be681886200085e565b905062000bf7604083018762000a07565b818103606083015262000c0b81866200085e565b9050818103608083015262000c2181856200085e565b905062000c3260a08301846200095a565b979650505050505050565b600062000c5462000c4e8462000614565b620005f5565b90508281526020810184848401111562000c735762000c726200057a565b5b62000c8084828562000832565b509392505050565b600082601f83011262000ca05762000c9f62000575565b5b815162000cb284826020860162000c3d565b91505092915050565b60008151905062000ccc81620006e1565b92915050565b60008060006060848603121562000cee5762000ced6200056b565b5b600084015167ffffffffffffffff81111562000d0f5762000d0e62000570565b5b62000d1d8682870162000c88565b935050602084015167ffffffffffffffff81111562000d415762000d4062000570565b5b62000d4f8682870162000c88565b925050604062000d628682870162000cbb565b915050925092509256fe60806040523480156200001157600080fd5b50604051620047fd380380620047fd8339818101604052810190620000379190620003d8565b858581600090816200004a919062000731565b5080600190816200005c919062000731565b5050506200007f62000073620000d760201b60201c565b620000df60201b60201c565b6200009084620000df60201b60201c565b8260079081620000a1919062000731565b508160089081620000b3919062000731565b50620f424081620000c5919062000847565b600b8190555050505050505062000892565b600033905090565b6000600660009054906101000a900473ffffffffffffffffffffffffffffffffffffffff16905081600660006101000a81548173ffffffffffffffffffffffffffffffffffffffff021916908373ffffffffffffffffffffffffffffffffffffffff1602179055508173ffffffffffffffffffffffffffffffffffffffff168173ffffffffffffffffffffffffffffffffffffffff167f8be0079c531659141344cd1fd0a4f28419497f9722a3daafe3b4186f6b6457e060405160405180910390a35050565b6000604051905090565b600080fd5b600080fd5b600080fd5b600080fd5b6000601f19601f8301169050919050565b7f4e487b7100000000000000000000000000000000000000000000000000000000600052604160045260246000fd5b6200020e82620001c3565b810181811067ffffffffffffffff8211171562000230576200022f620001d4565b5b80604052505050565b600062000245620001a5565b905062000253828262000203565b919050565b600067ffffffffffffffff821115620002765762000275620001d4565b5b6200028182620001c3565b9050602081019050919050565b60005b83811015620002ae57808201518184015260208101905062000291565b60008484015250505050565b6000620002d1620002cb8462000258565b62000239565b905082815260208101848484011115620002f057620002ef620001be565b5b620002fd8482856200028e565b509392505050565b600082601f8301126200031d576200031c620001b9565b5b81516200032f848260208601620002ba565b91505092915050565b600073ffffffffffffffffffffffffffffffffffffffff82169050919050565b6000620003658262000338565b9050919050565b620003778162000358565b81146200038357600080fd5b50565b60008151905062000397816200036c565b92915050565b6000819050919050565b620003b2816200039d565b8114620003be57600080fd5b50565b600081519050620003d281620003a7565b92915050565b60008060008060008060c08789031215620003f857620003f7620001af565b5b600087015167ffffffffffffffff811115620004195762000418620001b4565b5b6200042789828a0162000305565b965050602087015167ffffffffffffffff8111156200044b576200044a620001b4565b5b6200045989828a0162000305565b95505060406200046c89828a0162000386565b945050606087015167ffffffffffffffff81111562000490576200048f620001b4565b5b6200049e89828a0162000305565b935050608087015167ffffffffffffffff811115620004c257620004c1620001b4565b5b620004d089828a0162000305565b92505060a0620004e389828a01620003c1565b9150509295509295509295565b600081519050919050565b7f4e487b7100000000000000000000000000000000000000000000000000000000600052602260045260246000fd5b600060028204905060018216806200054357607f821691505b602082108103620005595762000558620004fb565b5b50919050565b60008190508160005260206000209050919050565b60006020601f8301049050919050565b600082821b905092915050565b600060088302620005c37fffffffffffffffffffffffffffffffffffffffffffffffffffffffffffffffff8262000584565b620005cf868362000584565b95508019841693508086168417925050509392505050565b6000819050919050565b6000620006126200060c62000606846200039d565b620005e7565b6200039d565b9050919050565b6000819050919050565b6200062e83620005f1565b620006466200063d8262000619565b84845462000591565b825550505050565b600090565b6200065d6200064e565b6200066a81848462000623565b505050565b5b8181101562000692576200068660008262000653565b60018101905062000670565b5050565b601f821115620006e157620006ab816200055f565b620006b68462000574565b81016020851015620006c6578190505b620006de620006d58562000574565b8301826200066f565b50505b505050565b600082821c905092915050565b60006200070660001984600802620006e6565b1980831691505092915050565b6000620007218383620006f3565b9150826002028217905092915050565b6200073c82620004f0565b67ffffffffffffffff811115620007585762000757620001d4565b5b6200076482546200052a565b6200077182828562000696565b600060209050601f831160018114620007a9576000841562000794578287015190505b620007a0858262000713565b86555062000810565b601f198416620007b9866200055f565b60005b82811015620007e357848901518255600182019150602085019450602081019050620007bc565b86831015620008035784890151620007ff601f891682620006f3565b8355505b6001600288020188555050505b505050505050565b7f4e487b7100000000000000000000000000000000000000000000000000000000600052601160045260246000fd5b600062000854826200039d565b915062000861836200039d565b925082820262000871816200039d565b915082820484148315176200088b576200088a62000818565b5b5092915050565b613f5b80620008a26000396000f3fe6080604052600436106101f85760003560e01c8063715018a61161010d578063a7bd9d5f116100a0578063c707944b1161006f578063c707944b146106f9578063c87b56dd14610724578063e985e9c514610761578063ed88c68e1461079e578063f2fde38b146107a8576101f8565b8063a7bd9d5f14610670578063b1d140681461067a578063b88d4fde146106a5578063c5da7604146106ce576101f8565b80638da5cb5b116100dc5780638da5cb5b146105c657806395d89b41146105f1578063a22cb4651461061c578063a3e3981114610645576101f8565b8063715018a6146105195780637235d7d9146105305780638356c1e11461056d578063863678e91461059d576101f8565b806327e25dcc1161019057806335afba4a1161015f57806335afba4a1461043257806342842e0e1461045f578063534844a2146104885780636352211e1461049f57806370a08231146104dc576101f8565b806327e25dcc146103755780632a835567146103b55780632ae25fd2146103de5780632dc282e914610407576101f8565b8063095ea7b3116101cc578063095ea7b3146102cd578063130b4c09146102f65780631dbe69d41461032157806323b872dd1461034c576101f8565b8062b37044146101fd57806301ffc9a71461022857806306fdde0314610265578063081812fc14610290575b600080fd5b34801561020957600080fd5b506102126107d1565b60405161021f919061295e565b60405180910390f35b34801561023457600080fd5b5061024f600480360381019061024a91906129e5565b6107d7565b60405161025c9190612a2d565b60405180910390f35b34801561027157600080fd5b5061027a6108b9565b6040516102879190612ad8565b60405180910390f35b34801561029c57600080fd5b506102b760048036038101906102b29190612b26565b61094b565b6040516102c49190612b94565b60405180910390f35b3480156102d957600080fd5b506102f460048036038101906102ef9190612bdb565b610991565b005b34801561030257600080fd5b5061030b610aa8565b604051610318919061295e565b60405180910390f35b34801561032d57600080fd5b50610336610aae565b6040516103439190612da7565b60405180910390f35b34801561035857600080fd5b50610373600480360381019061036e9190612dc9565b610cde565b005b34801561038157600080fd5b5061039c60048036038101906103979190612b26565b610d3e565b6040516103ac9493929190612e1c565b60405180910390f35b3480156103c157600080fd5b506103dc60048036038101906103d79190612fab565b610f23565b005b3480156103ea57600080fd5b5061040560048036038101906104009190613052565b61104d565b005b34801561041357600080fd5b5061041c6110d3565b604051610429919061295e565b60405180910390f35b34801561043e57600080fd5b506104476110d9565b6040516104569392919061309b565b60405180910390f35b34801561046b57600080fd5b5061048660048036038101906104819190612dc9565b611208565b005b34801561049457600080fd5b5061049d611228565b005b3480156104ab57600080fd5b506104c660048036038101906104c19190612b26565b611290565b6040516104d39190612b94565b60405180910390f35b3480156104e857600080fd5b5061050360048036038101906104fe91906130e0565b611316565b604051610510919061295e565b60405180910390f35b34801561052557600080fd5b5061052e6113cd565b005b34801561053c57600080fd5b5061055760048036038101906105529190613052565b6113e1565b604051610564919061295e565b60405180910390f35b34801561057957600080fd5b5061058261140f565b6040516105949695949392919061310d565b60405180910390f35b3480156105a957600080fd5b506105c460048036038101906105bf9190613052565b611554565b005b3480156105d257600080fd5b506105db6115da565b6040516105e89190612b94565b60405180910390f35b3480156105fd57600080fd5b50610606611604565b6040516106139190612ad8565b60405180910390f35b34801561062857600080fd5b50610643600480360381019061063e91906131a8565b611696565b005b34801561065157600080fd5b5061065a6116ac565b6040516106679190612ad8565b60405180910390f35b61067861173a565b005b34801561068657600080fd5b5061068f611784565b60405161069c919061295e565b60405180910390f35b3480156106b157600080fd5b506106cc60048036038101906106c79190613289565b61178a565b005b3480156106da57600080fd5b506106e36117ec565b6040516106f09190612ad8565b60405180910390f35b34801561070557600080fd5b5061070e61187a565b60405161071b919061295e565b60405180910390f35b34801561073057600080fd5b5061074b60048036038101906107469190612b26565b611880565b6040516107589190612ad8565b60405180910390f35b34801561076d57600080fd5b506107886004803603810190610783919061330c565b6118e8565b6040516107959190612a2d565b60405180910390f35b6107a661197c565b005b3480156107b457600080fd5b506107cf60048036038101906107ca91906130e0565b6119b0565b005b600f5481565b60007f80ac58cd000000000000000000000000000000000000000000000000000000007bffffffffffffffffffffffffffffffffffffffffffffffffffffffff1916827bffffffffffffffffffffffffffffffffffffffffffffffffffffffff191614806108a257507f5b5e139f000000000000000000000000000000000000000000000000000000007bffffffffffffffffffffffffffffffffffffffffffffffffffffffff1916827bffffffffffffffffffffffffffffffffffffffffffffffffffffffff1916145b806108b257506108b182611a33565b5b9050919050565b6060600080546108c89061337b565b80601f01602080910402602001604051908101604052809291908181526020018280546108f49061337b565b80156109415780601f1061091657610100808354040283529160200191610941565b820191906000526020600020905b81548152906001019060200180831161092457829003601f168201915b5050505050905090565b600061095682611a9d565b6004600083815260200190815260200160002060009054906101000a900473ffffffffffffffffffffffffffffffffffffffff169050919050565b600061099c82611290565b90508073ffffffffffffffffffffffffffffffffffffffff168373ffffffffffffffffffffffffffffffffffffffff1603610a0c576040517f08c379a0000000000000000000000000000000000000000000000000000000008152600401610a039061341e565b60405180910390fd5b8073ffffffffffffffffffffffffffffffffffffffff16610a2b611ae8565b73ffffffffffffffffffffffffffffffffffffffff161480610a5a5750610a5981610a54611ae8565b6118e8565b5b610a99576040517f08c379a0000000000000000000000000000000000000000000000000000000008152600401610a90906134b0565b60405180910390fd5b610aa38383611af0565b505050565b600b5481565b6060600c805480602002602001604051908101604052809291908181526020016000905b82821015610cd55783829060005260206000209060040201604051806080016040529081600082018054610b059061337b565b80601f0160208091040260200160405190810160405280929190818152602001828054610b319061337b565b8015610b7e5780601f10610b5357610100808354040283529160200191610b7e565b820191906000526020600020905b815481529060010190602001808311610b6157829003601f168201915b50505050508152602001600182018054610b979061337b565b80601f0160208091040260200160405190810160405280929190818152602001828054610bc39061337b565b8015610c105780601f10610be557610100808354040283529160200191610c10565b820191906000526020600020905b815481529060010190602001808311610bf357829003601f168201915b50505050508152602001600282018054610c299061337b565b80601f0160208091040260200160405190810160405280929190818152602001828054610c559061337b565b8015610ca25780601f10610c7757610100808354040283529160200191610ca2565b820191906000526020600020905b815481529060010190602001808311610c8557829003601f168201915b505050505081526020016003820160009054906101000a900460ff16151515158152505081526020019060010190610ad2565b50505050905090565b610cef610ce9611ae8565b82611ba9565b610d2e576040517f08c379a0000000000000000000000000000000000000000000000000000000008152600401610d2590613542565b60405180910390fd5b610d39838383611c3e565b505050565b600c8181548110610d4e57600080fd5b9060005260206000209060040201600091509050806000018054610d719061337b565b80601f0160208091040260200160405190810160405280929190818152602001828054610d9d9061337b565b8015610dea5780601f10610dbf57610100808354040283529160200191610dea565b820191906000526020600020905b815481529060010190602001808311610dcd57829003601f168201915b505050505090806001018054610dff9061337b565b80601f0160208091040260200160405190810160405280929190818152602001828054610e2b9061337b565b8015610e785780601f10610e4d57610100808354040283529160200191610e78565b820191906000526020600020905b815481529060010190602001808311610e5b57829003601f168201915b505050505090806002018054610e8d9061337b565b80601f0160208091040260200160405190810160405280929190818152602001828054610eb99061337b565b8015610f065780601f10610edb57610100808354040283529160200191610f06565b820191906000526020600020905b815481529060010190602001808311610ee957829003601f168201915b5050505050908060030160009054906101000a900460ff16905084565b610f2b611f37565b6000600d83604051610f3d919061359e565b90815260200160405180910390205414610f5657600080fd5b6001600a6000828254610f6991906135e4565b92505081905550600a54600d83604051610f83919061359e565b908152602001604051809103902081905550600c60405180608001604052808581526020018481526020018381526020016000151581525090806001815401808255809150506001900390600052602060002090600402016000909190919091506000820151816000019081610ff991906137c4565b50602082015181600101908161100f91906137c4565b50604082015181600201908161102591906137c4565b5060608201518160030160006101000a81548160ff0219169083151502179055505050505050565b611055611f37565b6000600d82604051611067919061359e565b90815260200160405180910390205490506000811161108557600080fd5b6000600c6001836110969190613896565b815481106110a7576110a66138ca565b5b906000526020600020906004020160030160006101000a81548160ff0219169083151502179055505050565b600a5481565b606080600060076008600b548280546110f19061337b565b80601f016020809104026020016040519081016040528092919081815260200182805461111d9061337b565b801561116a5780601f1061113f5761010080835404028352916020019161116a565b820191906000526020600020905b81548152906001019060200180831161114d57829003601f168201915b5050505050925081805461117d9061337b565b80601f01602080910402602001604051908101604052809291908181526020018280546111a99061337b565b80156111f65780601f106111cb576101008083540402835291602001916111f6565b820191906000526020600020905b8154815290600101906020018083116111d957829003601f168201915b50505050509150925092509250909192565b6112238383836040518060200160405280600081525061178a565b505050565b611230611f37565b600061123a6115da565b90508073ffffffffffffffffffffffffffffffffffffffff166108fc600e549081150290604051600060405180830381858888f19350505050158015611284573d6000803e3d6000fd5b506000600e8190555050565b60008061129c83611fb5565b9050600073ffffffffffffffffffffffffffffffffffffffff168173ffffffffffffffffffffffffffffffffffffffff160361130d576040517f08c379a000000000000000000000000000000000000000000000000000000000815260040161130490613945565b60405180910390fd5b80915050919050565b60008073ffffffffffffffffffffffffffffffffffffffff168273ffffffffffffffffffffffffffffffffffffffff1603611386576040517f08c379a000000000000000000000000000000000000000000000000000000000815260040161137d906139d7565b60405180910390fd5b600360008373ffffffffffffffffffffffffffffffffffffffff1673ffffffffffffffffffffffffffffffffffffffff168152602001908152602001600020549050919050565b6113d5611f37565b6113df6000611ff2565b565b600d818051602081018201805184825260208301602085012081835280955050505050506000915090505481565b60608060008060008060076008600954600a54600b54600e548580546114349061337b565b80601f01602080910402602001604051908101604052809291908181526020018280546114609061337b565b80156114ad5780601f10611482576101008083540402835291602001916114ad565b820191906000526020600020905b81548152906001019060200180831161149057829003601f168201915b505050505095508480546114c09061337b565b80601f01602080910402602001604051908101604052809291908181526020018280546114ec9061337b565b80156115395780601f1061150e57610100808354040283529160200191611539565b820191906000526020600020905b81548152906001019060200180831161151c57829003601f168201915b50505050509450955095509550955095509550909192939495565b61155c611f37565b6000600d8260405161156e919061359e565b90815260200160405180910390205490506000811161158c57600080fd5b6001600c60018361159d9190613896565b815481106115ae576115ad6138ca565b5b906000526020600020906004020160030160006101000a81548160ff0219169083151502179055505050565b6000600660009054906101000a900473ffffffffffffffffffffffffffffffffffffffff16905090565b6060600180546116139061337b565b80601f016020809104026020016040519081016040528092919081815260200182805461163f9061337b565b801561168c5780601f106116615761010080835404028352916020019161168c565b820191906000526020600020905b81548152906001019060200180831161166f57829003601f168201915b5050505050905090565b6116a86116a1611ae8565b83836120b8565b5050565b600880546116b99061337b565b80601f01602080910402602001604051908101604052809291908181526020018280546116e59061337b565b80156117325780601f1061170757610100808354040283529160200191611732565b820191906000526020600020905b81548152906001019060200180831161171557829003601f168201915b505050505081565b600b54341161174857600080fd5b600160095461175791906135e4565b60098190555061176933600954612224565b34600e600082825461177b91906135e4565b92505081905550565b600e5481565b61179b611795611ae8565b83611ba9565b6117da576040517f08c379a00000000000000000000000000000000000000000000000000000000081526004016117d190613542565b60405180910390fd5b6117e684848484612242565b50505050565b600780546117f99061337b565b80601f01602080910402602001604051908101604052809291908181526020018280546118259061337b565b80156118725780601f1061184757610100808354040283529160200191611872565b820191906000526020600020905b81548152906001019060200180831161185557829003601f168201915b505050505081565b60095481565b606061188b82611a9d565b600061189561229e565b905060008151116118b557604051806020016040528060008152506118e0565b806118bf846122b5565b6040516020016118d09291906139f7565b6040516020818303038152906040525b915050919050565b6000600560008473ffffffffffffffffffffffffffffffffffffffff1673ffffffffffffffffffffffffffffffffffffffff16815260200190815260200160002060008373ffffffffffffffffffffffffffffffffffffffff1673ffffffffffffffffffffffffffffffffffffffff16815260200190815260200160002060009054906101000a900460ff16905092915050565b34600e600082825461198e91906135e4565b9250508190555034600f60008282546119a791906135e4565b92505081905550565b6119b8611f37565b600073ffffffffffffffffffffffffffffffffffffffff168173ffffffffffffffffffffffffffffffffffffffff1603611a27576040517f08c379a0000000000000000000000000000000000000000000000000000000008152600401611a1e90613a8d565b60405180910390fd5b611a3081611ff2565b50565b60007f01ffc9a7000000000000000000000000000000000000000000000000000000007bffffffffffffffffffffffffffffffffffffffffffffffffffffffff1916827bffffffffffffffffffffffffffffffffffffffffffffffffffffffff1916149050919050565b611aa681612383565b611ae5576040517f08c379a0000000000000000000000000000000000000000000000000000000008152600401611adc90613945565b60405180910390fd5b50565b600033905090565b816004600083815260200190815260200160002060006101000a81548173ffffffffffffffffffffffffffffffffffffffff021916908373ffffffffffffffffffffffffffffffffffffffff160217905550808273ffffffffffffffffffffffffffffffffffffffff16611b6383611290565b73ffffffffffffffffffffffffffffffffffffffff167f8c5be1e5ebec7d5bd14f71427d1e84f3dd0314c0f7b2291e5b200ac8c7c3b92560405160405180910390a45050565b600080611bb583611290565b90508073ffffffffffffffffffffffffffffffffffffffff168473ffffffffffffffffffffffffffffffffffffffff161480611bf75750611bf681856118e8565b5b80611c3557508373ffffffffffffffffffffffffffffffffffffffff16611c1d8461094b565b73ffffffffffffffffffffffffffffffffffffffff16145b91505092915050565b8273ffffffffffffffffffffffffffffffffffffffff16611c5e82611290565b73ffffffffffffffffffffffffffffffffffffffff1614611cb4576040517f08c379a0000000000000000000000000000000000000000000000000000000008152600401611cab90613b1f565b60405180910390fd5b600073ffffffffffffffffffffffffffffffffffffffff168273ffffffffffffffffffffffffffffffffffffffff1603611d23576040517f08c379a0000000000000000000000000000000000000000000000000000000008152600401611d1a90613bb1565b60405180910390fd5b611d3083838360016123c4565b8273ffffffffffffffffffffffffffffffffffffffff16611d5082611290565b73ffffffffffffffffffffffffffffffffffffffff1614611da6576040517f08c379a0000000000000000000000000000000000000000000000000000000008152600401611d9d90613b1f565b60405180910390fd5b6004600082815260200190815260200160002060006101000a81549073ffffffffffffffffffffffffffffffffffffffff02191690556001600360008573ffffffffffffffffffffffffffffffffffffffff1673ffffffffffffffffffffffffffffffffffffffff168152602001908152602001600020600082825403925050819055506001600360008473ffffffffffffffffffffffffffffffffffffffff1673ffffffffffffffffffffffffffffffffffffffff16815260200190815260200160002060008282540192505081905550816002600083815260200190815260200160002060006101000a81548173ffffffffffffffffffffffffffffffffffffffff021916908373ffffffffffffffffffffffffffffffffffffffff160217905550808273ffffffffffffffffffffffffffffffffffffffff168473ffffffffffffffffffffffffffffffffffffffff167fddf252ad1be2c89b69c2b068fc378daa952ba7f163c4a11628f55a4df523b3ef60405160405180910390a4611f3283838360016123ca565b505050565b611f3f611ae8565b73ffffffffffffffffffffffffffffffffffffffff16611f5d6115da565b73ffffffffffffffffffffffffffffffffffffffff1614611fb3576040517f08c379a0000000000000000000000000000000000000000000000000000000008152600401611faa90613c1d565b60405180910390fd5b565b60006002600083815260200190815260200160002060009054906101000a900473ffffffffffffffffffffffffffffffffffffffff169050919050565b6000600660009054906101000a900473ffffffffffffffffffffffffffffffffffffffff16905081600660006101000a81548173ffffffffffffffffffffffffffffffffffffffff021916908373ffffffffffffffffffffffffffffffffffffffff1602179055508173ffffffffffffffffffffffffffffffffffffffff168173ffffffffffffffffffffffffffffffffffffffff167f8be0079c531659141344cd1fd0a4f28419497f9722a3daafe3b4186f6b6457e060405160405180910390a35050565b8173ffffffffffffffffffffffffffffffffffffffff168373ffffffffffffffffffffffffffffffffffffffff1603612126576040517f08c379a000000000000000000000000000000000000000000000000000000000815260040161211d90613c89565b60405180910390fd5b80600560008573ffffffffffffffffffffffffffffffffffffffff1673ffffffffffffffffffffffffffffffffffffffff16815260200190815260200160002060008473ffffffffffffffffffffffffffffffffffffffff1673ffffffffffffffffffffffffffffffffffffffff16815260200190815260200160002060006101000a81548160ff0219169083151502179055508173ffffffffffffffffffffffffffffffffffffffff168373ffffffffffffffffffffffffffffffffffffffff167f17307eab39ab6107e8899845ad3d59bd9653f200f220920489ca2b5937696c31836040516122179190612a2d565b60405180910390a3505050565b61223e8282604051806020016040528060008152506123d0565b5050565b61224d848484611c3e565b6122598484848461242b565b612298576040517f08c379a000000000000000000000000000000000000000000000000000000000815260040161228f90613d1b565b60405180910390fd5b50505050565b606060405180602001604052806000815250905090565b6060600060016122c4846125b2565b01905060008167ffffffffffffffff8111156122e3576122e2612e80565b5b6040519080825280601f01601f1916602001820160405280156123155781602001600182028036833780820191505090505b509050600082602001820190505b600115612378578080600190039150507f3031323334353637383961626364656600000000000000000000000000000000600a86061a8153600a858161236c5761236b613d3b565b5b04945060008503612323575b819350505050919050565b60008073ffffffffffffffffffffffffffffffffffffffff166123a583611fb5565b73ffffffffffffffffffffffffffffffffffffffff1614159050919050565b50505050565b50505050565b6123da8383612705565b6123e7600084848461242b565b612426576040517f08c379a000000000000000000000000000000000000000000000000000000000815260040161241d90613d1b565b60405180910390fd5b505050565b600061244c8473ffffffffffffffffffffffffffffffffffffffff16612922565b156125a5578373ffffffffffffffffffffffffffffffffffffffff1663150b7a02612475611ae8565b8786866040518563ffffffff1660e01b81526004016124979493929190613dbf565b6020604051808303816000875af19250505080156124d357506040513d601f19601f820116820180604052508101906124d09190613e20565b60015b612555573d8060008114612503576040519150601f19603f3d011682016040523d82523d6000602084013e612508565b606091505b50600081510361254d576040517f08c379a000000000000000000000000000000000000000000000000000000000815260040161254490613d1b565b60405180910390fd5b805181602001fd5b63150b7a0260e01b7bffffffffffffffffffffffffffffffffffffffffffffffffffffffff1916817bffffffffffffffffffffffffffffffffffffffffffffffffffffffff1916149150506125aa565b600190505b949350505050565b600080600090507a184f03e93ff9f4daa797ed6e38ed64bf6a1f0100000000000000008310612610577a184f03e93ff9f4daa797ed6e38ed64bf6a1f010000000000000000838161260657612605613d3b565b5b0492506040810190505b6d04ee2d6d415b85acef8100000000831061264d576d04ee2d6d415b85acef8100000000838161264357612642613d3b565b5b0492506020810190505b662386f26fc10000831061267c57662386f26fc10000838161267257612671613d3b565b5b0492506010810190505b6305f5e10083106126a5576305f5e100838161269b5761269a613d3b565b5b0492506008810190505b61271083106126ca5761271083816126c0576126bf613d3b565b5b0492506004810190505b606483106126ed57606483816126e3576126e2613d3b565b5b0492506002810190505b600a83106126fc576001810190505b80915050919050565b600073ffffffffffffffffffffffffffffffffffffffff168273ffffffffffffffffffffffffffffffffffffffff1603612774576040517f08c379a000000000000000000000000000000000000000000000000000000000815260040161276b90613e99565b60405180910390fd5b61277d81612383565b156127bd576040517f08c379a00000000000000000000000000000000000000000000000000000000081526004016127b490613f05565b60405180910390fd5b6127cb6000838360016123c4565b6127d481612383565b15612814576040517f08c379a000000000000000000000000000000000000000000000000000000000815260040161280b90613f05565b60405180910390fd5b6001600360008473ffffffffffffffffffffffffffffffffffffffff1673ffffffffffffffffffffffffffffffffffffffff16815260200190815260200160002060008282540192505081905550816002600083815260200190815260200160002060006101000a81548173ffffffffffffffffffffffffffffffffffffffff021916908373ffffffffffffffffffffffffffffffffffffffff160217905550808273ffffffffffffffffffffffffffffffffffffffff16600073ffffffffffffffffffffffffffffffffffffffff167fddf252ad1be2c89b69c2b068fc378daa952ba7f163c4a11628f55a4df523b3ef60405160405180910390a461291e6000838360016123ca565b5050565b6000808273ffffffffffffffffffffffffffffffffffffffff163b119050919050565b6000819050919050565b61295881612945565b82525050565b6000602082019050612973600083018461294f565b92915050565b6000604051905090565b600080fd5b600080fd5b60007fffffffff0000000000000000000000000000000000000000000000000000000082169050919050565b6129c28161298d565b81146129cd57600080fd5b50565b6000813590506129df816129b9565b92915050565b6000602082840312156129fb576129fa612983565b5b6000612a09848285016129d0565b91505092915050565b60008115159050919050565b612a2781612a12565b82525050565b6000602082019050612a426000830184612a1e565b92915050565b600081519050919050565b600082825260208201905092915050565b60005b83811015612a82578082015181840152602081019050612a67565b60008484015250505050565b6000601f19601f8301169050919050565b6000612aaa82612a48565b612ab48185612a53565b9350612ac4818560208601612a64565b612acd81612a8e565b840191505092915050565b60006020820190508181036000830152612af28184612a9f565b905092915050565b612b0381612945565b8114612b0e57600080fd5b50565b600081359050612b2081612afa565b92915050565b600060208284031215612b3c57612b3b612983565b5b6000612b4a84828501612b11565b91505092915050565b600073ffffffffffffffffffffffffffffffffffffffff82169050919050565b6000612b7e82612b53565b9050919050565b612b8e81612b73565b82525050565b6000602082019050612ba96000830184612b85565b92915050565b612bb881612b73565b8114612bc357600080fd5b50565b600081359050612bd581612baf565b92915050565b60008060408385031215612bf257612bf1612983565b5b6000612c0085828601612bc6565b9250506020612c1185828601612b11565b9150509250929050565b600081519050919050565b600082825260208201905092915050565b6000819050602082019050919050565b600082825260208201905092915050565b6000612c6382612a48565b612c6d8185612c47565b9350612c7d818560208601612a64565b612c8681612a8e565b840191505092915050565b612c9a81612a12565b82525050565b60006080830160008301518482036000860152612cbd8282612c58565b91505060208301518482036020860152612cd78282612c58565b91505060408301518482036040860152612cf18282612c58565b9150506060830151612d066060860182612c91565b508091505092915050565b6000612d1d8383612ca0565b905092915050565b6000602082019050919050565b6000612d3d82612c1b565b612d478185612c26565b935083602082028501612d5985612c37565b8060005b85811015612d955784840389528151612d768582612d11565b9450612d8183612d25565b925060208a01995050600181019050612d5d565b50829750879550505050505092915050565b60006020820190508181036000830152612dc18184612d32565b905092915050565b600080600060608486031215612de257612de1612983565b5b6000612df086828701612bc6565b9350506020612e0186828701612bc6565b9250506040612e1286828701612b11565b9150509250925092565b60006080820190508181036000830152612e368187612a9f565b90508181036020830152612e4a8186612a9f565b90508181036040830152612e5e8185612a9f565b9050612e6d6060830184612a1e565b95945050505050565b600080fd5b600080fd5b7f4e487b7100000000000000000000000000000000000000000000000000000000600052604160045260246000fd5b612eb882612a8e565b810181811067ffffffffffffffff82111715612ed757612ed6612e80565b5b80604052505050565b6000612eea612979565b9050612ef68282612eaf565b919050565b600067ffffffffffffffff821115612f1657612f15612e80565b5b612f1f82612a8e565b9050602081019050919050565b82818337600083830152505050565b6000612f4e612f4984612efb565b612ee0565b905082815260208101848484011115612f6a57612f69612e7b565b5b612f75848285612f2c565b509392505050565b600082601f830112612f9257612f91612e76565b5b8135612fa2848260208601612f3b565b91505092915050565b600080600060608486031215612fc457612fc3612983565b5b600084013567ffffffffffffffff811115612fe257612fe1612988565b5b612fee86828701612f7d565b935050602084013567ffffffffffffffff81111561300f5761300e612988565b5b61301b86828701612f7d565b925050604084013567ffffffffffffffff81111561303c5761303b612988565b5b61304886828701612f7d565b9150509250925092565b60006020828403121561306857613067612983565b5b600082013567ffffffffffffffff81111561308657613085612988565b5b61309284828501612f7d565b91505092915050565b600060608201905081810360008301526130b58186612a9f565b905081810360208301526130c98185612a9f565b90506130d8604083018461294f565b949350505050565b6000602082840312156130f6576130f5612983565b5b600061310484828501612bc6565b91505092915050565b600060c08201905081810360008301526131278189612a9f565b9050818103602083015261313b8188612a9f565b905061314a604083018761294f565b613157606083018661294f565b613164608083018561294f565b61317160a083018461294f565b979650505050505050565b61318581612a12565b811461319057600080fd5b50565b6000813590506131a28161317c565b92915050565b600080604083850312156131bf576131be612983565b5b60006131cd85828601612bc6565b92505060206131de85828601613193565b9150509250929050565b600067ffffffffffffffff82111561320357613202612e80565b5b61320c82612a8e565b9050602081019050919050565b600061322c613227846131e8565b612ee0565b90508281526020810184848401111561324857613247612e7b565b5b613253848285612f2c565b509392505050565b600082601f8301126132705761326f612e76565b5b8135613280848260208601613219565b91505092915050565b600080600080608085870312156132a3576132a2612983565b5b60006132b187828801612bc6565b94505060206132c287828801612bc6565b93505060406132d387828801612b11565b925050606085013567ffffffffffffffff8111156132f4576132f3612988565b5b6133008782880161325b565b91505092959194509250565b6000806040838503121561332357613322612983565b5b600061333185828601612bc6565b925050602061334285828601612bc6565b9150509250929050565b7f4e487b7100000000000000000000000000000000000000000000000000000000600052602260045260246000fd5b6000600282049050600182168061339357607f821691505b6020821081036133a6576133a561334c565b5b50919050565b7f4552433732313a20617070726f76616c20746f2063757272656e74206f776e6560008201527f7200000000000000000000000000000000000000000000000000000000000000602082015250565b6000613408602183612a53565b9150613413826133ac565b604082019050919050565b60006020820190508181036000830152613437816133fb565b9050919050565b7f4552433732313a20617070726f76652063616c6c6572206973206e6f7420746f60008201527f6b656e206f776e6572206f7220617070726f76656420666f7220616c6c000000602082015250565b600061349a603d83612a53565b91506134a58261343e565b604082019050919050565b600060208201905081810360008301526134c98161348d565b9050919050565b7f4552433732313a2063616c6c6572206973206e6f7420746f6b656e206f776e6560008201527f72206f7220617070726f76656400000000000000000000000000000000000000602082015250565b600061352c602d83612a53565b9150613537826134d0565b604082019050919050565b6000602082019050818103600083015261355b8161351f565b9050919050565b600081905092915050565b600061357882612a48565b6135828185613562565b9350613592818560208601612a64565b80840191505092915050565b60006135aa828461356d565b915081905092915050565b7f4e487b7100000000000000000000000000000000000000000000000000000000600052601160045260246000fd5b60006135ef82612945565b91506135fa83612945565b9250828201905080821115613612576136116135b5565b5b92915050565b60008190508160005260206000209050919050565b60006020601f8301049050919050565b600082821b905092915050565b60006008830261367a7fffffffffffffffffffffffffffffffffffffffffffffffffffffffffffffffff8261363d565b613684868361363d565b95508019841693508086168417925050509392505050565b6000819050919050565b60006136c16136bc6136b784612945565b61369c565b612945565b9050919050565b6000819050919050565b6136db836136a6565b6136ef6136e7826136c8565b84845461364a565b825550505050565b600090565b6137046136f7565b61370f8184846136d2565b505050565b5b81811015613733576137286000826136fc565b600181019050613715565b5050565b601f8211156137785761374981613618565b6137528461362d565b81016020851015613761578190505b61377561376d8561362d565b830182613714565b50505b505050565b600082821c905092915050565b600061379b6000198460080261377d565b1980831691505092915050565b60006137b4838361378a565b9150826002028217905092915050565b6137cd82612a48565b67ffffffffffffffff8111156137e6576137e5612e80565b5b6137f0825461337b565b6137fb828285613737565b600060209050601f83116001811461382e576000841561381c578287015190505b61382685826137a8565b86555061388e565b601f19841661383c86613618565b60005b828110156138645784890151825560018201915060208501945060208101905061383f565b86831015613881578489015161387d601f89168261378a565b8355505b6001600288020188555050505b505050505050565b60006138a182612945565b91506138ac83612945565b92508282039050818111156138c4576138c36135b5565b5b92915050565b7f4e487b7100000000000000000000000000000000000000000000000000000000600052603260045260246000fd5b7f4552433732313a20696e76616c696420746f6b656e2049440000000000000000600082015250565b600061392f601883612a53565b915061393a826138f9565b602082019050919050565b6000602082019050818103600083015261395e81613922565b9050919050565b7f4552433732313a2061646472657373207a65726f206973206e6f74206120766160008201527f6c6964206f776e65720000000000000000000000000000000000000000000000602082015250565b60006139c1602983612a53565b91506139cc82613965565b604082019050919050565b600060208201905081810360008301526139f0816139b4565b9050919050565b6000613a03828561356d565b9150613a0f828461356d565b91508190509392505050565b7f4f776e61626c653a206e6577206f776e657220697320746865207a65726f206160008201527f6464726573730000000000000000000000000000000000000000000000000000602082015250565b6000613a77602683612a53565b9150613a8282613a1b565b604082019050919050565b60006020820190508181036000830152613aa681613a6a565b9050919050565b7f4552433732313a207472616e736665722066726f6d20696e636f72726563742060008201527f6f776e6572000000000000000000000000000000000000000000000000000000602082015250565b6000613b09602583612a53565b9150613b1482613aad565b604082019050919050565b60006020820190508181036000830152613b3881613afc565b9050919050565b7f4552433732313a207472616e7366657220746f20746865207a65726f2061646460008201527f7265737300000000000000000000000000000000000000000000000000000000602082015250565b6000613b9b602483612a53565b9150613ba682613b3f565b604082019050919050565b60006020820190508181036000830152613bca81613b8e565b9050919050565b7f4f776e61626c653a2063616c6c6572206973206e6f7420746865206f776e6572600082015250565b6000613c07602083612a53565b9150613c1282613bd1565b602082019050919050565b60006020820190508181036000830152613c3681613bfa565b9050919050565b7f4552433732313a20617070726f766520746f2063616c6c657200000000000000600082015250565b6000613c73601983612a53565b9150613c7e82613c3d565b602082019050919050565b60006020820190508181036000830152613ca281613c66565b9050919050565b7f4552433732313a207472616e7366657220746f206e6f6e20455243373231526560008201527f63656976657220696d706c656d656e7465720000000000000000000000000000602082015250565b6000613d05603283612a53565b9150613d1082613ca9565b604082019050919050565b60006020820190508181036000830152613d3481613cf8565b9050919050565b7f4e487b7100000000000000000000000000000000000000000000000000000000600052601260045260246000fd5b600081519050919050565b600082825260208201905092915050565b6000613d9182613d6a565b613d9b8185613d75565b9350613dab818560208601612a64565b613db481612a8e565b840191505092915050565b6000608082019050613dd46000830187612b85565b613de16020830186612b85565b613dee604083018561294f565b8181036060830152613e008184613d86565b905095945050505050565b600081519050613e1a816129b9565b92915050565b600060208284031215613e3657613e35612983565b5b6000613e4484828501613e0b565b91505092915050565b7f4552433732313a206d696e7420746f20746865207a65726f2061646472657373600082015250565b6000613e83602083612a53565b9150613e8e82613e4d565b602082019050919050565b60006020820190508181036000830152613eb281613e76565b9050919050565b7f4552433732313a20746f6b656e20616c7265616479206d696e74656400000000600082015250565b6000613eef601c83612a53565b9150613efa82613eb9565b602082019050919050565b60006020820190508181036000830152613f1e81613ee2565b905091905056fea2646970667358221220fba517f48a49f32186576ff3aa9eb279a0449f2aed81723f08646fd3283c548964736f6c63430008120033a26469706673582212204fe47d82deba94e237e93d4e1a628c3dd312b8da24280aa9985e4993fa13bd6864736f6c63430008120033",
  "devdoc": {
    "kind": "dev",
    "methods": {},
    "version": 1
  },
  "userdoc": {
    "kind": "user",
    "methods": {},
    "version": 1
  },
  "storageLayout": {
    "storage": [
      {
        "astId": 2636,
        "contract": "contracts/UserFactory.sol:UserFactory",
        "label": "createdProfiles",
        "offset": 0,
        "slot": "0",
        "type": "t_array(t_address)dyn_storage"
      },
      {
        "astId": 2640,
        "contract": "contracts/UserFactory.sol:UserFactory",
        "label": "userProfile",
        "offset": 0,
        "slot": "1",
        "type": "t_mapping(t_string_memory_ptr,t_address)"
      },
      {
        "astId": 2642,
        "contract": "contracts/UserFactory.sol:UserFactory",
        "label": "admin",
        "offset": 0,
        "slot": "2",
        "type": "t_address"
      }
    ],
    "types": {
      "t_address": {
        "encoding": "inplace",
        "label": "address",
        "numberOfBytes": "20"
      },
      "t_array(t_address)dyn_storage": {
        "base": "t_address",
        "encoding": "dynamic_array",
        "label": "address[]",
        "numberOfBytes": "32"
      },
      "t_mapping(t_string_memory_ptr,t_address)": {
        "encoding": "mapping",
        "key": "t_string_memory_ptr",
        "label": "mapping(string => address)",
        "numberOfBytes": "32",
        "value": "t_address"
      },
      "t_string_memory_ptr": {
        "encoding": "bytes",
        "label": "string",
        "numberOfBytes": "32"
      }
    }
  }
}