{
  "address": "0xcD9261DEF319d0F95D5C9AAEbFC7a3134E84E2A9",
  "abi": [
    {
      "inputs": [],
      "stateMutability": "nonpayable",
      "type": "constructor"
    },
    {
      "inputs": [],
      "name": "admin",
      "outputs": [
        {
          "internalType": "address",
          "name": "",
          "type": "address"
        }
      ],
      "stateMutability": "view",
      "type": "function"
    },
    {
      "inputs": [
        {
          "internalType": "string",
          "name": "_name",
          "type": "string"
        },
        {
          "internalType": "string",
          "name": "_description",
          "type": "string"
        },
        {
          "internalType": "uint256",
          "name": "_subscriptionAmount",
          "type": "uint256"
        }
      ],
      "name": "createProfile",
      "outputs": [],
      "stateMutability": "nonpayable",
      "type": "function"
    },
    {
      "inputs": [
        {
          "internalType": "uint256",
          "name": "",
          "type": "uint256"
        }
      ],
      "name": "createdProfiles",
      "outputs": [
        {
          "internalType": "address",
          "name": "",
          "type": "address"
        }
      ],
      "stateMutability": "view",
      "type": "function"
    },
    {
      "inputs": [
        {
          "internalType": "address",
          "name": "",
          "type": "address"
        }
      ],
      "name": "creatorContract",
      "outputs": [
        {
          "internalType": "address",
          "name": "",
          "type": "address"
        }
      ],
      "stateMutability": "view",
      "type": "function"
    },
    {
      "inputs": [],
      "name": "getAllCreators",
      "outputs": [
        {
          "internalType": "address[]",
          "name": "",
          "type": "address[]"
        }
      ],
      "stateMutability": "view",
      "type": "function"
    },
    {
      "inputs": [
        {
          "internalType": "address",
          "name": "_creator",
          "type": "address"
        }
      ],
      "name": "getCreator",
      "outputs": [
        {
          "internalType": "string",
          "name": "",
          "type": "string"
        },
        {
          "internalType": "string",
          "name": "",
          "type": "string"
        },
        {
          "internalType": "uint256",
          "name": "",
          "type": "uint256"
        }
      ],
      "stateMutability": "view",
      "type": "function"
    },
    {
      "inputs": [
        {
          "internalType": "address",
          "name": "_creator",
          "type": "address"
        }
      ],
      "name": "isCreator",
      "outputs": [
        {
          "internalType": "bool",
          "name": "",
          "type": "bool"
        }
      ],
      "stateMutability": "view",
      "type": "function"
    },
    {
      "inputs": [
        {
          "internalType": "string",
          "name": "",
          "type": "string"
        }
      ],
      "name": "userProfile",
      "outputs": [
        {
          "internalType": "address",
          "name": "",
          "type": "address"
        }
      ],
      "stateMutability": "view",
      "type": "function"
    },
    {
      "inputs": [],
      "name": "working",
      "outputs": [
        {
          "internalType": "string",
          "name": "",
          "type": "string"
        }
      ],
      "stateMutability": "pure",
      "type": "function"
    }
  ],
  "transactionHash": "0xe3fc6c1a59797e811a0a747e770ff5cb76be5f5ef58f1d66a4c7cd6c355ec47b",
  "args": [],
  "numDeployments": 9,
  "solcInputHash": "979ee0ce50fd17d63d8ce9361d97d633",
  "bytecode": "0x608060405234801561001057600080fd5b5033600360006101000a81548173ffffffffffffffffffffffffffffffffffffffff021916908373ffffffffffffffffffffffffffffffffffffffff16021790555061510a806100616000396000f3fe60806040523480156200001157600080fd5b5060043610620000a05760003560e01c8063c2d8e1ad116200006f578063c2d8e1ad1462000155578063efd46065146200018b578063f193e1a514620001c1578063f851a44014620001f7578063f97fac4d146200021957620000a0565b806334af431d14620000a55780637103bf7414620000db5780639f08a68c14620000fb578063a0210309146200011d575b600080fd5b620000c36004803603810190620000bd9190620008bd565b6200023b565b604051620000d2919062000900565b60405180910390f35b620000f96004803603810190620000f3919062000aba565b6200026e565b005b6200010562000588565b60405162000114919062000bdd565b60405180910390f35b6200013b6004803603810190620001359190620008bd565b620005c5565b6040516200014c9392919062000c12565b60405180910390f35b6200017360048036038101906200016d919062000c5d565b6200064e565b60405162000182919062000900565b60405180910390f35b620001a96004803603810190620001a39190620008bd565b62000697565b604051620001b8919062000ccb565b60405180910390f35b620001df6004803603810190620001d9919062000ce8565b62000740565b604051620001ee919062000900565b60405180910390f35b6200020162000780565b60405162000210919062000900565b60405180910390f35b62000223620007a6565b60405162000232919062000de8565b60405180910390f35b60026020528060005260406000206000915054906101000a900473ffffffffffffffffffffffffffffffffffffffff1681565b600060018460405162000282919062000e4e565b908152602001604051809103902060009054906101000a900473ffffffffffffffffffffffffffffffffffffffff169050600073ffffffffffffffffffffffffffffffffffffffff168173ffffffffffffffffffffffffffffffffffffffff161462000325576040517f08c379a00000000000000000000000000000000000000000000000000000000081526004016200031c9062000eb7565b60405180910390fd5b600073ffffffffffffffffffffffffffffffffffffffff16600260003373ffffffffffffffffffffffffffffffffffffffff1673ffffffffffffffffffffffffffffffffffffffff16815260200190815260200160002060009054906101000a900473ffffffffffffffffffffffffffffffffffffffff1673ffffffffffffffffffffffffffffffffffffffff1614620003f6576040517f08c379a0000000000000000000000000000000000000000000000000000000008152600401620003ed9062000f29565b60405180910390fd5b600084338686866040516200040b9062000836565b6200041b95949392919062000f9b565b604051809103906000f08015801562000438573d6000803e3d6000fd5b50905060008190506000819080600181540180825580915050600190039060005260206000200160009091909190916101000a81548173ffffffffffffffffffffffffffffffffffffffff021916908373ffffffffffffffffffffffffffffffffffffffff16021790555080600187604051620004b6919062000e4e565b908152602001604051809103902060006101000a81548173ffffffffffffffffffffffffffffffffffffffff021916908373ffffffffffffffffffffffffffffffffffffffff16021790555080600260003373ffffffffffffffffffffffffffffffffffffffff1673ffffffffffffffffffffffffffffffffffffffff16815260200190815260200160002060006101000a81548173ffffffffffffffffffffffffffffffffffffffff021916908373ffffffffffffffffffffffffffffffffffffffff160217905550505050505050565b60606040518060400160405280601b81526020017f79657320736d61727420636f6e7472616374206465706c6f7965640000000000815250905090565b60608060008373ffffffffffffffffffffffffffffffffffffffff166335afba4a6040518163ffffffff1660e01b8152600401600060405180830381865afa15801562000616573d6000803e3d6000fd5b505050506040513d6000823e3d601f19601f82011682018060405250810190620006419190620010b7565b9250925092509193909250565b6001818051602081018201805184825260208301602085012081835280955050505050506000915054906101000a900473ffffffffffffffffffffffffffffffffffffffff1681565b60008073ffffffffffffffffffffffffffffffffffffffff16600260008473ffffffffffffffffffffffffffffffffffffffff1673ffffffffffffffffffffffffffffffffffffffff16815260200190815260200160002060009054906101000a900473ffffffffffffffffffffffffffffffffffffffff1673ffffffffffffffffffffffffffffffffffffffff16036200073657600090506200073b565b600190505b919050565b600081815481106200075157600080fd5b906000526020600020016000915054906101000a900473ffffffffffffffffffffffffffffffffffffffff1681565b600360009054906101000a900473ffffffffffffffffffffffffffffffffffffffff1681565b606060008054806020026020016040519081016040528092919081815260200182805480156200082c57602002820191906000526020600020905b8160009054906101000a900473ffffffffffffffffffffffffffffffffffffffff1673ffffffffffffffffffffffffffffffffffffffff1681526020019060010190808311620007e1575b5050505050905090565b613f83806200115283390190565b6000604051905090565b600080fd5b600080fd5b600073ffffffffffffffffffffffffffffffffffffffff82169050919050565b6000620008858262000858565b9050919050565b620008978162000878565b8114620008a357600080fd5b50565b600081359050620008b7816200088c565b92915050565b600060208284031215620008d657620008d56200084e565b5b6000620008e684828501620008a6565b91505092915050565b620008fa8162000878565b82525050565b6000602082019050620009176000830184620008ef565b92915050565b600080fd5b600080fd5b6000601f19601f8301169050919050565b7f4e487b7100000000000000000000000000000000000000000000000000000000600052604160045260246000fd5b620009728262000927565b810181811067ffffffffffffffff8211171562000994576200099362000938565b5b80604052505050565b6000620009a962000844565b9050620009b7828262000967565b919050565b600067ffffffffffffffff821115620009da57620009d962000938565b5b620009e58262000927565b9050602081019050919050565b82818337600083830152505050565b600062000a1862000a1284620009bc565b6200099d565b90508281526020810184848401111562000a375762000a3662000922565b5b62000a44848285620009f2565b509392505050565b600082601f83011262000a645762000a636200091d565b5b813562000a7684826020860162000a01565b91505092915050565b6000819050919050565b62000a948162000a7f565b811462000aa057600080fd5b50565b60008135905062000ab48162000a89565b92915050565b60008060006060848603121562000ad65762000ad56200084e565b5b600084013567ffffffffffffffff81111562000af75762000af662000853565b5b62000b058682870162000a4c565b935050602084013567ffffffffffffffff81111562000b295762000b2862000853565b5b62000b378682870162000a4c565b925050604062000b4a8682870162000aa3565b9150509250925092565b600081519050919050565b600082825260208201905092915050565b60005b8381101562000b9057808201518184015260208101905062000b73565b60008484015250505050565b600062000ba98262000b54565b62000bb5818562000b5f565b935062000bc781856020860162000b70565b62000bd28162000927565b840191505092915050565b6000602082019050818103600083015262000bf9818462000b9c565b905092915050565b62000c0c8162000a7f565b82525050565b6000606082019050818103600083015262000c2e818662000b9c565b9050818103602083015262000c44818562000b9c565b905062000c55604083018462000c01565b949350505050565b60006020828403121562000c765762000c756200084e565b5b600082013567ffffffffffffffff81111562000c975762000c9662000853565b5b62000ca58482850162000a4c565b91505092915050565b60008115159050919050565b62000cc58162000cae565b82525050565b600060208201905062000ce2600083018462000cba565b92915050565b60006020828403121562000d015762000d006200084e565b5b600062000d118482850162000aa3565b91505092915050565b600081519050919050565b600082825260208201905092915050565b6000819050602082019050919050565b62000d518162000878565b82525050565b600062000d65838362000d46565b60208301905092915050565b6000602082019050919050565b600062000d8b8262000d1a565b62000d97818562000d25565b935062000da48362000d36565b8060005b8381101562000ddb57815162000dbf888262000d57565b975062000dcc8362000d71565b92505060018101905062000da8565b5085935050505092915050565b6000602082019050818103600083015262000e04818462000d7e565b905092915050565b600081905092915050565b600062000e248262000b54565b62000e30818562000e0c565b935062000e4281856020860162000b70565b80840191505092915050565b600062000e5c828462000e17565b915081905092915050565b7f557365726e616d6520616c72656164792074616b656e00000000000000000000600082015250565b600062000e9f60168362000b5f565b915062000eac8262000e67565b602082019050919050565b6000602082019050818103600083015262000ed28162000e90565b9050919050565b7f6164647265737320616c72656164792068617320616e206163636f756e740000600082015250565b600062000f11601e8362000b5f565b915062000f1e8262000ed9565b602082019050919050565b6000602082019050818103600083015262000f448162000f02565b9050919050565b7f50415452454f4e00000000000000000000000000000000000000000000000000600082015250565b600062000f8360078362000b5f565b915062000f908262000f4b565b602082019050919050565b600060c082019050818103600083015262000fb7818862000b9c565b9050818103602083015262000fcc8162000f74565b905062000fdd6040830187620008ef565b818103606083015262000ff1818662000b9c565b9050818103608083015262001007818562000b9c565b90506200101860a083018462000c01565b9695505050505050565b6000620010396200103384620009bc565b6200099d565b90508281526020810184848401111562001058576200105762000922565b5b6200106584828562000b70565b509392505050565b600082601f8301126200108557620010846200091d565b5b81516200109784826020860162001022565b91505092915050565b600081519050620010b18162000a89565b92915050565b600080600060608486031215620010d357620010d26200084e565b5b600084015167ffffffffffffffff811115620010f457620010f362000853565b5b62001102868287016200106d565b935050602084015167ffffffffffffffff81111562001126576200112562000853565b5b62001134868287016200106d565b92505060406200114786828701620010a0565b915050925092509256fe60806040523480156200001157600080fd5b5060405162003f8338038062003f838339818101604052810190620000379190620003d8565b858581600090816200004a919062000731565b5080600190816200005c919062000731565b5050506200007f62000073620000d760201b60201c565b620000df60201b60201c565b6200009084620000df60201b60201c565b8260079081620000a1919062000731565b508160089081620000b3919062000731565b50620f424081620000c5919062000847565b600b8190555050505050505062000892565b600033905090565b6000600660009054906101000a900473ffffffffffffffffffffffffffffffffffffffff16905081600660006101000a81548173ffffffffffffffffffffffffffffffffffffffff021916908373ffffffffffffffffffffffffffffffffffffffff1602179055508173ffffffffffffffffffffffffffffffffffffffff168173ffffffffffffffffffffffffffffffffffffffff167f8be0079c531659141344cd1fd0a4f28419497f9722a3daafe3b4186f6b6457e060405160405180910390a35050565b6000604051905090565b600080fd5b600080fd5b600080fd5b600080fd5b6000601f19601f8301169050919050565b7f4e487b7100000000000000000000000000000000000000000000000000000000600052604160045260246000fd5b6200020e82620001c3565b810181811067ffffffffffffffff8211171562000230576200022f620001d4565b5b80604052505050565b600062000245620001a5565b905062000253828262000203565b919050565b600067ffffffffffffffff821115620002765762000275620001d4565b5b6200028182620001c3565b9050602081019050919050565b60005b83811015620002ae57808201518184015260208101905062000291565b60008484015250505050565b6000620002d1620002cb8462000258565b62000239565b905082815260208101848484011115620002f057620002ef620001be565b5b620002fd8482856200028e565b509392505050565b600082601f8301126200031d576200031c620001b9565b5b81516200032f848260208601620002ba565b91505092915050565b600073ffffffffffffffffffffffffffffffffffffffff82169050919050565b6000620003658262000338565b9050919050565b620003778162000358565b81146200038357600080fd5b50565b60008151905062000397816200036c565b92915050565b6000819050919050565b620003b2816200039d565b8114620003be57600080fd5b50565b600081519050620003d281620003a7565b92915050565b60008060008060008060c08789031215620003f857620003f7620001af565b5b600087015167ffffffffffffffff811115620004195762000418620001b4565b5b6200042789828a0162000305565b965050602087015167ffffffffffffffff8111156200044b576200044a620001b4565b5b6200045989828a0162000305565b95505060406200046c89828a0162000386565b945050606087015167ffffffffffffffff81111562000490576200048f620001b4565b5b6200049e89828a0162000305565b935050608087015167ffffffffffffffff811115620004c257620004c1620001b4565b5b620004d089828a0162000305565b92505060a0620004e389828a01620003c1565b9150509295509295509295565b600081519050919050565b7f4e487b7100000000000000000000000000000000000000000000000000000000600052602260045260246000fd5b600060028204905060018216806200054357607f821691505b602082108103620005595762000558620004fb565b5b50919050565b60008190508160005260206000209050919050565b60006020601f8301049050919050565b600082821b905092915050565b600060088302620005c37fffffffffffffffffffffffffffffffffffffffffffffffffffffffffffffffff8262000584565b620005cf868362000584565b95508019841693508086168417925050509392505050565b6000819050919050565b6000620006126200060c62000606846200039d565b620005e7565b6200039d565b9050919050565b6000819050919050565b6200062e83620005f1565b620006466200063d8262000619565b84845462000591565b825550505050565b600090565b6200065d6200064e565b6200066a81848462000623565b505050565b5b8181101562000692576200068660008262000653565b60018101905062000670565b5050565b601f821115620006e157620006ab816200055f565b620006b68462000574565b81016020851015620006c6578190505b620006de620006d58562000574565b8301826200066f565b50505b505050565b600082821c905092915050565b60006200070660001984600802620006e6565b1980831691505092915050565b6000620007218383620006f3565b9150826002028217905092915050565b6200073c82620004f0565b67ffffffffffffffff811115620007585762000757620001d4565b5b6200076482546200052a565b6200077182828562000696565b600060209050601f831160018114620007a9576000841562000794578287015190505b620007a0858262000713565b86555062000810565b601f198416620007b9866200055f565b60005b82811015620007e357848901518255600182019150602085019450602081019050620007bc565b86831015620008035784890151620007ff601f891682620006f3565b8355505b6001600288020188555050505b505050505050565b7f4e487b7100000000000000000000000000000000000000000000000000000000600052601160045260246000fd5b600062000854826200039d565b915062000861836200039d565b925082820262000871816200039d565b915082820484148315176200088b576200088a62000818565b5b5092915050565b6136e180620008a26000396000f3fe6080604052600436106101f85760003560e01c806370a082311161010d578063a3e39811116100a0578063c707944b1161006f578063c707944b146106f9578063c87b56dd14610724578063e985e9c514610761578063ed88c68e1461079e578063f2fde38b146107a8576101f8565b8063a3e398111461064f578063b1d140681461067a578063b88d4fde146106a5578063c5da7604146106ce576101f8565b8063863678e9116100dc578063863678e9146105a75780638da5cb5b146105d057806395d89b41146105fb578063a22cb46514610626576101f8565b806370a08231146104e6578063715018a6146105235780637235d7d91461053a5780638356c1e114610577576101f8565b806327e25dcc1161019057806335afba4a1161015f57806335afba4a1461043257806342842e0e1461045f578063534844a2146104885780636352211e1461049f578063671ba0e1146104dc576101f8565b806327e25dcc146103755780632a835567146103b55780632ae25fd2146103de5780632dc282e914610407576101f8565b8063095ea7b3116101cc578063095ea7b3146102cd578063130b4c09146102f65780631dbe69d41461032157806323b872dd1461034c576101f8565b8062b37044146101fd57806301ffc9a71461022857806306fdde0314610265578063081812fc14610290575b600080fd5b34801561020957600080fd5b506102126107d1565b60405161021f9190612352565b60405180910390f35b34801561023457600080fd5b5061024f600480360381019061024a91906123d9565b6107d7565b60405161025c9190612421565b60405180910390f35b34801561027157600080fd5b5061027a6108b9565b60405161028791906124cc565b60405180910390f35b34801561029c57600080fd5b506102b760048036038101906102b2919061251a565b61094b565b6040516102c49190612588565b60405180910390f35b3480156102d957600080fd5b506102f460048036038101906102ef91906125cf565b610991565b005b34801561030257600080fd5b5061030b6109d6565b6040516103189190612352565b60405180910390f35b34801561032d57600080fd5b506103366109dc565b604051610343919061279b565b60405180910390f35b34801561035857600080fd5b50610373600480360381019061036e91906127bd565b610c0c565b005b34801561038157600080fd5b5061039c6004803603810190610397919061251a565b610c52565b6040516103ac9493929190612810565b60405180910390f35b3480156103c157600080fd5b506103dc60048036038101906103d7919061299f565b610e37565b005b3480156103ea57600080fd5b5061040560048036038101906104009190612a46565b610f61565b005b34801561041357600080fd5b5061041c610fe7565b6040516104299190612352565b60405180910390f35b34801561043e57600080fd5b50610447610fed565b60405161045693929190612a8f565b60405180910390f35b34801561046b57600080fd5b50610486600480360381019061048191906127bd565b61111c565b005b34801561049457600080fd5b5061049d611162565b005b3480156104ab57600080fd5b506104c660048036038101906104c1919061251a565b6111ca565b6040516104d39190612588565b60405180910390f35b6104e4611250565b005b3480156104f257600080fd5b5061050d60048036038101906105089190612ad4565b61134f565b60405161051a9190612352565b60405180910390f35b34801561052f57600080fd5b50610538611406565b005b34801561054657600080fd5b50610561600480360381019061055c9190612a46565b61141a565b60405161056e9190612352565b60405180910390f35b34801561058357600080fd5b5061058c611448565b60405161059e96959493929190612b01565b60405180910390f35b3480156105b357600080fd5b506105ce60048036038101906105c99190612a46565b61158d565b005b3480156105dc57600080fd5b506105e5611613565b6040516105f29190612588565b60405180910390f35b34801561060757600080fd5b5061061061163d565b60405161061d91906124cc565b60405180910390f35b34801561063257600080fd5b5061064d60048036038101906106489190612b9c565b6116cf565b005b34801561065b57600080fd5b50610664611714565b60405161067191906124cc565b60405180910390f35b34801561068657600080fd5b5061068f6117a2565b60405161069c9190612352565b60405180910390f35b3480156106b157600080fd5b506106cc60048036038101906106c79190612c7d565b6117a8565b005b3480156106da57600080fd5b506106e36117ef565b6040516106f091906124cc565b60405180910390f35b34801561070557600080fd5b5061070e61187d565b60405161071b9190612352565b60405180910390f35b34801561073057600080fd5b5061074b6004803603810190610746919061251a565b611883565b60405161075891906124cc565b60405180910390f35b34801561076d57600080fd5b5061078860048036038101906107839190612d00565b6118eb565b6040516107959190612421565b60405180910390f35b6107a661197f565b005b3480156107b457600080fd5b506107cf60048036038101906107ca9190612ad4565b6119b3565b005b600f5481565b60007f80ac58cd000000000000000000000000000000000000000000000000000000007bffffffffffffffffffffffffffffffffffffffffffffffffffffffff1916827bffffffffffffffffffffffffffffffffffffffffffffffffffffffff191614806108a257507f5b5e139f000000000000000000000000000000000000000000000000000000007bffffffffffffffffffffffffffffffffffffffffffffffffffffffff1916827bffffffffffffffffffffffffffffffffffffffffffffffffffffffff1916145b806108b257506108b182611a36565b5b9050919050565b6060600080546108c890612d6f565b80601f01602080910402602001604051908101604052809291908181526020018280546108f490612d6f565b80156109415780601f1061091657610100808354040283529160200191610941565b820191906000526020600020905b81548152906001019060200180831161092457829003601f168201915b5050505050905090565b600061095682611aa0565b6004600083815260200190815260200160002060009054906101000a900473ffffffffffffffffffffffffffffffffffffffff169050919050565b60006109d2576040517f08c379a00000000000000000000000000000000000000000000000000000000081526004016109c990612dec565b60405180910390fd5b5050565b600b5481565b6060600c805480602002602001604051908101604052809291908181526020016000905b82821015610c035783829060005260206000209060040201604051806080016040529081600082018054610a3390612d6f565b80601f0160208091040260200160405190810160405280929190818152602001828054610a5f90612d6f565b8015610aac5780601f10610a8157610100808354040283529160200191610aac565b820191906000526020600020905b815481529060010190602001808311610a8f57829003601f168201915b50505050508152602001600182018054610ac590612d6f565b80601f0160208091040260200160405190810160405280929190818152602001828054610af190612d6f565b8015610b3e5780601f10610b1357610100808354040283529160200191610b3e565b820191906000526020600020905b815481529060010190602001808311610b2157829003601f168201915b50505050508152602001600282018054610b5790612d6f565b80601f0160208091040260200160405190810160405280929190818152602001828054610b8390612d6f565b8015610bd05780601f10610ba557610100808354040283529160200191610bd0565b820191906000526020600020905b815481529060010190602001808311610bb357829003601f168201915b505050505081526020016003820160009054906101000a900460ff16151515158152505081526020019060010190610a00565b50505050905090565b6000610c4d576040517f08c379a0000000000000000000000000000000000000000000000000000000008152600401610c4490612e58565b60405180910390fd5b505050565b600c8181548110610c6257600080fd5b9060005260206000209060040201600091509050806000018054610c8590612d6f565b80601f0160208091040260200160405190810160405280929190818152602001828054610cb190612d6f565b8015610cfe5780601f10610cd357610100808354040283529160200191610cfe565b820191906000526020600020905b815481529060010190602001808311610ce157829003601f168201915b505050505090806001018054610d1390612d6f565b80601f0160208091040260200160405190810160405280929190818152602001828054610d3f90612d6f565b8015610d8c5780601f10610d6157610100808354040283529160200191610d8c565b820191906000526020600020905b815481529060010190602001808311610d6f57829003601f168201915b505050505090806002018054610da190612d6f565b80601f0160208091040260200160405190810160405280929190818152602001828054610dcd90612d6f565b8015610e1a5780601f10610def57610100808354040283529160200191610e1a565b820191906000526020600020905b815481529060010190602001808311610dfd57829003601f168201915b5050505050908060030160009054906101000a900460ff16905084565b610e3f611aeb565b6000600d83604051610e519190612eb4565b90815260200160405180910390205414610e6a57600080fd5b6001600a6000828254610e7d9190612efa565b92505081905550600a54600d83604051610e979190612eb4565b908152602001604051809103902081905550600c60405180608001604052808581526020018481526020018381526020016000151581525090806001815401808255809150506001900390600052602060002090600402016000909190919091506000820151816000019081610f0d91906130da565b506020820151816001019081610f2391906130da565b506040820151816002019081610f3991906130da565b5060608201518160030160006101000a81548160ff0219169083151502179055505050505050565b610f69611aeb565b6000600d82604051610f7b9190612eb4565b908152602001604051809103902054905060008111610f9957600080fd5b6000600c600183610faa91906131ac565b81548110610fbb57610fba6131e0565b5b906000526020600020906004020160030160006101000a81548160ff0219169083151502179055505050565b600a5481565b606080600060076008600b5482805461100590612d6f565b80601f016020809104026020016040519081016040528092919081815260200182805461103190612d6f565b801561107e5780601f106110535761010080835404028352916020019161107e565b820191906000526020600020905b81548152906001019060200180831161106157829003601f168201915b5050505050925081805461109190612d6f565b80601f01602080910402602001604051908101604052809291908181526020018280546110bd90612d6f565b801561110a5780601f106110df5761010080835404028352916020019161110a565b820191906000526020600020905b8154815290600101906020018083116110ed57829003601f168201915b50505050509150925092509250909192565b600061115d576040517f08c379a000000000000000000000000000000000000000000000000000000000815260040161115490612e58565b60405180910390fd5b505050565b61116a611aeb565b6000611174611613565b90508073ffffffffffffffffffffffffffffffffffffffff166108fc600e549081150290604051600060405180830381858888f193505050501580156111be573d6000803e3d6000fd5b506000600e8190555050565b6000806111d683611b69565b9050600073ffffffffffffffffffffffffffffffffffffffff168173ffffffffffffffffffffffffffffffffffffffff1603611247576040517f08c379a000000000000000000000000000000000000000000000000000000000815260040161123e9061325b565b60405180910390fd5b80915050919050565b60001515601060003373ffffffffffffffffffffffffffffffffffffffff1673ffffffffffffffffffffffffffffffffffffffff16815260200190815260200160002060009054906101000a900460ff161515146112ad57600080fd5b600b5434116112bb57600080fd5b60016009546112ca9190612efa565b6009819055506112dc33600954611ba6565b34600e60008282546112ee9190612efa565b925050819055506001601060003373ffffffffffffffffffffffffffffffffffffffff1673ffffffffffffffffffffffffffffffffffffffff16815260200190815260200160002060006101000a81548160ff021916908315150217905550565b60008073ffffffffffffffffffffffffffffffffffffffff168273ffffffffffffffffffffffffffffffffffffffff16036113bf576040517f08c379a00000000000000000000000000000000000000000000000000000000081526004016113b6906132ed565b60405180910390fd5b600360008373ffffffffffffffffffffffffffffffffffffffff1673ffffffffffffffffffffffffffffffffffffffff168152602001908152602001600020549050919050565b61140e611aeb565b6114186000611bc4565b565b600d818051602081018201805184825260208301602085012081835280955050505050506000915090505481565b60608060008060008060076008600954600a54600b54600e5485805461146d90612d6f565b80601f016020809104026020016040519081016040528092919081815260200182805461149990612d6f565b80156114e65780601f106114bb576101008083540402835291602001916114e6565b820191906000526020600020905b8154815290600101906020018083116114c957829003601f168201915b505050505095508480546114f990612d6f565b80601f016020809104026020016040519081016040528092919081815260200182805461152590612d6f565b80156115725780601f1061154757610100808354040283529160200191611572565b820191906000526020600020905b81548152906001019060200180831161155557829003601f168201915b50505050509450955095509550955095509550909192939495565b611595611aeb565b6000600d826040516115a79190612eb4565b9081526020016040518091039020549050600081116115c557600080fd5b6001600c6001836115d691906131ac565b815481106115e7576115e66131e0565b5b906000526020600020906004020160030160006101000a81548160ff0219169083151502179055505050565b6000600660009054906101000a900473ffffffffffffffffffffffffffffffffffffffff16905090565b60606001805461164c90612d6f565b80601f016020809104026020016040519081016040528092919081815260200182805461167890612d6f565b80156116c55780601f1061169a576101008083540402835291602001916116c5565b820191906000526020600020905b8154815290600101906020018083116116a857829003601f168201915b5050505050905090565b6000611710576040517f08c379a000000000000000000000000000000000000000000000000000000000815260040161170790612dec565b60405180910390fd5b5050565b6008805461172190612d6f565b80601f016020809104026020016040519081016040528092919081815260200182805461174d90612d6f565b801561179a5780601f1061176f5761010080835404028352916020019161179a565b820191906000526020600020905b81548152906001019060200180831161177d57829003601f168201915b505050505081565b600e5481565b60006117e9576040517f08c379a00000000000000000000000000000000000000000000000000000000081526004016117e090612e58565b60405180910390fd5b50505050565b600780546117fc90612d6f565b80601f016020809104026020016040519081016040528092919081815260200182805461182890612d6f565b80156118755780601f1061184a57610100808354040283529160200191611875565b820191906000526020600020905b81548152906001019060200180831161185857829003601f168201915b505050505081565b60095481565b606061188e82611aa0565b6000611898611c8a565b905060008151116118b857604051806020016040528060008152506118e3565b806118c284611ca1565b6040516020016118d392919061330d565b6040516020818303038152906040525b915050919050565b6000600560008473ffffffffffffffffffffffffffffffffffffffff1673ffffffffffffffffffffffffffffffffffffffff16815260200190815260200160002060008373ffffffffffffffffffffffffffffffffffffffff1673ffffffffffffffffffffffffffffffffffffffff16815260200190815260200160002060009054906101000a900460ff16905092915050565b34600e60008282546119919190612efa565b9250508190555034600f60008282546119aa9190612efa565b92505081905550565b6119bb611aeb565b600073ffffffffffffffffffffffffffffffffffffffff168173ffffffffffffffffffffffffffffffffffffffff1603611a2a576040517f08c379a0000000000000000000000000000000000000000000000000000000008152600401611a21906133a3565b60405180910390fd5b611a3381611bc4565b50565b60007f01ffc9a7000000000000000000000000000000000000000000000000000000007bffffffffffffffffffffffffffffffffffffffffffffffffffffffff1916827bffffffffffffffffffffffffffffffffffffffffffffffffffffffff1916149050919050565b611aa981611d6f565b611ae8576040517f08c379a0000000000000000000000000000000000000000000000000000000008152600401611adf9061325b565b60405180910390fd5b50565b611af3611db0565b73ffffffffffffffffffffffffffffffffffffffff16611b11611613565b73ffffffffffffffffffffffffffffffffffffffff1614611b67576040517f08c379a0000000000000000000000000000000000000000000000000000000008152600401611b5e9061340f565b60405180910390fd5b565b60006002600083815260200190815260200160002060009054906101000a900473ffffffffffffffffffffffffffffffffffffffff169050919050565b611bc0828260405180602001604052806000815250611db8565b5050565b6000600660009054906101000a900473ffffffffffffffffffffffffffffffffffffffff16905081600660006101000a81548173ffffffffffffffffffffffffffffffffffffffff021916908373ffffffffffffffffffffffffffffffffffffffff1602179055508173ffffffffffffffffffffffffffffffffffffffff168173ffffffffffffffffffffffffffffffffffffffff167f8be0079c531659141344cd1fd0a4f28419497f9722a3daafe3b4186f6b6457e060405160405180910390a35050565b606060405180602001604052806000815250905090565b606060006001611cb084611e13565b01905060008167ffffffffffffffff811115611ccf57611cce612874565b5b6040519080825280601f01601f191660200182016040528015611d015781602001600182028036833780820191505090505b509050600082602001820190505b600115611d64578080600190039150507f3031323334353637383961626364656600000000000000000000000000000000600a86061a8153600a8581611d5857611d5761342f565b5b04945060008503611d0f575b819350505050919050565b60008073ffffffffffffffffffffffffffffffffffffffff16611d9183611b69565b73ffffffffffffffffffffffffffffffffffffffff1614159050919050565b600033905090565b611dc28383611f66565b611dcf6000848484612183565b611e0e576040517f08c379a0000000000000000000000000000000000000000000000000000000008152600401611e05906134d0565b60405180910390fd5b505050565b600080600090507a184f03e93ff9f4daa797ed6e38ed64bf6a1f0100000000000000008310611e71577a184f03e93ff9f4daa797ed6e38ed64bf6a1f0100000000000000008381611e6757611e6661342f565b5b0492506040810190505b6d04ee2d6d415b85acef81000000008310611eae576d04ee2d6d415b85acef81000000008381611ea457611ea361342f565b5b0492506020810190505b662386f26fc100008310611edd57662386f26fc100008381611ed357611ed261342f565b5b0492506010810190505b6305f5e1008310611f06576305f5e1008381611efc57611efb61342f565b5b0492506008810190505b6127108310611f2b576127108381611f2157611f2061342f565b5b0492506004810190505b60648310611f4e5760648381611f4457611f4361342f565b5b0492506002810190505b600a8310611f5d576001810190505b80915050919050565b600073ffffffffffffffffffffffffffffffffffffffff168273ffffffffffffffffffffffffffffffffffffffff1603611fd5576040517f08c379a0000000000000000000000000000000000000000000000000000000008152600401611fcc9061353c565b60405180910390fd5b611fde81611d6f565b1561201e576040517f08c379a0000000000000000000000000000000000000000000000000000000008152600401612015906135a8565b60405180910390fd5b61202c60008383600161230a565b61203581611d6f565b15612075576040517f08c379a000000000000000000000000000000000000000000000000000000000815260040161206c906135a8565b60405180910390fd5b6001600360008473ffffffffffffffffffffffffffffffffffffffff1673ffffffffffffffffffffffffffffffffffffffff16815260200190815260200160002060008282540192505081905550816002600083815260200190815260200160002060006101000a81548173ffffffffffffffffffffffffffffffffffffffff021916908373ffffffffffffffffffffffffffffffffffffffff160217905550808273ffffffffffffffffffffffffffffffffffffffff16600073ffffffffffffffffffffffffffffffffffffffff167fddf252ad1be2c89b69c2b068fc378daa952ba7f163c4a11628f55a4df523b3ef60405160405180910390a461217f600083836001612310565b5050565b60006121a48473ffffffffffffffffffffffffffffffffffffffff16612316565b156122fd578373ffffffffffffffffffffffffffffffffffffffff1663150b7a026121cd611db0565b8786866040518563ffffffff1660e01b81526004016121ef949392919061361d565b6020604051808303816000875af192505050801561222b57506040513d601f19601f82011682018060405250810190612228919061367e565b60015b6122ad573d806000811461225b576040519150601f19603f3d011682016040523d82523d6000602084013e612260565b606091505b5060008151036122a5576040517f08c379a000000000000000000000000000000000000000000000000000000000815260040161229c906134d0565b60405180910390fd5b805181602001fd5b63150b7a0260e01b7bffffffffffffffffffffffffffffffffffffffffffffffffffffffff1916817bffffffffffffffffffffffffffffffffffffffffffffffffffffffff191614915050612302565b600190505b949350505050565b50505050565b50505050565b6000808273ffffffffffffffffffffffffffffffffffffffff163b119050919050565b6000819050919050565b61234c81612339565b82525050565b60006020820190506123676000830184612343565b92915050565b6000604051905090565b600080fd5b600080fd5b60007fffffffff0000000000000000000000000000000000000000000000000000000082169050919050565b6123b681612381565b81146123c157600080fd5b50565b6000813590506123d3816123ad565b92915050565b6000602082840312156123ef576123ee612377565b5b60006123fd848285016123c4565b91505092915050565b60008115159050919050565b61241b81612406565b82525050565b60006020820190506124366000830184612412565b92915050565b600081519050919050565b600082825260208201905092915050565b60005b8381101561247657808201518184015260208101905061245b565b60008484015250505050565b6000601f19601f8301169050919050565b600061249e8261243c565b6124a88185612447565b93506124b8818560208601612458565b6124c181612482565b840191505092915050565b600060208201905081810360008301526124e68184612493565b905092915050565b6124f781612339565b811461250257600080fd5b50565b600081359050612514816124ee565b92915050565b6000602082840312156125305761252f612377565b5b600061253e84828501612505565b91505092915050565b600073ffffffffffffffffffffffffffffffffffffffff82169050919050565b600061257282612547565b9050919050565b61258281612567565b82525050565b600060208201905061259d6000830184612579565b92915050565b6125ac81612567565b81146125b757600080fd5b50565b6000813590506125c9816125a3565b92915050565b600080604083850312156125e6576125e5612377565b5b60006125f4858286016125ba565b925050602061260585828601612505565b9150509250929050565b600081519050919050565b600082825260208201905092915050565b6000819050602082019050919050565b600082825260208201905092915050565b60006126578261243c565b612661818561263b565b9350612671818560208601612458565b61267a81612482565b840191505092915050565b61268e81612406565b82525050565b600060808301600083015184820360008601526126b1828261264c565b915050602083015184820360208601526126cb828261264c565b915050604083015184820360408601526126e5828261264c565b91505060608301516126fa6060860182612685565b508091505092915050565b60006127118383612694565b905092915050565b6000602082019050919050565b60006127318261260f565b61273b818561261a565b93508360208202850161274d8561262b565b8060005b85811015612789578484038952815161276a8582612705565b945061277583612719565b925060208a01995050600181019050612751565b50829750879550505050505092915050565b600060208201905081810360008301526127b58184612726565b905092915050565b6000806000606084860312156127d6576127d5612377565b5b60006127e4868287016125ba565b93505060206127f5868287016125ba565b925050604061280686828701612505565b9150509250925092565b6000608082019050818103600083015261282a8187612493565b9050818103602083015261283e8186612493565b905081810360408301526128528185612493565b90506128616060830184612412565b95945050505050565b600080fd5b600080fd5b7f4e487b7100000000000000000000000000000000000000000000000000000000600052604160045260246000fd5b6128ac82612482565b810181811067ffffffffffffffff821117156128cb576128ca612874565b5b80604052505050565b60006128de61236d565b90506128ea82826128a3565b919050565b600067ffffffffffffffff82111561290a57612909612874565b5b61291382612482565b9050602081019050919050565b82818337600083830152505050565b600061294261293d846128ef565b6128d4565b90508281526020810184848401111561295e5761295d61286f565b5b612969848285612920565b509392505050565b600082601f8301126129865761298561286a565b5b813561299684826020860161292f565b91505092915050565b6000806000606084860312156129b8576129b7612377565b5b600084013567ffffffffffffffff8111156129d6576129d561237c565b5b6129e286828701612971565b935050602084013567ffffffffffffffff811115612a0357612a0261237c565b5b612a0f86828701612971565b925050604084013567ffffffffffffffff811115612a3057612a2f61237c565b5b612a3c86828701612971565b9150509250925092565b600060208284031215612a5c57612a5b612377565b5b600082013567ffffffffffffffff811115612a7a57612a7961237c565b5b612a8684828501612971565b91505092915050565b60006060820190508181036000830152612aa98186612493565b90508181036020830152612abd8185612493565b9050612acc6040830184612343565b949350505050565b600060208284031215612aea57612ae9612377565b5b6000612af8848285016125ba565b91505092915050565b600060c0820190508181036000830152612b1b8189612493565b90508181036020830152612b2f8188612493565b9050612b3e6040830187612343565b612b4b6060830186612343565b612b586080830185612343565b612b6560a0830184612343565b979650505050505050565b612b7981612406565b8114612b8457600080fd5b50565b600081359050612b9681612b70565b92915050565b60008060408385031215612bb357612bb2612377565b5b6000612bc1858286016125ba565b9250506020612bd285828601612b87565b9150509250929050565b600067ffffffffffffffff821115612bf757612bf6612874565b5b612c0082612482565b9050602081019050919050565b6000612c20612c1b84612bdc565b6128d4565b905082815260208101848484011115612c3c57612c3b61286f565b5b612c47848285612920565b509392505050565b600082601f830112612c6457612c6361286a565b5b8135612c74848260208601612c0d565b91505092915050565b60008060008060808587031215612c9757612c96612377565b5b6000612ca5878288016125ba565b9450506020612cb6878288016125ba565b9350506040612cc787828801612505565b925050606085013567ffffffffffffffff811115612ce857612ce761237c565b5b612cf487828801612c4f565b91505092959194509250565b60008060408385031215612d1757612d16612377565b5b6000612d25858286016125ba565b9250506020612d36858286016125ba565b9150509250929050565b7f4e487b7100000000000000000000000000000000000000000000000000000000600052602260045260246000fd5b60006002820490506001821680612d8757607f821691505b602082108103612d9a57612d99612d40565b5b50919050565b7f617070726f76616c732064697361626c65642e00000000000000000000000000600082015250565b6000612dd6601383612447565b9150612de182612da0565b602082019050919050565b60006020820190508181036000830152612e0581612dc9565b9050919050565b7f7472616e73666572732064697361626c65642e00000000000000000000000000600082015250565b6000612e42601383612447565b9150612e4d82612e0c565b602082019050919050565b60006020820190508181036000830152612e7181612e35565b9050919050565b600081905092915050565b6000612e8e8261243c565b612e988185612e78565b9350612ea8818560208601612458565b80840191505092915050565b6000612ec08284612e83565b915081905092915050565b7f4e487b7100000000000000000000000000000000000000000000000000000000600052601160045260246000fd5b6000612f0582612339565b9150612f1083612339565b9250828201905080821115612f2857612f27612ecb565b5b92915050565b60008190508160005260206000209050919050565b60006020601f8301049050919050565b600082821b905092915050565b600060088302612f907fffffffffffffffffffffffffffffffffffffffffffffffffffffffffffffffff82612f53565b612f9a8683612f53565b95508019841693508086168417925050509392505050565b6000819050919050565b6000612fd7612fd2612fcd84612339565b612fb2565b612339565b9050919050565b6000819050919050565b612ff183612fbc565b613005612ffd82612fde565b848454612f60565b825550505050565b600090565b61301a61300d565b613025818484612fe8565b505050565b5b818110156130495761303e600082613012565b60018101905061302b565b5050565b601f82111561308e5761305f81612f2e565b61306884612f43565b81016020851015613077578190505b61308b61308385612f43565b83018261302a565b50505b505050565b600082821c905092915050565b60006130b160001984600802613093565b1980831691505092915050565b60006130ca83836130a0565b9150826002028217905092915050565b6130e38261243c565b67ffffffffffffffff8111156130fc576130fb612874565b5b6131068254612d6f565b61311182828561304d565b600060209050601f8311600181146131445760008415613132578287015190505b61313c85826130be565b8655506131a4565b601f19841661315286612f2e565b60005b8281101561317a57848901518255600182019150602085019450602081019050613155565b868310156131975784890151613193601f8916826130a0565b8355505b6001600288020188555050505b505050505050565b60006131b782612339565b91506131c283612339565b92508282039050818111156131da576131d9612ecb565b5b92915050565b7f4e487b7100000000000000000000000000000000000000000000000000000000600052603260045260246000fd5b7f4552433732313a20696e76616c696420746f6b656e2049440000000000000000600082015250565b6000613245601883612447565b91506132508261320f565b602082019050919050565b6000602082019050818103600083015261327481613238565b9050919050565b7f4552433732313a2061646472657373207a65726f206973206e6f74206120766160008201527f6c6964206f776e65720000000000000000000000000000000000000000000000602082015250565b60006132d7602983612447565b91506132e28261327b565b604082019050919050565b60006020820190508181036000830152613306816132ca565b9050919050565b60006133198285612e83565b91506133258284612e83565b91508190509392505050565b7f4f776e61626c653a206e6577206f776e657220697320746865207a65726f206160008201527f6464726573730000000000000000000000000000000000000000000000000000602082015250565b600061338d602683612447565b915061339882613331565b604082019050919050565b600060208201905081810360008301526133bc81613380565b9050919050565b7f4f776e61626c653a2063616c6c6572206973206e6f7420746865206f776e6572600082015250565b60006133f9602083612447565b9150613404826133c3565b602082019050919050565b60006020820190508181036000830152613428816133ec565b9050919050565b7f4e487b7100000000000000000000000000000000000000000000000000000000600052601260045260246000fd5b7f4552433732313a207472616e7366657220746f206e6f6e20455243373231526560008201527f63656976657220696d706c656d656e7465720000000000000000000000000000602082015250565b60006134ba603283612447565b91506134c58261345e565b604082019050919050565b600060208201905081810360008301526134e9816134ad565b9050919050565b7f4552433732313a206d696e7420746f20746865207a65726f2061646472657373600082015250565b6000613526602083612447565b9150613531826134f0565b602082019050919050565b6000602082019050818103600083015261355581613519565b9050919050565b7f4552433732313a20746f6b656e20616c7265616479206d696e74656400000000600082015250565b6000613592601c83612447565b915061359d8261355c565b602082019050919050565b600060208201905081810360008301526135c181613585565b9050919050565b600081519050919050565b600082825260208201905092915050565b60006135ef826135c8565b6135f981856135d3565b9350613609818560208601612458565b61361281612482565b840191505092915050565b60006080820190506136326000830187612579565b61363f6020830186612579565b61364c6040830185612343565b818103606083015261365e81846135e4565b905095945050505050565b600081519050613678816123ad565b92915050565b60006020828403121561369457613693612377565b5b60006136a284828501613669565b9150509291505056fea264697066735822122020d82b0a1dc020963608d12b006f484d7c74fe3b60d69698be7f77aca2760e7064736f6c63430008120033a2646970667358221220d0e0b2301056772a51a3f5337927d3712b771bdffaaef2f45100a7391f1a954764736f6c63430008120033",
  "devdoc": {
    "kind": "dev",
    "methods": {},
    "version": 1
  },
  "userdoc": {
    "kind": "user",
    "methods": {},
    "version": 1
  },
  "storageLayout": {
    "storage": [
      {
        "astId": 2636,
        "contract": "contracts/UserFactory.sol:UserFactory",
        "label": "createdProfiles",
        "offset": 0,
        "slot": "0",
        "type": "t_array(t_address)dyn_storage"
      },
      {
        "astId": 2640,
        "contract": "contracts/UserFactory.sol:UserFactory",
        "label": "userProfile",
        "offset": 0,
        "slot": "1",
        "type": "t_mapping(t_string_memory_ptr,t_address)"
      },
      {
        "astId": 2644,
        "contract": "contracts/UserFactory.sol:UserFactory",
        "label": "creatorContract",
        "offset": 0,
        "slot": "2",
        "type": "t_mapping(t_address,t_address)"
      },
      {
        "astId": 2646,
        "contract": "contracts/UserFactory.sol:UserFactory",
        "label": "admin",
        "offset": 0,
        "slot": "3",
        "type": "t_address"
      }
    ],
    "types": {
      "t_address": {
        "encoding": "inplace",
        "label": "address",
        "numberOfBytes": "20"
      },
      "t_array(t_address)dyn_storage": {
        "base": "t_address",
        "encoding": "dynamic_array",
        "label": "address[]",
        "numberOfBytes": "32"
      },
      "t_mapping(t_address,t_address)": {
        "encoding": "mapping",
        "key": "t_address",
        "label": "mapping(address => address)",
        "numberOfBytes": "32",
        "value": "t_address"
      },
      "t_mapping(t_string_memory_ptr,t_address)": {
        "encoding": "mapping",
        "key": "t_string_memory_ptr",
        "label": "mapping(string => address)",
        "numberOfBytes": "32",
        "value": "t_address"
      },
      "t_string_memory_ptr": {
        "encoding": "bytes",
        "label": "string",
        "numberOfBytes": "32"
      }
    }
  }
}